{"abi":[{"type":"function","name":"addPointType","inputs":[{"name":"pt","type":"uint8","internalType":"enum PointType"}],"outputs":[],"stateMutability":"nonpayable"},{"type":"function","name":"addRedeemable","inputs":[{"name":"pt","type":"uint8","internalType":"enum PointType"},{"name":"token","type":"address","internalType":"address"}],"outputs":[],"stateMutability":"nonpayable"},{"type":"function","name":"auctionDuration","inputs":[],"outputs":[{"name":"","type":"uint256","internalType":"uint256"}],"stateMutability":"view"},{"type":"function","name":"auctionStartTime","inputs":[],"outputs":[{"name":"","type":"uint256","internalType":"uint256"}],"stateMutability":"view"},{"type":"function","name":"bidTrackers","inputs":[{"name":"","type":"uint8","internalType":"enum PointType"}],"outputs":[{"name":"info","type":"tuple","internalType":"struct AuctionInfo","components":[{"name":"startTime","type":"uint256","internalType":"uint256"},{"name":"duration","type":"uint256","internalType":"uint256"},{"name":"pointsToSell","type":"int256","internalType":"int256"},{"name":"startingPrice","type":"uint256","internalType":"uint256"},{"name":"state","type":"uint8","internalType":"enum AuctionState"}]},{"name":"currentPoints","type":"int256","internalType":"int256"},{"name":"soldPoints","type":"int256","internalType":"int256"}],"stateMutability":"view"},{"type":"function","name":"cancelAuction","inputs":[{"name":"pointType","type":"uint8[]","internalType":"enum PointType[]"}],"outputs":[],"stateMutability":"nonpayable"},{"type":"function","name":"claim","inputs":[],"outputs":[],"stateMutability":"nonpayable"},{"type":"function","name":"claimOpened","inputs":[],"outputs":[{"name":"","type":"uint256","internalType":"uint256"}],"stateMutability":"view"},{"type":"function","name":"claimTo","inputs":[{"name":"to","type":"address","internalType":"address"}],"outputs":[],"stateMutability":"nonpayable"},{"type":"function","name":"createAuction","inputs":[{"name":"_pointType","type":"uint8[]","internalType":"enum PointType[]"},{"name":"_auctionInfo","type":"tuple[]","internalType":"struct AuctionInfo[]","components":[{"name":"startTime","type":"uint256","internalType":"uint256"},{"name":"duration","type":"uint256","internalType":"uint256"},{"name":"pointsToSell","type":"int256","internalType":"int256"},{"name":"startingPrice","type":"uint256","internalType":"uint256"},{"name":"state","type":"uint8","internalType":"enum AuctionState"}]}],"outputs":[],"stateMutability":"nonpayable"},{"type":"function","name":"deposit","inputs":[{"name":"amountInEzEth","type":"uint256","internalType":"uint256"}],"outputs":[],"stateMutability":"nonpayable"},{"type":"function","name":"endAuction","inputs":[{"name":"pointType","type":"uint8","internalType":"enum PointType"}],"outputs":[],"stateMutability":"nonpayable"},{"type":"function","name":"getCurrentPoints","inputs":[{"name":"pt","type":"uint8","internalType":"enum PointType"}],"outputs":[{"name":"","type":"int256","internalType":"int256"}],"stateMutability":"view"},{"type":"function","name":"getLpToken","inputs":[],"outputs":[{"name":"","type":"address","internalType":"address"}],"stateMutability":"view"},{"type":"function","name":"getMainToken","inputs":[],"outputs":[{"name":"","type":"address","internalType":"address"}],"stateMutability":"view"},{"type":"function","name":"getSoldPoints","inputs":[{"name":"pt","type":"uint8","internalType":"enum PointType"}],"outputs":[{"name":"","type":"int256","internalType":"int256"}],"stateMutability":"view"},{"type":"function","name":"getTracker","inputs":[{"name":"pt","type":"uint8","internalType":"enum PointType"}],"outputs":[{"name":"","type":"address","internalType":"address"}],"stateMutability":"view"},{"type":"function","name":"initialize","inputs":[{"name":"ezEth","type":"address","internalType":"address"}],"outputs":[],"stateMutability":"nonpayable"},{"type":"function","name":"openClaim","inputs":[],"outputs":[],"stateMutability":"nonpayable"},{"type":"function","name":"owner","inputs":[],"outputs":[{"name":"","type":"address","internalType":"address"}],"stateMutability":"view"},{"type":"function","name":"placeBid","inputs":[{"name":"price","type":"uint256","internalType":"uint256"},{"name":"points","type":"int256","internalType":"int256"},{"name":"pointType","type":"uint8","internalType":"enum PointType"}],"outputs":[],"stateMutability":"nonpayable"},{"type":"function","name":"pointTypes","inputs":[{"name":"","type":"uint256","internalType":"uint256"}],"outputs":[{"name":"","type":"uint8","internalType":"enum PointType"}],"stateMutability":"view"},{"type":"function","name":"redeemables","inputs":[{"name":"","type":"uint8","internalType":"enum PointType"},{"name":"","type":"uint256","internalType":"uint256"}],"outputs":[{"name":"token","type":"address","internalType":"address"},{"name":"totalValue","type":"uint256","internalType":"uint256"}],"stateMutability":"view"},{"type":"function","name":"renounceOwnership","inputs":[],"outputs":[],"stateMutability":"nonpayable"},{"type":"function","name":"totalPoints","inputs":[{"name":"","type":"uint8","internalType":"enum PointType"}],"outputs":[{"name":"","type":"uint256","internalType":"uint256"}],"stateMutability":"view"},{"type":"function","name":"transferOwnership","inputs":[{"name":"newOwner","type":"address","internalType":"address"}],"outputs":[],"stateMutability":"nonpayable"},{"type":"function","name":"updatePoints","inputs":[{"name":"pointType","type":"uint8[]","internalType":"enum PointType[]"},{"name":"_currentPoints","type":"int256[]","internalType":"int256[]"}],"outputs":[],"stateMutability":"nonpayable"},{"type":"function","name":"version","inputs":[],"outputs":[{"name":"","type":"uint256","internalType":"uint256"}],"stateMutability":"pure"},{"type":"function","name":"withdraw","inputs":[{"name":"amountInLPToken","type":"uint256","internalType":"uint256"}],"outputs":[],"stateMutability":"nonpayable"},{"type":"event","name":"Initialized","inputs":[{"name":"version","type":"uint64","indexed":false,"internalType":"uint64"}],"anonymous":false},{"type":"event","name":"OwnershipTransferred","inputs":[{"name":"previousOwner","type":"address","indexed":true,"internalType":"address"},{"name":"newOwner","type":"address","indexed":true,"internalType":"address"}],"anonymous":false},{"type":"error","name":"InvalidInitialization","inputs":[]},{"type":"error","name":"NotInitializing","inputs":[]},{"type":"error","name":"OwnableInvalidOwner","inputs":[{"name":"owner","type":"address","internalType":"address"}]},{"type":"error","name":"OwnableUnauthorizedAccount","inputs":[{"name":"account","type":"address","internalType":"address"}]}],"bytecode":{"object":"0x6080604052348015600f57600080fd5b50613e5d8061001f6000396000f3fe608060405234801561001057600080fd5b50600436106101cf5760003560e01c80638214f5a411610104578063be95f704116100a2578063eb204be211610071578063eb204be2146103c1578063eb54f9ec146103d4578063f2fde38b146103dd578063fd8569cd146103f057600080fd5b8063be95f70414610375578063c4d66de814610388578063c58fc6fe1461039b578063d2e2f3bb146103ae57600080fd5b80639535ca69116100de5780639535ca69146103335780639ce31ec91461033c578063a262f5f81461034f578063b6b55f251461036257600080fd5b80638214f5a4146102fa57806389497d141461030b5780638da5cb5b1461032b57600080fd5b80634de046d511610171578063575822501161014b57806357582250146102ac5780636c8abd41146102bf5780636ce7c171146102df578063715018a6146102f257600080fd5b80634de046d5146102785780634e71d92d1461029d57806354fd4d50146102a557600080fd5b8063293cdbf1116101ad578063293cdbf1146102185780632b6ab653146102205780632e1a7d4d146102525780633cbd9f2d1461026557600080fd5b80630cbf54c8146101d457806310ff2afd146101f057806323b2573e14610203575b600080fd5b6101dd60015481565b6040519081526020015b60405180910390f35b6101dd6101fe366004612b44565b610412565b610216610211366004612c6d565b610454565b005b61021661046a565b61023361022e366004612d28565b61047e565b604080516001600160a01b0390931683526020830191909152016101e7565b610216610260366004612d54565b6104c4565b6101dd610273366004612b44565b6104d0565b6008546001600160a01b03165b6040516001600160a01b0390911681526020016101e7565b610216610512565b60016101dd565b6102856102ba366004612b44565b61051b565b6101dd6102cd366004612b44565b60046020526000908152604090205481565b6102166102ed366004612d6d565b610564565b610216610575565b6009546001600160a01b0316610285565b61031e610319366004612d54565b610587565b6040516101e79190612dd6565b6102856105bb565b6101dd60075481565b61021661034a366004612de9565b6105e9565b61021661035d366004612f0a565b6105fb565b610216610370366004612d54565b610604565b610216610383366004612f25565b61060d565b610216610396366004612f0a565b61061f565b6102166103a9366004612b44565b610784565b6102166103bc366004612b44565b61079e565b6102166103cf366004612f5a565b61083d565b6101dd60005481565b6102166103eb366004612f0a565b610906565b6104036103fe366004612b44565b610941565b6040516101e793929190612f93565b60006002600083600181111561042a5761042a612da2565b600181111561043b5761043b612da2565b8152602001908152602001600020600601549050919050565b61045c6109c5565b61046682826109f7565b5050565b6104726109c5565b61047c6001600755565b565b6003602052816000526040600020818154811061049a57600080fd5b6000918252602090912060029091020180546001909101546001600160a01b039091169250905082565b6104cd81610baf565b50565b6000600260008360018111156104e8576104e8612da2565b60018111156104f9576104f9612da2565b8152602001908152602001600020600501549050919050565b61047c33610da2565b6000600c600083600181111561053357610533612da2565b600181111561054457610544612da2565b81526020810191909152604001600020546001600160a01b031692915050565b61056c6109c5565b6104cd81611028565b61057d6109c5565b61047c6000611157565b6006818154811061059757600080fd5b9060005260206000209060209182820401919006915054906101000a900460ff1681565b7f9016d09d72d40fdae2fd8ceac6b6234c7706214fd39c1cd1e609a0528c199300546001600160a01b031690565b6105f16109c5565b61046682826111c8565b6104cd81610da2565b6104cd816114a2565b6106156109c5565b6104668282611625565b7ff0c57e16840df040f15088dc2f81fe391c3923bec73e23a9662efc9c229c6a008054600160401b810460ff16159067ffffffffffffffff166000811580156106655750825b905060008267ffffffffffffffff1660011480156106825750303b155b905081158015610690575080155b156106ae5760405163f92ee8a960e01b815260040160405180910390fd5b845467ffffffffffffffff1916600117855583156106d857845460ff60401b1916600160401b1785555b6106e133611759565b6106ea8661176a565b6107106000604051806040016040528060038152602001620454c560ec1b8152506117eb565b6107366001604051806040016040528060038152602001620455a560ec1b8152506117eb565b831561077c57845460ff60401b19168555604051600181527fc7f505b2f371ae2175ee4913f4499e1f2633a7b5936321eed1cdaeb6115181d29060200160405180910390a15b505050505050565b61078c6109c5565b6104cd81610799836118c8565b61197a565b60006107a982611ac0565b8051909150156108355760005b81518110156108335761082b8282815181106107d4576107d4612fe1565b6020026020010151600001518383815181106107f2576107f2612fe1565b60200260200101516040015184848151811061081057610810612fe1565b602002602001015160200151610826919061300d565b611fd5565b6001016107b6565b505b61046661205f565b6108456105bb565b6001600160a01b0316330361089a5760405162461bcd60e51b815260206004820152601660248201527513dddb995c881b9bdd08185b1b1bddc81d1bc8189a5960521b60448201526064015b60405180910390fd5b600082136108a757600080fd5b60006108b3838561300d565b90506108bf338261207f565b60006108cc85858561210f565b8051909150156108ff5760005b815181101561077c576108f78282815181106107d4576107d4612fe1565b6001016108d9565b5050505050565b61090e6109c5565b6001600160a01b03811661093857604051631e4fbdf760e01b815260006004820152602401610891565b6104cd81611157565b600260208181526000928352604092839020835160a081018552815481526001808301549382019390935292810154938301939093526003830154606083015260048301548391608084019160ff16908111156109a0576109a0612da2565b60018111156109b1576109b1612da2565b905250600582015460069092015490919083565b336109ce6105bb565b6001600160a01b03161461047c5760405163118cdaa760e01b8152336004820152602401610891565b60005b82518160ff161015610baa576000828260ff1681518110610a1d57610a1d612fe1565b602002602001015113610a6c5760405162461bcd60e51b8152602060048201526017602482015276506f696e7473206d75737420626520706f73697469766560481b6044820152606401610891565b60026000848360ff1681518110610a8557610a85612fe1565b60200260200101516001811115610a9e57610a9e612da2565b6001811115610aaf57610aaf612da2565b815260200190815260200160002060050154828260ff1681518110610ad657610ad6612fe1565b602002602001015113610b245760405162461bcd60e51b8152602060048201526016602482015275506f696e7473206d7573742062652067726f77696e6760501b6044820152606401610891565b818160ff1681518110610b3957610b39612fe1565b602002602001015160026000858460ff1681518110610b5a57610b5a612fe1565b60200260200101516001811115610b7357610b73612da2565b6001811115610b8457610b84612da2565b815260208101919091526040016000206005015580610ba281613024565b9150506109fa565b505050565b600954604080516318160ddd60e01b815290516000926001600160a01b0316916318160ddd9160048083019260209291908290030181865afa158015610bf9573d6000803e3d6000fd5b505050506040513d601f19601f82011682018060405250810190610c1d9190613043565b11610c2757600080fd5b600954604080516318160ddd60e01b815290516000926001600160a01b0316916318160ddd9160048083019260209291908290030181865afa158015610c71573d6000803e3d6000fd5b505050506040513d601f19601f82011682018060405250810190610c959190613043565b600a54610ca2908461300d565b610cac919061305c565b600954604051632770a7eb60e21b8152336004820152602481018590529192506001600160a01b031690639dc29fac90604401600060405180830381600087803b158015610cf957600080fd5b505af1158015610d0d573d6000803e3d6000fd5b505060085460405163a9059cbb60e01b8152336004820152602481018590526001600160a01b03909116925063a9059cbb91506044016020604051808303816000875af1158015610d62573d6000803e3d6000fd5b505050506040513d601f19601f82011682018060405250810190610d86919061307e565b5080600a6000828254610d9991906130a0565b90915550505050565b3360005b600654811015610baa576000610dee8360068481548110610dc957610dc9612fe1565b90600052602060002090602091828204019190069054906101000a900460ff16612370565b9050600081118015610e67575060006004600060068581548110610e1457610e14612fe1565b90600052602060002090602091828204019190069054906101000a900460ff166001811115610e4557610e45612da2565b6001811115610e5657610e56612da2565b815260200190815260200160002054115b1561101f57610ea98360068481548110610e8357610e83612fe1565b90600052602060002090602091828204019190069054906101000a900460ff1683612383565b60005b6003600060068581548110610ec357610ec3612fe1565b90600052602060002090602091828204019190069054906101000a900460ff166001811115610ef457610ef4612da2565b6001811115610f0557610f05612da2565b815260208101919091526040016000205481101561101d57611015856003600060068781548110610f3857610f38612fe1565b90600052602060002090602091828204019190069054906101000a900460ff166001811115610f6957610f69612da2565b6001811115610f7a57610f7a612da2565b81526020019081526020016000208381548110610f9957610f99612fe1565b9060005260206000209060020201846004600060068981548110610fbf57610fbf612fe1565b90600052602060002090602091828204019190069054906101000a900460ff166001811115610ff057610ff0612da2565b600181111561100157611001612da2565b81526020019081526020016000205461238e565b600101610eac565b505b50600101610da6565b60005b81518160ff16101561046657600060026000848460ff168151811061105257611052612fe1565b6020026020010151600181111561106b5761106b612da2565b600181111561107c5761107c612da2565b8152602081019190915260400160002090506001600482015460ff1660018111156110a9576110a9612da2565b146110ec5760405162461bcd60e51b8152602060048201526013602482015272105d58dd1a5bdb881b9bdd0818dc99585d1959606a1b6044820152606401610891565b8054421061113c5760405162461bcd60e51b815260206004820152601760248201527f41756374696f6e20616c726561647920737461727465640000000000000000006044820152606401610891565b600401805460ff1916905561115081613024565b905061102b565b7f9016d09d72d40fdae2fd8ceac6b6234c7706214fd39c1cd1e609a0528c19930080546001600160a01b031981166001600160a01b03848116918217845560405192169182907f8be0079c531659141344cd1fd0a4f28419497f9722a3daafe3b4186f6b6457e090600090a3505050565b60005b82518160ff161015610baa57600060026000858460ff16815181106111f2576111f2612fe1565b6020026020010151600181111561120b5761120b612da2565b600181111561121c5761121c612da2565b8152602081019190915260400160009081209150600482015460ff16600181111561124957611249612da2565b146112965760405162461bcd60e51b815260206004820152601760248201527f41756374696f6e20616c726561647920637265617465640000000000000000006044820152606401610891565b828260ff16815181106112ab576112ab612fe1565b60200260200101516000015142106112fa5760405162461bcd60e51b8152602060048201526012602482015271496e76616c69642073746172742074696d6560701b6044820152606401610891565b62015180838360ff168151811061131357611313612fe1565b602002602001015160200151106113605760405162461bcd60e51b81526020600482015260116024820152704475726174696f6e20746f6f206c6f6e6760781b6044820152606401610891565b6201518042848460ff168151811061137a5761137a612fe1565b60200260200101516000015161139091906130a0565b106113dd5760405162461bcd60e51b815260206004820152601760248201527f53746172742074696d6520746f6f2066617220617761790000000000000000006044820152606401610891565b828260ff16815181106113f2576113f2612fe1565b6020026020010151816000016000820151816000015560208201518160010155604082015181600201556060820151816003015560808201518160040160006101000a81548160ff0219169083600181111561145057611450612da2565b0217905550611466915050600782016000612aae565b60008160060154826005015461147c91906130b3565b600283015550600401805460ff191660011790558061149a81613024565b9150506111cb565b6008546040516323b872dd60e01b8152336004820152306024820152604481018390526001600160a01b03909116906323b872dd906064016020604051808303816000875af11580156114f9573d6000803e3d6000fd5b505050506040513d601f19601f8201168201806040525081019061151d919061307e565b50600a548190156115af57600a54600954604080516318160ddd60e01b8152905185926001600160a01b0316916318160ddd9160048083019260209291908290030181865afa158015611574573d6000803e3d6000fd5b505050506040513d601f19601f820116820180604052508101906115989190613043565b6115a2919061300d565b6115ac919061305c565b90505b6009546040516340c10f1960e01b8152336004820152602481018390526001600160a01b03909116906340c10f1990604401600060405180830381600087803b1580156115fb57600080fd5b505af115801561160f573d6000803e3d6000fd5b5050505081600a6000828254610d9991906130da565b6007541561163257600080fd5b6001600160a01b0381166000908152600560205260409020541561165557600080fd5b6003600083600181111561166b5761166b612da2565b600181111561167c5761167c612da2565b81526020808201929092526040908101600020815180830183526001600160a01b03851680825292516370a0823160e01b815230600482015291939092908301916370a0823190602401602060405180830381865afa1580156116e3573d6000803e3d6000fd5b505050506040513d601f19601f820116820180604052508101906117079190613043565b905281546001808201845560009384526020808520845160029094020180546001600160a01b0319166001600160a01b0394851617815593810151938201939093559316825260059052604090205550565b611761612432565b6104cd8161247b565b600880546001600160a01b0319166001600160a01b03831617905560405161179190612acf565b60208082526003908201526213141560ea1b6040820152606001604051809103906000f0801580156117c7573d6000803e3d6000fd5b50600980546001600160a01b0319166001600160a01b039290921691909117905550565b6000600c8184600181111561180257611802612da2565b600181111561181357611813612da2565b81526020810191909152604001600020546001600160a01b03161461183757600080fd5b8060405161184490612acf565b61184e91906130ed565b604051809103906000f08015801561186a573d6000803e3d6000fd5b50600c600084600181111561188157611881612da2565b600181111561189257611892612da2565b815260200190815260200160002060006101000a8154816001600160a01b0302191690836001600160a01b031602179055505050565b6000600c60008360018111156118e0576118e0612da2565b60018111156118f1576118f1612da2565b815260200190815260200160002060009054906101000a90046001600160a01b03166001600160a01b03166318160ddd6040518163ffffffff1660e01b8152600401602060405180830381865afa158015611950573d6000803e3d6000fd5b505050506040513d601f19601f820116820180604052508101906119749190613043565b92915050565b6007541561198757600080fd5b6004600083600181111561199d5761199d612da2565b60018111156119ae576119ae612da2565b815260200190815260200160002054600014611a0c5760405162461bcd60e51b815260206004820152601760248201527f506f696e745479706520616c72656164792061646465640000000000000000006044820152606401610891565b60008111611a1957600080fd5b8060046000846001811115611a3057611a30612da2565b6001811115611a4157611a41612da2565b81526020808201929092526040016000908120929092556006805460018181018355919093529082047ff652222313e28459528d920b65115c16c04f3efc82aaedc97be59f3f377c0d3f0180548593919260ff601f9093166101000a9283021990911691908490811115611ab757611ab7612da2565b02179055505050565b6060600060026000846001811115611ada57611ada612da2565b6001811115611aeb57611aeb612da2565b8152602081019190915260400160002090506001600482015460ff166001811115611b1857611b18612da2565b14611b535760405162461bcd60e51b815260206004820152600b60248201526a57726f6e6720737461746560a81b6044820152606401610891565b600181015481544291611b65916130da565b10611b9f5760405162461bcd60e51b815260206004820152600a60248201526957726f6e672074696d6560b01b6044820152606401610891565b600080611baa612adc565b83600501548460060154128015611bc45750600784015483105b15611e00578360050154846007018481548110611be357611be3612fe1565b9060005260206000209060030201600201548560060154611c04919061313c565b1315611d4357600084600601548560050154611c2091906130b3565b9050846007018481548110611c3757611c37612fe1565b60009182526020909120600390910201546001600160a01b0316825260078501805485908110611c6957611c69612fe1565b90600052602060002090600302016001015482602001818152505080856007018581548110611c9a57611c9a612fe1565b906000526020600020906003020160020154611cb691906130b3565b604083015260078501805482919086908110611cd457611cd4612fe1565b90600052602060002090600302016002018190555080856006016000828254611cfd919061313c565b92505081905550611d3d856007018581548110611d1c57611d1c612fe1565b60009182526020909120600390910201546001600160a01b03168883612483565b50611dee565b836007018381548110611d5857611d58612fe1565b906000526020600020906003020160020154846006016000828254611d7d919061313c565b92505081905550611dee846007018481548110611d9c57611d9c612fe1565b906000526020600020906003020160000160009054906101000a90046001600160a01b031687866007018681548110611dd757611dd7612fe1565b906000526020600020906003020160020154612483565b82611df881613164565b935050611baa565b80516001600160a01b031615611e17576001611e1a565b60005b60ff16838560070180549050611e3091906130a0565b611e3a91906130da565b67ffffffffffffffff811115611e5257611e52612b61565b604051908082528060200260200182016040528015611e8b57816020015b611e78612adc565b815260200190600190039081611e705790505b5081519095506001600160a01b031615611ebe5780858381518110611eb257611eb2612fe1565b60200260200101819052505b825b6007850154811015611f5957846007018481548110611ee157611ee1612fe1565b600091825260209182902060408051606081018252600390930290910180546001600160a01b03168352600181015493830193909352600290920154918101919091528651879085908110611f3857611f38612fe1565b60200260200101819052508280611f4e90613164565b935050600101611ec0565b505b6007840154831015611faf5783600701805480611f7a57611f7a61317d565b60008281526020812060036000199093019283020180546001600160a01b031916815560018101829055600201559055611f5b565b6000600485015460ff166001811115611fca57611fca612da2565b505050505050919050565b60085460405163a9059cbb60e01b81526001600160a01b038481166004830152602482018490529091169063a9059cbb906044016020604051808303816000875af1158015612028573d6000803e3d6000fd5b505050506040513d601f19601f8201168201806040525081019061204c919061307e565b5080600b6000828254610d9991906130a0565b600b54600a600082825461207391906130da565b90915550506000600b55565b6008546040516323b872dd60e01b81526001600160a01b03848116600483015230602483015260448201849052909116906323b872dd906064016020604051808303816000875af11580156120d8573d6000803e3d6000fd5b505050506040513d601f19601f820116820180604052508101906120fc919061307e565b5080600b6000828254610d9991906130da565b606060016002600084600181111561212957612129612da2565b600181111561213a5761213a612da2565b815260208101919091526040016000206004015460ff16600181111561216257612162612da2565b1461217f5760405162461bcd60e51b815260040161089190613193565b6002600083600181111561219557612195612da2565b60018111156121a6576121a6612da2565b81526020810191909152604001600020544210156121d65760405162461bcd60e51b815260040161089190613193565b600260008360018111156121ec576121ec612da2565b60018111156121fd576121fd612da2565b8152602001908152602001600020600001600101546002600084600181111561222857612228612da2565b600181111561223957612239612da2565b815260208101919091526040016000205461225491906130da565b42106122725760405162461bcd60e51b815260040161089190613193565b600083136122bc5760405162461bcd60e51b8152602060048201526017602482015276506f696e7473206d75737420626520706f73697469766560481b6044820152606401610891565b600260008360018111156122d2576122d2612da2565b60018111156122e3576122e3612da2565b81526020019081526020016000206000016003015484101561233b5760405162461bcd60e51b815260206004820152601160248201527042696420707269636520746f6f206c6f7760781b6044820152606401610891565b612368826040518060600160405280336001600160a01b031681526020018781526020018681525061249b565b949350505050565b600061237c83836128f7565b9392505050565b610baa83838361299d565b60006007541161239d57600080fd5b6000818460010154846123b0919061300d565b6123ba919061305c565b845460405163a9059cbb60e01b81526001600160a01b0388811660048301526024820184905292935091169063a9059cbb906044016020604051808303816000875af115801561240e573d6000803e3d6000fd5b505050506040513d601f19601f8201168201806040525081019061077c919061307e565b7ff0c57e16840df040f15088dc2f81fe391c3923bec73e23a9662efc9c229c6a0054600160401b900460ff1661047c57604051631afcd79f60e31b815260040160405180910390fd5b61090e612432565b6000811361249057600080fd5b610baa838383612a3f565b60606000600260008560018111156124b5576124b5612da2565b60018111156124c6576124c6612da2565b815260200190815260200160002090506000600260008660018111156124ee576124ee612da2565b60018111156124ff576124ff612da2565b81526020808201929092526040908101600090812060029081015460078701805460018082018355918552938690208a5160039095020180546001600160a01b0319166001600160a01b03909516949094178455948901519483019490945591870151910181905590915061257490826130b3565b600783015490915060009061258b906001906130a0565b90505b80156126c657600783016125a36001836130a0565b815481106125b3576125b3612fe1565b9060005260206000209060030201600101548360070182815481106125da576125da612fe1565b90600052602060002090600302016001015411156126b4576126b483600701828154811061260a5761260a612fe1565b90600052602060002090600302018460070160018461262991906130a0565b8154811061263957612639612fe1565b90600052602060002090600302016040805160608101825282546001600160a01b0380821680845260018087018054602087018190526002808a018054989099018890528a546001600160a01b0319978816961695909517909855928801805490965587018054909255865490921690911790945590559055565b806126be816131bf565b91505061258e565b5060078201545b6000600784016126de6001846130a0565b815481106126ee576126ee612fe1565b9060005260206000209060030201600201548361270b919061313c565b1361276357600783018054612722906001906130a0565b8154811061273257612732612fe1565b9060005260206000209060030201600201548261274f919061313c565b91508061275b816131bf565b9150506126cd565b60078301546127739082906130a0565b67ffffffffffffffff81111561278b5761278b612b61565b6040519080825280602002602001820160405280156127c457816020015b6127b1612adc565b8152602001906001900390816127a95790505b509350805b600784015481101561285b578360070181815481106127ea576127ea612fe1565b600091825260209182902060408051606081018252600390930290910180546001600160a01b03168352600181015493830193909352600290920154918101919091528561283884846130a0565b8151811061284857612848612fe1565b60209081029190910101526001016127c9565b505b60078301548110156128b1578260070180548061287c5761287c61317d565b60008281526020812060036000199093019283020180546001600160a01b03191681556001810182905560020155905561285d565b81600260008860018111156128c8576128c8612da2565b60018111156128d9576128d9612da2565b81526020810191909152604001600020600201555091949350505050565b6000600c600083600181111561290f5761290f612da2565b600181111561292057612920612da2565b8152602081019190915260409081016000205490516370a0823160e01b81526001600160a01b038581166004830152909116906370a0823190602401602060405180830381865afa158015612979573d6000803e3d6000fd5b505050506040513d601f19601f8201168201806040525081019061237c9190613043565b600c60008360018111156129b3576129b3612da2565b60018111156129c4576129c4612da2565b815260208101919091526040908101600020549051632770a7eb60e21b81526001600160a01b0385811660048301526024820184905290911690639dc29fac906044015b600060405180830381600087803b158015612a2257600080fd5b505af1158015612a36573d6000803e3d6000fd5b50505050505050565b600c6000836001811115612a5557612a55612da2565b6001811115612a6657612a66612da2565b8152602081019190915260409081016000205490516340c10f1960e01b81526001600160a01b03858116600483015260248201849052909116906340c10f1990604401612a08565b50805460008255600302906000526020600020908101906104cd9190612b06565b610c51806131d783390190565b604051806060016040528060006001600160a01b0316815260200160008152602001600081525090565b5b80821115612b335780546001600160a01b03191681556000600182018190556002820155600301612b07565b5090565b600281106104cd57600080fd5b600060208284031215612b5657600080fd5b813561237c81612b37565b634e487b7160e01b600052604160045260246000fd5b60405160a0810167ffffffffffffffff81118282101715612b9a57612b9a612b61565b60405290565b604051601f8201601f1916810167ffffffffffffffff81118282101715612bc957612bc9612b61565b604052919050565b600067ffffffffffffffff821115612beb57612beb612b61565b5060051b60200190565b600082601f830112612c0657600080fd5b81356020612c1b612c1683612bd1565b612ba0565b8083825260208201915060208460051b870101935086841115612c3d57600080fd5b602086015b84811015612c62578035612c5581612b37565b8352918301918301612c42565b509695505050505050565b60008060408385031215612c8057600080fd5b823567ffffffffffffffff80821115612c9857600080fd5b612ca486838701612bf5565b9350602091508185013581811115612cbb57600080fd5b85019050601f81018613612cce57600080fd5b8035612cdc612c1682612bd1565b81815260059190911b82018301908381019088831115612cfb57600080fd5b928401925b82841015612d1957833582529284019290840190612d00565b80955050505050509250929050565b60008060408385031215612d3b57600080fd5b8235612d4681612b37565b946020939093013593505050565b600060208284031215612d6657600080fd5b5035919050565b600060208284031215612d7f57600080fd5b813567ffffffffffffffff811115612d9657600080fd5b61236884828501612bf5565b634e487b7160e01b600052602160045260246000fd5b600281106104cd57634e487b7160e01b600052602160045260246000fd5b60208101612de383612db8565b91905290565b6000806040808486031215612dfd57600080fd5b833567ffffffffffffffff80821115612e1557600080fd5b612e2187838801612bf5565b9450602091508186013581811115612e3857600080fd5b86019050601f81018713612e4b57600080fd5b8035612e59612c1682612bd1565b81815260a0918202830184019184820191908a841115612e7857600080fd5b938501935b83851015612edd5780858c031215612e955760008081fd5b612e9d612b77565b853581528686013587820152878601358882015260608087013590820152608080870135612eca81612b37565b9082015283529384019391850191612e7d565b508096505050505050509250929050565b80356001600160a01b0381168114612f0557600080fd5b919050565b600060208284031215612f1c57600080fd5b61237c82612eee565b60008060408385031215612f3857600080fd5b8235612f4381612b37565b9150612f5160208401612eee565b90509250929050565b600080600060608486031215612f6f57600080fd5b83359250602084013591506040840135612f8881612b37565b809150509250925092565b600060e082019050845182526020850151602083015260408501516040830152606085015160608301526080850151612fcb81612db8565b608083015260a082019390935260c00152919050565b634e487b7160e01b600052603260045260246000fd5b634e487b7160e01b600052601160045260246000fd5b808202811582820484141761197457611974612ff7565b600060ff821660ff810361303a5761303a612ff7565b60010192915050565b60006020828403121561305557600080fd5b5051919050565b60008261307957634e487b7160e01b600052601260045260246000fd5b500490565b60006020828403121561309057600080fd5b8151801515811461237c57600080fd5b8181038181111561197457611974612ff7565b81810360008312801583831316838312821617156130d3576130d3612ff7565b5092915050565b8082018082111561197457611974612ff7565b60006020808352835180602085015260005b8181101561311b578581018301518582016040015282016130ff565b506000604082860101526040601f19601f8301168501019250505092915050565b808201828112600083128015821682158216171561315c5761315c612ff7565b505092915050565b60006001820161317657613176612ff7565b5060010190565b634e487b7160e01b600052603160045260246000fd5b60208082526012908201527141756374696f6e206e6f742061637469766560701b604082015260600190565b6000816131ce576131ce612ff7565b50600019019056fe608060405234801561001057600080fd5b50604051610c51380380610c5183398101604081905261002f916100f4565b338180600361003e8282610248565b50600461004b8282610248565b5050506001600160a01b03811661007c57604051631e4fbdf760e01b81526000600482015260240160405180910390fd5b6100858161008c565b5050610307565b600580546001600160a01b038381166001600160a01b0319831681179093556040519116919082907f8be0079c531659141344cd1fd0a4f28419497f9722a3daafe3b4186f6b6457e090600090a35050565b634e487b7160e01b600052604160045260246000fd5b6000602080838503121561010757600080fd5b82516001600160401b038082111561011e57600080fd5b818501915085601f83011261013257600080fd5b815181811115610144576101446100de565b604051601f8201601f19908116603f0116810190838211818310171561016c5761016c6100de565b81604052828152888684870101111561018457600080fd5b600093505b828410156101a65784840186015181850187015292850192610189565b600086848301015280965050505050505092915050565b600181811c908216806101d157607f821691505b6020821081036101f157634e487b7160e01b600052602260045260246000fd5b50919050565b601f821115610243576000816000526020600020601f850160051c810160208610156102205750805b601f850160051c820191505b8181101561023f5782815560010161022c565b5050505b505050565b81516001600160401b03811115610261576102616100de565b6102758161026f84546101bd565b846101f7565b602080601f8311600181146102aa57600084156102925750858301515b600019600386901b1c1916600185901b17855561023f565b600085815260208120601f198616915b828110156102d9578886015182559484019460019091019084016102ba565b50858210156102f75787850151600019600388901b60f8161c191681555b5050505050600190811b01905550565b61093b806103166000396000f3fe608060405234801561001057600080fd5b50600436106100ea5760003560e01c8063715018a61161008c5780639dc29fac116100665780639dc29fac146101cd578063a9059cbb146101e0578063dd62ed3e146101f3578063f2fde38b1461022c57600080fd5b8063715018a6146101a25780638da5cb5b146101aa57806395d89b41146101c557600080fd5b806323b872dd116100c857806323b872dd14610142578063313ce5671461015557806340c10f191461016457806370a082311461017957600080fd5b806306fdde03146100ef578063095ea7b31461010d57806318160ddd14610130575b600080fd5b6100f761023f565b6040516101049190610784565b60405180910390f35b61012061011b3660046107ef565b6102d1565b6040519015158152602001610104565b6002545b604051908152602001610104565b610120610150366004610819565b6102eb565b60405160128152602001610104565b6101776101723660046107ef565b61030f565b005b610134610187366004610855565b6001600160a01b031660009081526020819052604090205490565b610177610325565b6005546040516001600160a01b039091168152602001610104565b6100f7610339565b6101776101db3660046107ef565b610348565b6101206101ee3660046107ef565b61035a565b610134610201366004610877565b6001600160a01b03918216600090815260016020908152604080832093909416825291909152205490565b61017761023a366004610855565b610368565b60606003805461024e906108aa565b80601f016020809104026020016040519081016040528092919081815260200182805461027a906108aa565b80156102c75780601f1061029c576101008083540402835291602001916102c7565b820191906000526020600020905b8154815290600101906020018083116102aa57829003601f168201915b5050505050905090565b6000336102df8185856103ab565b60019150505b92915050565b6000336102f98582856103bd565b61030485858561043b565b506001949350505050565b61031761049a565b61032182826104c7565b5050565b61032d61049a565b61033760006104fd565b565b60606004805461024e906108aa565b61035061049a565b610321828261054f565b6000336102df81858561043b565b61037061049a565b6001600160a01b03811661039f57604051631e4fbdf760e01b8152600060048201526024015b60405180910390fd5b6103a8816104fd565b50565b6103b88383836001610585565b505050565b6001600160a01b038381166000908152600160209081526040808320938616835292905220546000198114610435578181101561042657604051637dc7a0d960e11b81526001600160a01b03841660048201526024810182905260448101839052606401610396565b61043584848484036000610585565b50505050565b6001600160a01b03831661046557604051634b637e8f60e11b815260006004820152602401610396565b6001600160a01b03821661048f5760405163ec442f0560e01b815260006004820152602401610396565b6103b883838361065a565b6005546001600160a01b031633146103375760405163118cdaa760e01b8152336004820152602401610396565b6001600160a01b0382166104f15760405163ec442f0560e01b815260006004820152602401610396565b6103216000838361065a565b600580546001600160a01b038381166001600160a01b0319831681179093556040519116919082907f8be0079c531659141344cd1fd0a4f28419497f9722a3daafe3b4186f6b6457e090600090a35050565b6001600160a01b03821661057957604051634b637e8f60e11b815260006004820152602401610396565b6103218260008361065a565b6001600160a01b0384166105af5760405163e602df0560e01b815260006004820152602401610396565b6001600160a01b0383166105d957604051634a1406b160e11b815260006004820152602401610396565b6001600160a01b038085166000908152600160209081526040808320938716835292905220829055801561043557826001600160a01b0316846001600160a01b03167f8c5be1e5ebec7d5bd14f71427d1e84f3dd0314c0f7b2291e5b200ac8c7c3b9258460405161064c91815260200190565b60405180910390a350505050565b6001600160a01b03831661068557806002600082825461067a91906108e4565b909155506106f79050565b6001600160a01b038316600090815260208190526040902054818110156106d85760405163391434e360e21b81526001600160a01b03851660048201526024810182905260448101839052606401610396565b6001600160a01b03841660009081526020819052604090209082900390555b6001600160a01b03821661071357600280548290039055610732565b6001600160a01b03821660009081526020819052604090208054820190555b816001600160a01b0316836001600160a01b03167fddf252ad1be2c89b69c2b068fc378daa952ba7f163c4a11628f55a4df523b3ef8360405161077791815260200190565b60405180910390a3505050565b60006020808352835180602085015260005b818110156107b257858101830151858201604001528201610796565b506000604082860101526040601f19601f8301168501019250505092915050565b80356001600160a01b03811681146107ea57600080fd5b919050565b6000806040838503121561080257600080fd5b61080b836107d3565b946020939093013593505050565b60008060006060848603121561082e57600080fd5b610837846107d3565b9250610845602085016107d3565b9150604084013590509250925092565b60006020828403121561086757600080fd5b610870826107d3565b9392505050565b6000806040838503121561088a57600080fd5b610893836107d3565b91506108a1602084016107d3565b90509250929050565b600181811c908216806108be57607f821691505b6020821081036108de57634e487b7160e01b600052602260045260246000fd5b50919050565b808201808211156102e557634e487b7160e01b600052601160045260246000fdfea264697066735822122086c3ab4b3bd552d1577b004fa2bce1150143db0514a950ec84a344a379f47c6f64736f6c63430008190033a26469706673582212207b08ced39060b6bb19162fc30fc8fac0bc9994fd14578ab9daad3a5032a32aa164736f6c63430008190033","linkReferences":{}},"methodIdentifiers":{"addPointType(uint8)":"c58fc6fe","addRedeemable(uint8,address)":"be95f704","auctionDuration()":"0cbf54c8","auctionStartTime()":"eb54f9ec","bidTrackers(uint8)":"fd8569cd","cancelAuction(uint8[])":"6ce7c171","claim()":"4e71d92d","claimOpened()":"9535ca69","claimTo(address)":"a262f5f8","createAuction(uint8[],(uint256,uint256,int256,uint256,uint8)[])":"9ce31ec9","deposit(uint256)":"b6b55f25","endAuction(uint8)":"d2e2f3bb","getCurrentPoints(uint8)":"3cbd9f2d","getLpToken()":"8214f5a4","getMainToken()":"4de046d5","getSoldPoints(uint8)":"10ff2afd","getTracker(uint8)":"57582250","initialize(address)":"c4d66de8","openClaim()":"293cdbf1","owner()":"8da5cb5b","placeBid(uint256,int256,uint8)":"eb204be2","pointTypes(uint256)":"89497d14","redeemables(uint8,uint256)":"2b6ab653","renounceOwnership()":"715018a6","totalPoints(uint8)":"6c8abd41","transferOwnership(address)":"f2fde38b","updatePoints(uint8[],int256[])":"23b2573e","version()":"54fd4d50","withdraw(uint256)":"2e1a7d4d"},"storageLayout":{"storage":[{"astId":82471,"contract":"src/Controller.sol:Controller","label":"auctionStartTime","offset":0,"slot":"0","type":"t_uint256"},{"astId":82473,"contract":"src/Controller.sol:Controller","label":"auctionDuration","offset":0,"slot":"1","type":"t_uint256"},{"astId":82479,"contract":"src/Controller.sol:Controller","label":"bidTrackers","offset":0,"slot":"2","type":"t_mapping(t_enum(PointType)83653,t_struct(BidTracker)83691_storage)"},{"astId":83371,"contract":"src/Controller.sol:Controller","label":"redeemables","offset":0,"slot":"3","type":"t_mapping(t_enum(PointType)83653,t_array(t_struct(Redeemable)83364_storage)dyn_storage)"},{"astId":83376,"contract":"src/Controller.sol:Controller","label":"totalPoints","offset":0,"slot":"4","type":"t_mapping(t_enum(PointType)83653,t_uint256)"},{"astId":83380,"contract":"src/Controller.sol:Controller","label":"tokenUsed","offset":0,"slot":"5","type":"t_mapping(t_address,t_uint256)"},{"astId":83384,"contract":"src/Controller.sol:Controller","label":"pointTypes","offset":0,"slot":"6","type":"t_array(t_enum(PointType)83653)dyn_storage"},{"astId":83386,"contract":"src/Controller.sol:Controller","label":"claimOpened","offset":0,"slot":"7","type":"t_uint256"},{"astId":81690,"contract":"src/Controller.sol:Controller","label":"eth","offset":0,"slot":"8","type":"t_contract(IERC20)74232"},{"astId":81693,"contract":"src/Controller.sol:Controller","label":"lpt","offset":0,"slot":"9","type":"t_contract(LocalToken)81687"},{"astId":81695,"contract":"src/Controller.sol:Controller","label":"trackedBalance","offset":0,"slot":"10","type":"t_uint256"},{"astId":81697,"contract":"src/Controller.sol:Controller","label":"pending","offset":0,"slot":"11","type":"t_uint256"},{"astId":81703,"contract":"src/Controller.sol:Controller","label":"pointsTrackers","offset":0,"slot":"12","type":"t_mapping(t_enum(PointType)83653,t_contract(LocalToken)81687)"}],"types":{"t_address":{"encoding":"inplace","label":"address","numberOfBytes":"20"},"t_array(t_enum(PointType)83653)dyn_storage":{"encoding":"dynamic_array","label":"enum PointType[]","numberOfBytes":"32","base":"t_enum(PointType)83653"},"t_array(t_struct(Bid)83667_storage)dyn_storage":{"encoding":"dynamic_array","label":"struct Bid[]","numberOfBytes":"32","base":"t_struct(Bid)83667_storage"},"t_array(t_struct(Redeemable)83364_storage)dyn_storage":{"encoding":"dynamic_array","label":"struct Redeemable[]","numberOfBytes":"32","base":"t_struct(Redeemable)83364_storage"},"t_contract(IERC20)74232":{"encoding":"inplace","label":"contract IERC20","numberOfBytes":"20"},"t_contract(LocalToken)81687":{"encoding":"inplace","label":"contract LocalToken","numberOfBytes":"20"},"t_enum(AuctionState)83656":{"encoding":"inplace","label":"enum AuctionState","numberOfBytes":"1"},"t_enum(PointType)83653":{"encoding":"inplace","label":"enum PointType","numberOfBytes":"1"},"t_int256":{"encoding":"inplace","label":"int256","numberOfBytes":"32"},"t_mapping(t_address,t_uint256)":{"encoding":"mapping","key":"t_address","label":"mapping(address => uint256)","numberOfBytes":"32","value":"t_uint256"},"t_mapping(t_enum(PointType)83653,t_array(t_struct(Redeemable)83364_storage)dyn_storage)":{"encoding":"mapping","key":"t_enum(PointType)83653","label":"mapping(enum PointType => struct Redeemable[])","numberOfBytes":"32","value":"t_array(t_struct(Redeemable)83364_storage)dyn_storage"},"t_mapping(t_enum(PointType)83653,t_contract(LocalToken)81687)":{"encoding":"mapping","key":"t_enum(PointType)83653","label":"mapping(enum PointType => contract LocalToken)","numberOfBytes":"32","value":"t_contract(LocalToken)81687"},"t_mapping(t_enum(PointType)83653,t_struct(BidTracker)83691_storage)":{"encoding":"mapping","key":"t_enum(PointType)83653","label":"mapping(enum PointType => struct BidTracker)","numberOfBytes":"32","value":"t_struct(BidTracker)83691_storage"},"t_mapping(t_enum(PointType)83653,t_uint256)":{"encoding":"mapping","key":"t_enum(PointType)83653","label":"mapping(enum PointType => uint256)","numberOfBytes":"32","value":"t_uint256"},"t_struct(AuctionInfo)83679_storage":{"encoding":"inplace","label":"struct AuctionInfo","numberOfBytes":"160","members":[{"astId":83669,"contract":"src/Controller.sol:Controller","label":"startTime","offset":0,"slot":"0","type":"t_uint256"},{"astId":83671,"contract":"src/Controller.sol:Controller","label":"duration","offset":0,"slot":"1","type":"t_uint256"},{"astId":83673,"contract":"src/Controller.sol:Controller","label":"pointsToSell","offset":0,"slot":"2","type":"t_int256"},{"astId":83675,"contract":"src/Controller.sol:Controller","label":"startingPrice","offset":0,"slot":"3","type":"t_uint256"},{"astId":83678,"contract":"src/Controller.sol:Controller","label":"state","offset":0,"slot":"4","type":"t_enum(AuctionState)83656"}]},"t_struct(Bid)83667_storage":{"encoding":"inplace","label":"struct Bid","numberOfBytes":"96","members":[{"astId":83662,"contract":"src/Controller.sol:Controller","label":"bidder","offset":0,"slot":"0","type":"t_address"},{"astId":83664,"contract":"src/Controller.sol:Controller","label":"price","offset":0,"slot":"1","type":"t_uint256"},{"astId":83666,"contract":"src/Controller.sol:Controller","label":"points","offset":0,"slot":"2","type":"t_int256"}]},"t_struct(BidTracker)83691_storage":{"encoding":"inplace","label":"struct BidTracker","numberOfBytes":"256","members":[{"astId":83682,"contract":"src/Controller.sol:Controller","label":"info","offset":0,"slot":"0","type":"t_struct(AuctionInfo)83679_storage"},{"astId":83684,"contract":"src/Controller.sol:Controller","label":"currentPoints","offset":0,"slot":"5","type":"t_int256"},{"astId":83686,"contract":"src/Controller.sol:Controller","label":"soldPoints","offset":0,"slot":"6","type":"t_int256"},{"astId":83690,"contract":"src/Controller.sol:Controller","label":"heap","offset":0,"slot":"7","type":"t_array(t_struct(Bid)83667_storage)dyn_storage"}]},"t_struct(Redeemable)83364_storage":{"encoding":"inplace","label":"struct Redeemable","numberOfBytes":"64","members":[{"astId":83361,"contract":"src/Controller.sol:Controller","label":"token","offset":0,"slot":"0","type":"t_address"},{"astId":83363,"contract":"src/Controller.sol:Controller","label":"totalValue","offset":0,"slot":"1","type":"t_uint256"}]},"t_uint256":{"encoding":"inplace","label":"uint256","numberOfBytes":"32"}}},"id":72}