{"abi":[{"type":"function","name":"addPointType","inputs":[{"name":"pt","type":"uint8","internalType":"enum PointType"}],"outputs":[],"stateMutability":"nonpayable"},{"type":"function","name":"addRedeemable","inputs":[{"name":"pt","type":"uint8","internalType":"enum PointType"},{"name":"token","type":"address","internalType":"address"}],"outputs":[],"stateMutability":"nonpayable"},{"type":"function","name":"bidTrackers","inputs":[{"name":"","type":"uint8","internalType":"enum PointType"}],"outputs":[{"name":"info","type":"tuple","internalType":"struct AuctionInfo","components":[{"name":"startTime","type":"uint256","internalType":"uint256"},{"name":"duration","type":"uint256","internalType":"uint256"},{"name":"targetPoints","type":"int256","internalType":"int256"},{"name":"pointsToSell","type":"int256","internalType":"int256"},{"name":"startingPrice","type":"uint256","internalType":"uint256"},{"name":"state","type":"uint8","internalType":"enum AuctionState"}]},{"name":"currentPoints","type":"int256","internalType":"int256"},{"name":"soldPoints","type":"int256","internalType":"int256"}],"stateMutability":"view"},{"type":"function","name":"cancelAuction","inputs":[{"name":"pointType","type":"uint8[]","internalType":"enum PointType[]"}],"outputs":[],"stateMutability":"nonpayable"},{"type":"function","name":"claim","inputs":[],"outputs":[],"stateMutability":"nonpayable"},{"type":"function","name":"claimOpened","inputs":[],"outputs":[{"name":"","type":"uint256","internalType":"uint256"}],"stateMutability":"view"},{"type":"function","name":"claimTo","inputs":[{"name":"to","type":"address","internalType":"address"}],"outputs":[],"stateMutability":"nonpayable"},{"type":"function","name":"createAuction","inputs":[{"name":"_pointType","type":"uint8[]","internalType":"enum PointType[]"},{"name":"_auctionInfo","type":"tuple[]","internalType":"struct AuctionInfo[]","components":[{"name":"startTime","type":"uint256","internalType":"uint256"},{"name":"duration","type":"uint256","internalType":"uint256"},{"name":"targetPoints","type":"int256","internalType":"int256"},{"name":"pointsToSell","type":"int256","internalType":"int256"},{"name":"startingPrice","type":"uint256","internalType":"uint256"},{"name":"state","type":"uint8","internalType":"enum AuctionState"}]}],"outputs":[],"stateMutability":"nonpayable"},{"type":"function","name":"deposit","inputs":[{"name":"amountInEzEth","type":"uint256","internalType":"uint256"}],"outputs":[],"stateMutability":"nonpayable"},{"type":"function","name":"endAuction","inputs":[{"name":"pointType","type":"uint8","internalType":"enum PointType"}],"outputs":[],"stateMutability":"nonpayable"},{"type":"function","name":"eth","inputs":[],"outputs":[{"name":"","type":"address","internalType":"contract IERC20"}],"stateMutability":"view"},{"type":"function","name":"getAuctionInfo","inputs":[{"name":"pt","type":"uint8","internalType":"enum PointType"}],"outputs":[{"name":"startTime","type":"uint256","internalType":"uint256"},{"name":"duration","type":"uint256","internalType":"uint256"},{"name":"targetPoints","type":"int256","internalType":"int256"},{"name":"startingPrice","type":"uint256","internalType":"uint256"},{"name":"state","type":"uint8","internalType":"enum AuctionState"}],"stateMutability":"view"},{"type":"function","name":"getCurrentPoints","inputs":[{"name":"pt","type":"uint8","internalType":"enum PointType"}],"outputs":[{"name":"","type":"int256","internalType":"int256"}],"stateMutability":"view"},{"type":"function","name":"getLpToken","inputs":[],"outputs":[{"name":"","type":"address","internalType":"address"}],"stateMutability":"view"},{"type":"function","name":"getMainToken","inputs":[],"outputs":[{"name":"","type":"address","internalType":"address"}],"stateMutability":"view"},{"type":"function","name":"getSoldPoints","inputs":[{"name":"pt","type":"uint8","internalType":"enum PointType"}],"outputs":[{"name":"","type":"int256","internalType":"int256"}],"stateMutability":"view"},{"type":"function","name":"getTracker","inputs":[{"name":"pt","type":"uint8","internalType":"enum PointType"}],"outputs":[{"name":"","type":"address","internalType":"address"}],"stateMutability":"view"},{"type":"function","name":"initialize","inputs":[{"name":"ezEth","type":"address","internalType":"address"},{"name":"lockTime","type":"uint256","internalType":"uint256"}],"outputs":[],"stateMutability":"nonpayable"},{"type":"function","name":"lpt","inputs":[],"outputs":[{"name":"","type":"address","internalType":"contract LPToken"}],"stateMutability":"view"},{"type":"function","name":"openClaim","inputs":[],"outputs":[],"stateMutability":"nonpayable"},{"type":"function","name":"owner","inputs":[],"outputs":[{"name":"","type":"address","internalType":"address"}],"stateMutability":"view"},{"type":"function","name":"placeBid","inputs":[{"name":"price","type":"uint256","internalType":"uint256"},{"name":"points","type":"int256","internalType":"int256"},{"name":"pointType","type":"uint8","internalType":"enum PointType"}],"outputs":[],"stateMutability":"nonpayable"},{"type":"function","name":"pointTypes","inputs":[{"name":"","type":"uint256","internalType":"uint256"}],"outputs":[{"name":"","type":"uint8","internalType":"enum PointType"}],"stateMutability":"view"},{"type":"function","name":"redeemables","inputs":[{"name":"","type":"uint8","internalType":"enum PointType"},{"name":"","type":"uint256","internalType":"uint256"}],"outputs":[{"name":"token","type":"address","internalType":"address"},{"name":"totalValue","type":"uint256","internalType":"uint256"}],"stateMutability":"view"},{"type":"function","name":"renounceOwnership","inputs":[],"outputs":[],"stateMutability":"nonpayable"},{"type":"function","name":"toLpToken","inputs":[{"name":"amountInEth","type":"uint256","internalType":"uint256"}],"outputs":[{"name":"","type":"uint256","internalType":"uint256"}],"stateMutability":"view"},{"type":"function","name":"toMainToken","inputs":[{"name":"amountInLpt","type":"uint256","internalType":"uint256"}],"outputs":[{"name":"","type":"uint256","internalType":"uint256"}],"stateMutability":"view"},{"type":"function","name":"totalPoints","inputs":[{"name":"","type":"uint8","internalType":"enum PointType"}],"outputs":[{"name":"","type":"uint256","internalType":"uint256"}],"stateMutability":"view"},{"type":"function","name":"trackedBalance","inputs":[],"outputs":[{"name":"","type":"uint256","internalType":"uint256"}],"stateMutability":"view"},{"type":"function","name":"transferOwnership","inputs":[{"name":"newOwner","type":"address","internalType":"address"}],"outputs":[],"stateMutability":"nonpayable"},{"type":"function","name":"updatePoints","inputs":[{"name":"pointType","type":"uint8[]","internalType":"enum PointType[]"},{"name":"_currentPoints","type":"int256[]","internalType":"int256[]"}],"outputs":[],"stateMutability":"nonpayable"},{"type":"function","name":"version","inputs":[],"outputs":[{"name":"","type":"uint256","internalType":"uint256"}],"stateMutability":"pure"},{"type":"function","name":"withdraw","inputs":[{"name":"amountInLPToken","type":"uint256","internalType":"uint256"}],"outputs":[],"stateMutability":"nonpayable"},{"type":"event","name":"Charge","inputs":[{"name":"from","type":"address","indexed":false,"internalType":"address"},{"name":"pt","type":"uint8","indexed":false,"internalType":"enum PointType"},{"name":"price","type":"uint256","indexed":false,"internalType":"uint256"},{"name":"points","type":"uint256","indexed":false,"internalType":"uint256"}],"anonymous":false},{"type":"event","name":"Deal","inputs":[{"name":"bidder","type":"address","indexed":false,"internalType":"address"},{"name":"pt","type":"uint8","indexed":false,"internalType":"enum PointType"},{"name":"price","type":"uint256","indexed":false,"internalType":"uint256"},{"name":"amount","type":"uint256","indexed":false,"internalType":"uint256"}],"anonymous":false},{"type":"event","name":"Deposit","inputs":[{"name":"from","type":"address","indexed":false,"internalType":"address"},{"name":"lpt","type":"uint256","indexed":false,"internalType":"uint256"},{"name":"ez","type":"uint256","indexed":false,"internalType":"uint256"}],"anonymous":false},{"type":"event","name":"Dividend","inputs":[{"name":"amount","type":"uint256","indexed":false,"internalType":"uint256"},{"name":"current","type":"uint256","indexed":false,"internalType":"uint256"}],"anonymous":false},{"type":"event","name":"Initialized","inputs":[{"name":"version","type":"uint64","indexed":false,"internalType":"uint64"}],"anonymous":false},{"type":"event","name":"OwnershipTransferred","inputs":[{"name":"previousOwner","type":"address","indexed":true,"internalType":"address"},{"name":"newOwner","type":"address","indexed":true,"internalType":"address"}],"anonymous":false},{"type":"event","name":"Refund","inputs":[{"name":"to","type":"address","indexed":false,"internalType":"address"},{"name":"pt","type":"uint8","indexed":false,"internalType":"enum PointType"},{"name":"price","type":"uint256","indexed":false,"internalType":"uint256"},{"name":"points","type":"uint256","indexed":false,"internalType":"uint256"}],"anonymous":false},{"type":"event","name":"Withdraw","inputs":[{"name":"to","type":"address","indexed":false,"internalType":"address"},{"name":"lpt","type":"uint256","indexed":false,"internalType":"uint256"},{"name":"ez","type":"uint256","indexed":false,"internalType":"uint256"}],"anonymous":false},{"type":"error","name":"InvalidInitialization","inputs":[]},{"type":"error","name":"NotInitializing","inputs":[]},{"type":"error","name":"OwnableInvalidOwner","inputs":[{"name":"owner","type":"address","internalType":"address"}]},{"type":"error","name":"OwnableUnauthorizedAccount","inputs":[{"name":"account","type":"address","internalType":"address"}]}],"bytecode":{"object":"0x6080604052348015600f57600080fd5b506156088061001f6000396000f3fe608060405234801561001057600080fd5b50600436106101fb5760003560e01c8063840146521161011a578063be95f704116100ad578063d2e2f3bb1161007c578063d2e2f3bb14610441578063eb204be214610454578063f2fde38b14610467578063fd8569cd1461047a578063fde65e651461049c57600080fd5b8063be95f704146103f5578063c58fc6fe14610408578063cd6dc6871461041b578063ce5fc8d01461042e57600080fd5b80639535ca69116100e95780639535ca69146103b3578063a0dc1d1c146103bc578063a262f5f8146103cf578063b6b55f25146103e257600080fd5b8063840146521461035457806389497d14146103785780638c7c9e0c146103985780638da5cb5b146103ab57600080fd5b806354fd4d5011610192578063715018a611610161578063715018a61461031557806375765c2c1461031d5780637de26127146103305780638214f5a41461034357600080fd5b806354fd4d50146102c857806357582250146102cf5780636c8abd41146102e25780636ce7c1711461030257600080fd5b80632e1a7d4d116101ce5780632e1a7d4d146102755780633cbd9f2d146102885780634de046d51461029b5780634e71d92d146102c057600080fd5b806310ff2afd1461020057806323b2573e14610226578063293cdbf11461023b5780632b6ab65314610243575b600080fd5b61021361020e3660046130bd565b6104a5565b6040519081526020015b60405180910390f35b6102396102343660046131e6565b6104e6565b005b6102396104fc565b6102566102513660046132a1565b610510565b604080516001600160a01b03909316835260208301919091520161021d565b6102396102833660046132cd565b610556565b6102136102963660046130bd565b610562565b6006546001600160a01b03165b6040516001600160a01b03909116815260200161021d565b6102396105a3565b6001610213565b6102a86102dd3660046130bd565b6105ac565b6102136102f03660046130bd565b60026020526000908152604090205481565b6102396103103660046132e6565b6105f5565b610239610606565b61023961032b366004613323565b610618565b61021361033e3660046132cd565b61062a565b6007546001600160a01b03166102a8565b6103676103623660046130bd565b61073b565b60405161021d959493929190613466565b61038b6103863660046132cd565b61087f565b60405161021d919061349c565b6006546102a8906001600160a01b031681565b6102a86108b3565b61021360055481565b6102136103ca3660046132cd565b6108e1565b6102396103dd3660046134cb565b610979565b6102396103f03660046132cd565b610982565b6102396104033660046134e6565b61098b565b6102396104163660046130bd565b61099d565b61023961042936600461351b565b6109b7565b6007546102a8906001600160a01b031681565b61023961044f3660046130bd565b610b1e565b610239610462366004613537565b610b2f565b6102396104753660046134cb565b610c1f565b61048d6104883660046130bd565b610c5a565b60405161021d93929190613570565b61021360085481565b60008060008360018111156104bc576104bc613432565b60018111156104cd576104cd613432565b8152602001908152602001600020600701549050919050565b6104ee610cf8565b6104f88282610d2a565b5050565b610504610cf8565b61050e6001600555565b565b6001602052816000526040600020818154811061052c57600080fd5b6000918252602090912060029091020180546001909101546001600160a01b039091169250905082565b61055f81610ee0565b50565b600080600083600181111561057957610579613432565b600181111561058a5761058a613432565b8152602001908152602001600020600601549050919050565b61050e33611197565b6000600a60008360018111156105c4576105c4613432565b60018111156105d5576105d5613432565b81526020810191909152604001600020546001600160a01b031692915050565b6105fd610cf8565b61055f8161141d565b61060e610cf8565b61050e600061154b565b610620610cf8565b6104f882826115bc565b600754604080516318160ddd60e01b815290516000926001600160a01b0316916318160ddd9160048083019260209291908290030181865afa158015610674573d6000803e3d6000fd5b505050506040513d601f19601f8201168201806040525081019061069891906135c9565b6000036106a757506000919050565b600760009054906101000a90046001600160a01b03166001600160a01b03166318160ddd6040518163ffffffff1660e01b8152600401602060405180830381865afa1580156106fa573d6000803e3d6000fd5b505050506040513d601f19601f8201168201806040525081019061071e91906135c9565b60085461072b90846135f8565b610735919061360f565b92915050565b600080600080600080600087600181111561075857610758613432565b600181111561076957610769613432565b8152602081019190915260400160009081205495508087600181111561079157610791613432565b60018111156107a2576107a2613432565b81526020019081526020016000206000016001015493506000808760018111156107ce576107ce613432565b60018111156107df576107df613432565b815260200190815260200160002060000160020154925060008087600181111561080b5761080b613432565b600181111561081c5761081c613432565b815260200190815260200160002060000160040154915060008087600181111561084857610848613432565b600181111561085957610859613432565b815260208101919091526040016000206005015494969395509193909260ff9091169150565b6004818154811061088f57600080fd5b9060005260206000209060209182820401919006915054906101000a900460ff1681565b7f9016d09d72d40fdae2fd8ceac6b6234c7706214fd39c1cd1e609a0528c199300546001600160a01b031690565b60006008546000036108f557506000919050565b600854600760009054906101000a90046001600160a01b03166001600160a01b03166318160ddd6040518163ffffffff1660e01b8152600401602060405180830381865afa15801561094b573d6000803e3d6000fd5b505050506040513d601f19601f8201168201806040525081019061096f91906135c9565b61072b90846135f8565b61055f81611197565b61055f8161189f565b610993610cf8565b6104f88282611ae4565b6109a5610cf8565b61055f816109b283611c18565b611cc4565b7ff0c57e16840df040f15088dc2f81fe391c3923bec73e23a9662efc9c229c6a008054600160401b810460ff16159067ffffffffffffffff166000811580156109fd5750825b905060008267ffffffffffffffff166001148015610a1a5750303b155b905081158015610a28575080155b15610a465760405163f92ee8a960e01b815260040160405180910390fd5b845467ffffffffffffffff191660011785558315610a7057845460ff60401b1916600160401b1785555b610a7933611e0a565b610a838787611e1b565b610aa96000604051806040016040528060038152602001620454c560ec1b815250611ea7565b610acf6001604051806040016040528060038152602001620455a560ec1b815250611ea7565b8315610b1557845460ff60401b19168555604051600181527fc7f505b2f371ae2175ee4913f4499e1f2633a7b5936321eed1cdaeb6115181d29060200160405180910390a15b50505050505050565b610b2781611f84565b61055f61248f565b610b376108b3565b6001600160a01b03163303610b8c5760405162461bcd60e51b815260206004820152601660248201527513dddb995c881b9bdd08185b1b1bddc81d1bc8189a5960521b60448201526064015b60405180910390fd5b60008213610b9957600080fd5b6000670de0b6b3a7640000610bae84866135f8565b610bb8919061360f565b905060008111610bc757600080fd5b610bd133826124a1565b7f4408f1316fc22349ba680df59da58c7bbd2d9ea6c04de585c44b786ce0a16cb133838686604051610c069493929190613631565b60405180910390a1610c1984848461253a565b50505050565b610c27610cf8565b6001600160a01b038116610c5157604051631e4fbdf760e01b815260006004820152602401610b83565b61055f8161154b565b6000602052806000526040600020600091509050806000016040518060c001604052908160008201548152602001600182015481526020016002820154815260200160038201548152602001600482015481526020016005820160009054906101000a900460ff166001811115610cd357610cd3613432565b6001811115610ce457610ce4613432565b905250600682015460079092015490919083565b33610d016108b3565b6001600160a01b03161461050e5760405163118cdaa760e01b8152336004820152602401610b83565b60005b82518160ff161015610edb576000828260ff1681518110610d5057610d50613665565b602002602001015113610d9f5760405162461bcd60e51b8152602060048201526017602482015276506f696e7473206d75737420626520706f73697469766560481b6044820152606401610b83565b600080848360ff1681518110610db757610db7613665565b60200260200101516001811115610dd057610dd0613432565b6001811115610de157610de1613432565b815260200190815260200160002060060154828260ff1681518110610e0857610e08613665565b602002602001015113610e565760405162461bcd60e51b8152602060048201526016602482015275506f696e7473206d7573742062652067726f77696e6760501b6044820152606401610b83565b818160ff1681518110610e6b57610e6b613665565b6020026020010151600080858460ff1681518110610e8b57610e8b613665565b60200260200101516001811115610ea457610ea4613432565b6001811115610eb557610eb5613432565b815260208101919091526040016000206006015580610ed38161367b565b915050610d2d565b505050565b600754604080516318160ddd60e01b815290516000926001600160a01b0316916318160ddd9160048083019260209291908290030181865afa158015610f2a573d6000803e3d6000fd5b505050506040513d601f19601f82011682018060405250810190610f4e91906135c9565b11610f5857600080fd5b600754604080516318160ddd60e01b815290516000926001600160a01b0316916318160ddd9160048083019260209291908290030181865afa158015610fa2573d6000803e3d6000fd5b505050506040513d601f19601f82011682018060405250810190610fc691906135c9565b600854610fd390846135f8565b610fdd919061360f565b600754604051632770a7eb60e21b8152336004820152602481018590529192506001600160a01b031690639dc29fac90604401600060405180830381600087803b15801561102a57600080fd5b505af115801561103e573d6000803e3d6000fd5b505060065460405163a9059cbb60e01b8152336004820152602481018590526001600160a01b03909116925063a9059cbb91506044016020604051808303816000875af1158015611093573d6000803e3d6000fd5b505050506040513d601f19601f820116820180604052508101906110b7919061369a565b5080600860008282546110ca91906136bc565b909155505060408051338152602081018490529081018290527ff279e6a1f5e320cca91135676d9cb6e44ca8a08c0b88342bcdb1144f6511b5689060600160405180910390a1600760009054906101000a90046001600160a01b03166001600160a01b03166318160ddd6040518163ffffffff1660e01b8152600401602060405180830381865afa158015611163573d6000803e3d6000fd5b505050506040513d601f19601f8201168201806040525081019061118791906135c9565b6000036104f85760006008555050565b3360005b600454811015610edb5760006111e383600484815481106111be576111be613665565b90600052602060002090602091828204019190069054906101000a900460ff1661278c565b905060008111801561125c57506000600260006004858154811061120957611209613665565b90600052602060002090602091828204019190069054906101000a900460ff16600181111561123a5761123a613432565b600181111561124b5761124b613432565b815260200190815260200160002054115b156114145761129e836004848154811061127857611278613665565b90600052602060002090602091828204019190069054906101000a900460ff168361279f565b60005b60016000600485815481106112b8576112b8613665565b90600052602060002090602091828204019190069054906101000a900460ff1660018111156112e9576112e9613432565b60018111156112fa576112fa613432565b81526020810191909152604001600020548110156114125761140a85600160006004878154811061132d5761132d613665565b90600052602060002090602091828204019190069054906101000a900460ff16600181111561135e5761135e613432565b600181111561136f5761136f613432565b8152602001908152602001600020838154811061138e5761138e613665565b90600052602060002090600202018460026000600489815481106113b4576113b4613665565b90600052602060002090602091828204019190069054906101000a900460ff1660018111156113e5576113e5613432565b60018111156113f6576113f6613432565b8152602001908152602001600020546127aa565b6001016112a1565b505b5060010161119b565b60005b81518160ff1610156104f8576000806000848460ff168151811061144657611446613665565b6020026020010151600181111561145f5761145f613432565b600181111561147057611470613432565b8152602081019190915260400160002090506001600582015460ff16600181111561149d5761149d613432565b146114e05760405162461bcd60e51b8152602060048201526013602482015272105d58dd1a5bdb881b9bdd0818dc99585d1959606a1b6044820152606401610b83565b805442106115305760405162461bcd60e51b815260206004820152601760248201527f41756374696f6e20616c726561647920737461727465640000000000000000006044820152606401610b83565b600501805460ff191690556115448161367b565b9050611420565b7f9016d09d72d40fdae2fd8ceac6b6234c7706214fd39c1cd1e609a0528c19930080546001600160a01b031981166001600160a01b03848116918217845560405192169182907f8be0079c531659141344cd1fd0a4f28419497f9722a3daafe3b4186f6b6457e090600090a3505050565b60005b82518160ff161015610edb576000806000858460ff16815181106115e5576115e5613665565b602002602001015160018111156115fe576115fe613432565b600181111561160f5761160f613432565b8152602081019190915260400160009081209150600582015460ff16600181111561163c5761163c613432565b146116895760405162461bcd60e51b815260206004820152601760248201527f41756374696f6e20616c726561647920637265617465640000000000000000006044820152606401610b83565b828260ff168151811061169e5761169e613665565b60200260200101516000015142106116ed5760405162461bcd60e51b8152602060048201526012602482015271496e76616c69642073746172742074696d6560701b6044820152606401610b83565b62015180838360ff168151811061170657611706613665565b602002602001015160200151106117535760405162461bcd60e51b81526020600482015260116024820152704475726174696f6e20746f6f206c6f6e6760781b6044820152606401610b83565b6201518042848460ff168151811061176d5761176d613665565b60200260200101516000015161178391906136bc565b106117d05760405162461bcd60e51b815260206004820152601760248201527f53746172742074696d6520746f6f2066617220617761790000000000000000006044820152606401610b83565b828260ff16815181106117e5576117e5613665565b602002602001015181600001600082015181600001556020820151816001015560408201518160020155606082015181600301556080820151816004015560a08201518160050160006101000a81548160ff0219169083600181111561184d5761184d613432565b0217905550611863915050600882016000613044565b60008160070154826006015461187991906136cf565b600383015550600501805460ff19166001179055806118978161367b565b9150506115bf565b6006546040516323b872dd60e01b8152336004820152306024820152604481018390526001600160a01b03909116906323b872dd906064016020604051808303816000875af11580156118f6573d6000803e3d6000fd5b505050506040513d601f19601f8201168201806040525081019061191a919061369a565b50600754604080516318160ddd60e01b8152905183926001600160a01b0316916318160ddd9160048083019260209291908290030181865afa158015611964573d6000803e3d6000fd5b505050506040513d601f19601f8201168201806040525081019061198891906135c9565b6000036119955760006008555b60085415611a2457600854600754604080516318160ddd60e01b8152905185926001600160a01b0316916318160ddd9160048083019260209291908290030181865afa1580156119e9573d6000803e3d6000fd5b505050506040513d601f19601f82011682018060405250810190611a0d91906135c9565b611a1791906135f8565b611a21919061360f565b90505b6007546040516340c10f1960e01b8152336004820152602481018390526001600160a01b03909116906340c10f1990604401600060405180830381600087803b158015611a7057600080fd5b505af1158015611a84573d6000803e3d6000fd5b505050508160086000828254611a9a91906136f6565b909155505060408051338152602081018390529081018390527f90890809c654f11d6e72a28fa60149770a0d11ec6c92319d6ceb2bb0a4ea1a159060600160405180910390a15050565b60055415611af157600080fd5b6001600160a01b03811660009081526003602052604090205415611b1457600080fd5b60016000836001811115611b2a57611b2a613432565b6001811115611b3b57611b3b613432565b81526020808201929092526040908101600020815180830183526001600160a01b03851680825292516370a0823160e01b815230600482015291939092908301916370a0823190602401602060405180830381865afa158015611ba2573d6000803e3d6000fd5b505050506040513d601f19601f82011682018060405250810190611bc691906135c9565b905281546001808201845560009384526020808520845160029094020180546001600160a01b0319166001600160a01b0394851617815593810151938201939093559316825260039052604090205550565b6000600a6000836001811115611c3057611c30613432565b6001811115611c4157611c41613432565b815260200190815260200160002060009054906101000a90046001600160a01b03166001600160a01b03166318160ddd6040518163ffffffff1660e01b8152600401602060405180830381865afa158015611ca0573d6000803e3d6000fd5b505050506040513d601f19601f8201168201806040525081019061073591906135c9565b60055415611cd157600080fd5b60026000836001811115611ce757611ce7613432565b6001811115611cf857611cf8613432565b815260200190815260200160002054600014611d565760405162461bcd60e51b815260206004820152601760248201527f506f696e745479706520616c72656164792061646465640000000000000000006044820152606401610b83565b60008111611d6357600080fd5b8060026000846001811115611d7a57611d7a613432565b6001811115611d8b57611d8b613432565b81526020808201929092526040016000908120929092556004805460018181018355919093529082047f8a35acfbc15ff81a39ae7d344fd709f28e8600b4aa8c65c6b64bfe7fe36bd19b0180548593919260ff601f9093166101000a9283021990911691908490811115611e0157611e01613432565b02179055505050565b611e12612856565b61055f8161289f565b600680546001600160a01b0319166001600160a01b0384161790556040518190611e4490613065565b60408082526003908201526213141560ea1b60608201526020810191909152608001604051809103906000f080158015611e82573d6000803e3d6000fd5b50600780546001600160a01b0319166001600160a01b03929092169190911790555050565b6000600a81846001811115611ebe57611ebe613432565b6001811115611ecf57611ecf613432565b81526020810191909152604001600020546001600160a01b031614611ef357600080fd5b80604051611f0090613072565b611f0a9190613709565b604051809103906000f080158015611f26573d6000803e3d6000fd5b50600a6000846001811115611f3d57611f3d613432565b6001811115611f4e57611f4e613432565b815260200190815260200160002060006101000a8154816001600160a01b0302191690836001600160a01b031602179055505050565b6000806000836001811115611f9b57611f9b613432565b6001811115611fac57611fac613432565b8152602081019190915260400160002090506001600582015460ff166001811115611fd957611fd9613432565b146120145760405162461bcd60e51b815260206004820152600b60248201526a57726f6e6720737461746560a81b6044820152606401610b83565b600181015481544291612026916136f6565b106120605760405162461bcd60e51b815260206004820152600a60248201526957726f6e672074696d6560b01b6044820152606401610b83565b6008810154600090156124805760088201805460009190612083906001906136bc565b8154811061209357612093613665565b90600052602060002090600302016001015490505b826006015483600701541280156120c25750600883015482105b1561247e5782600601548360080183815481106120e1576120e1613665565b90600052602060002090600302016002015484600701546121029190613758565b131561225b5760008360070154846006015461211e91906136cf565b9050808460070160008282546121349190613758565b9250508190555061217484600801848154811061215357612153613665565b60009182526020909120600390910201546001600160a01b031686836128a7565b7f4d7a655bb999027f48998a76c7e47c8b957f58cdc10d43808021578d8c94fe8a8460080184815481106121aa576121aa613665565b60009182526020909120600390910201546040516121d7916001600160a01b031690889086908690613631565b60405180910390a16122558460080184815481106121f7576121f7613665565b906000526020600020906003020160000160009054906101000a90046001600160a01b031686848488600801888154811061223457612234613665565b90600052602060002090600302016002015461225091906136cf565b6128bf565b5061246c565b82600801828154811061227057612270613665565b9060005260206000209060030201600201548360070160008282546122959190613758565b925050819055506123068360080183815481106122b4576122b4613665565b906000526020600020906003020160000160009054906101000a90046001600160a01b0316858560080185815481106122ef576122ef613665565b9060005260206000209060030201600201546128a7565b7f4d7a655bb999027f48998a76c7e47c8b957f58cdc10d43808021578d8c94fe8a83600801838154811061233c5761233c613665565b906000526020600020906003020160000160009054906101000a90046001600160a01b0316858386600801868154811061237857612378613665565b90600052602060002090600302016002015460405161239a9493929190613631565b60405180910390a18260080182815481106123b7576123b7613665565b90600052602060002090600302016001015481101561246c5761246c8360080183815481106123e8576123e8613665565b906000526020600020906003020160000160009054906101000a90046001600160a01b0316858386600801868154811061242457612424613665565b90600052602060002090600302016001015461244091906136bc565b86600801868154811061245557612455613665565b9060005260206000209060030201600201546128bf565b8161247681613780565b9250506120a8565b505b50600501805460ff1916905550565b61249a60095461293a565b6000600955565b6006546040516323b872dd60e01b81526001600160a01b03848116600483015230602483015260448201849052909116906323b872dd906064016020604051808303816000875af11580156124fa573d6000803e3d6000fd5b505050506040513d601f19601f8201168201806040525081019061251e919061369a565b50806009600082825461253191906136f6565b90915550505050565b600160008083600181111561255157612551613432565b600181111561256257612562613432565b815260208101919091526040016000206005015460ff16600181111561258a5761258a613432565b146125a75760405162461bcd60e51b8152600401610b8390613799565b6000808260018111156125bc576125bc613432565b60018111156125cd576125cd613432565b81526020810191909152604001600020544210156125fd5760405162461bcd60e51b8152600401610b8390613799565b60008082600181111561261257612612613432565b600181111561262357612623613432565b81526020019081526020016000206000016001015460008083600181111561264d5761264d613432565b600181111561265e5761265e613432565b815260208101919091526040016000205461267991906136f6565b42106126975760405162461bcd60e51b8152600401610b8390613799565b600082136126e15760405162461bcd60e51b8152602060048201526017602482015276506f696e7473206d75737420626520706f73697469766560481b6044820152606401610b83565b6000808260018111156126f6576126f6613432565b600181111561270757612707613432565b81526020019081526020016000206000016004015483101561275f5760405162461bcd60e51b815260206004820152601160248201527042696420707269636520746f6f206c6f7760781b6044820152606401610b83565b610edb816040518060600160405280336001600160a01b0316815260200186815260200185815250612a11565b60006127988383612e0c565b9392505050565b610edb838383612eb2565b6000600554116127b957600080fd5b6000818460010154846127cc91906135f8565b6127d6919061360f565b845460405163a9059cbb60e01b81526001600160a01b0388811660048301526024820184905292935091169063a9059cbb906044016020604051808303816000875af115801561282a573d6000803e3d6000fd5b505050506040513d601f19601f8201168201806040525081019061284e919061369a565b505050505050565b7ff0c57e16840df040f15088dc2f81fe391c3923bec73e23a9662efc9c229c6a0054600160401b900460ff1661050e57604051631afcd79f60e31b815260040160405180910390fd5b610c27612856565b600081136128b457600080fd5b610edb838383612f4b565b60006128cb82846135f8565b1115610c19576128f784670de0b6b3a76400006128e884866135f8565b6128f2919061360f565b612fba565b7fc8cafbc4d192548adbb12993818fa3905ae3707d3e9ab7c64c3bb689a5162a108484848460405161292c9493929190613631565b60405180910390a150505050565b600754604080516318160ddd60e01b815290516000926001600160a01b0316916318160ddd9160048083019260209291908290030181865afa158015612984573d6000803e3d6000fd5b505050506040513d601f19601f820116820180604052508101906129a891906135c9565b1180156129b55750600081115b1561055f576008546040805183815260208101929092527f7f1ec1a198bdbf142cb260ce1b9eaa12acca0ee96b6a116eba612f6a65466ccf910160405180910390a18060086000828254612a0991906136f6565b909155505050565b6000806000846001811115612a2857612a28613432565b6001811115612a3957612a39613432565b815260200190815260200160002090506000806000856001811115612a6057612a60613432565b6001811115612a7157612a71613432565b815260208082019290925260409081016000908120600390810154600887018054600180820183559185529386902089519490930290920180546001600160a01b0319166001600160a01b039094169390931783559387015190820155908501516002909101819055909150612ae790826136cf565b6008830154909150600090612afe906001906136bc565b90505b8015612c395760088301612b166001836136bc565b81548110612b2657612b26613665565b906000526020600020906003020160010154836008018281548110612b4d57612b4d613665565b9060005260206000209060030201600101541115612c2757612c27836008018281548110612b7d57612b7d613665565b906000526020600020906003020184600801600184612b9c91906136bc565b81548110612bac57612bac613665565b90600052602060002090600302016040805160608101825282546001600160a01b0380821680845260018087018054602087018190526002808a018054989099018890528a546001600160a01b0319978816961695909517909855928801805490965587018054909255865490921690911790945590559055565b80612c31816137c5565b915050612b01565b5060088201545b600060088401612c516001846136bc565b81548110612c6157612c61613665565b90600052602060002090600302016002015483612c7e9190613758565b13612cd35760088301612c926001836136bc565b81548110612ca257612ca2613665565b90600052602060002090600302016002015482612cbf9190613758565b915080612ccb816137c5565b915050612c40565b6008830154811015612dca57600883018054612d829190612cf6906001906136bc565b81548110612d0657612d06613665565b60009182526020909120600390910201546008850180546001600160a01b0390921691889190612d38906001906136bc565b81548110612d4857612d48613665565b9060005260206000209060030201600101548660080160018860080180549050612d7291906136bc565b8154811061245557612455613665565b82600801805480612d9557612d956137dc565b60008281526020812060036000199093019283020180546001600160a01b031916815560018101829055600201559055612cd3565b81600080876001811115612de057612de0613432565b6001811115612df157612df1613432565b81526020810191909152604001600020600301555050505050565b6000600a6000836001811115612e2457612e24613432565b6001811115612e3557612e35613432565b8152602081019190915260409081016000205490516370a0823160e01b81526001600160a01b038581166004830152909116906370a0823190602401602060405180830381865afa158015612e8e573d6000803e3d6000fd5b505050506040513d601f19601f8201168201806040525081019061279891906135c9565b600a6000836001811115612ec857612ec8613432565b6001811115612ed957612ed9613432565b815260208101919091526040908101600020549051632770a7eb60e21b81526001600160a01b0385811660048301526024820184905290911690639dc29fac906044015b600060405180830381600087803b158015612f3757600080fd5b505af1158015610b15573d6000803e3d6000fd5b600a6000836001811115612f6157612f61613432565b6001811115612f7257612f72613432565b8152602081019190915260409081016000205490516340c10f1960e01b81526001600160a01b03858116600483015260248201849052909116906340c10f1990604401612f1d565b60065460405163a9059cbb60e01b81526001600160a01b038481166004830152602482018490529091169063a9059cbb906044016020604051808303816000875af115801561300d573d6000803e3d6000fd5b505050506040513d601f19601f82011682018060405250810190613031919061369a565b50806009600082825461253191906136bc565b508054600082556003029060005260206000209081019061055f919061307f565b61117f806137f383390190565b610c618061497283390190565b5b808211156130ac5780546001600160a01b03191681556000600182018190556002820155600301613080565b5090565b6002811061055f57600080fd5b6000602082840312156130cf57600080fd5b8135612798816130b0565b634e487b7160e01b600052604160045260246000fd5b60405160c0810167ffffffffffffffff81118282101715613113576131136130da565b60405290565b604051601f8201601f1916810167ffffffffffffffff81118282101715613142576131426130da565b604052919050565b600067ffffffffffffffff821115613164576131646130da565b5060051b60200190565b600082601f83011261317f57600080fd5b8135602061319461318f8361314a565b613119565b8083825260208201915060208460051b8701019350868411156131b657600080fd5b602086015b848110156131db5780356131ce816130b0565b83529183019183016131bb565b509695505050505050565b600080604083850312156131f957600080fd5b823567ffffffffffffffff8082111561321157600080fd5b61321d8683870161316e565b935060209150818501358181111561323457600080fd5b85019050601f8101861361324757600080fd5b803561325561318f8261314a565b81815260059190911b8201830190838101908883111561327457600080fd5b928401925b8284101561329257833582529284019290840190613279565b80955050505050509250929050565b600080604083850312156132b457600080fd5b82356132bf816130b0565b946020939093013593505050565b6000602082840312156132df57600080fd5b5035919050565b6000602082840312156132f857600080fd5b813567ffffffffffffffff81111561330f57600080fd5b61331b8482850161316e565b949350505050565b600080604080848603121561333757600080fd5b833567ffffffffffffffff8082111561334f57600080fd5b61335b8783880161316e565b945060209150818601358181111561337257600080fd5b86019050601f8101871361338557600080fd5b803561339361318f8261314a565b81815260c0918202830184019184820191908a8411156133b257600080fd5b938501935b838510156134215780858c0312156133cf5760008081fd5b6133d76130f0565b8535815286860135878201528786013588820152606080870135908201526080808701359082015260a08087013561340e816130b0565b90820152835293840193918501916133b7565b508096505050505050509250929050565b634e487b7160e01b600052602160045260246000fd5b6002811061055f57634e487b7160e01b600052602160045260246000fd5b600060a08201905086825285602083015284604083015283606083015261348c83613448565b8260808301529695505050505050565b602081016134a983613448565b91905290565b80356001600160a01b03811681146134c657600080fd5b919050565b6000602082840312156134dd57600080fd5b612798826134af565b600080604083850312156134f957600080fd5b8235613504816130b0565b9150613512602084016134af565b90509250929050565b6000806040838503121561352e57600080fd5b6132bf836134af565b60008060006060848603121561354c57600080fd5b83359250602084013591506040840135613565816130b0565b809150509250925092565b600061010082019050845182526020850151602083015260408501516040830152606085015160608301526080850151608083015260a08501516135b381613448565b60a083015260c082019390935260e00152919050565b6000602082840312156135db57600080fd5b5051919050565b634e487b7160e01b600052601160045260246000fd5b8082028115828204841417610735576107356135e2565b60008261362c57634e487b7160e01b600052601260045260246000fd5b500490565b6001600160a01b03851681526080810161364a85613448565b84602083015283604083015282606083015295945050505050565b634e487b7160e01b600052603260045260246000fd5b600060ff821660ff8103613691576136916135e2565b60010192915050565b6000602082840312156136ac57600080fd5b8151801515811461279857600080fd5b81810381811115610735576107356135e2565b81810360008312801583831316838312821617156136ef576136ef6135e2565b5092915050565b80820180821115610735576107356135e2565b60006020808352835180602085015260005b818110156137375785810183015185820160400152820161371b565b506000604082860101526040601f19601f8301168501019250505092915050565b8082018281126000831280158216821582161715613778576137786135e2565b505092915050565b600060018201613792576137926135e2565b5060010190565b60208082526012908201527141756374696f6e206e6f742061637469766560701b604082015260600190565b6000816137d4576137d46135e2565b506000190190565b634e487b7160e01b600052603160045260246000fdfe608060405234801561001057600080fd5b5060405161117f38038061117f83398101604081905261002f916100f7565b338280600361003e8282610251565b50600461004b8282610251565b5050506001600160a01b03811661007c57604051631e4fbdf760e01b81526000600482015260240160405180910390fd5b6100858161008f565b5060095550610310565b600580546001600160a01b038381166001600160a01b0319831681179093556040519116919082907f8be0079c531659141344cd1fd0a4f28419497f9722a3daafe3b4186f6b6457e090600090a35050565b634e487b7160e01b600052604160045260246000fd5b6000806040838503121561010a57600080fd5b82516001600160401b038082111561012157600080fd5b818501915085601f83011261013557600080fd5b815181811115610147576101476100e1565b604051601f8201601f19908116603f0116810190838211818310171561016f5761016f6100e1565b8160405282815260209350888484870101111561018b57600080fd5b600091505b828210156101ad5784820184015181830185015290830190610190565b6000928101840192909252509401519395939450505050565b600181811c908216806101da57607f821691505b6020821081036101fa57634e487b7160e01b600052602260045260246000fd5b50919050565b601f82111561024c576000816000526020600020601f850160051c810160208610156102295750805b601f850160051c820191505b8181101561024857828155600101610235565b5050505b505050565b81516001600160401b0381111561026a5761026a6100e1565b61027e8161027884546101c6565b84610200565b602080601f8311600181146102b3576000841561029b5750858301515b600019600386901b1c1916600185901b178555610248565b600085815260208120601f198616915b828110156102e2578886015182559484019460019091019084016102c3565b50858210156103005787850151600019600388901b60f8161c191681555b5050505050600190811b01905550565b610e608061031f6000396000f3fe608060405234801561001057600080fd5b50600436106101165760003560e01c806370a08231116100a257806395d89b411161007157806395d89b41146102b45780639dc29fac146102bc578063a9059cbb146102cf578063dd62ed3e146102e2578063f2fde38b1461031b57600080fd5b806370a0823114610214578063715018a61461023d5780638da5cb5b14610245578063904d8fee1461026057600080fd5b8063313ce567116100e9578063313ce5671461018157806340c10f191461019057806346ca48a2146101a5578063543e9954146101c55780636c69b1c9146101d857600080fd5b806306fdde031461011b578063095ea7b31461013957806318160ddd1461015c57806323b872dd1461016e575b600080fd5b61012361032e565b6040516101309190610c4e565b60405180910390f35b61014c610147366004610cb9565b6103c0565b6040519015158152602001610130565b6002545b604051908152602001610130565b61014c61017c366004610ce3565b6103da565b60405160128152602001610130565b6101a361019e366004610cb9565b6103fe565b005b6101606101b3366004610d1f565b60076020526000908152604090205481565b6101606101d3366004610d1f565b610414565b6101ff6101e6366004610d41565b6008602052600090815260409020805460019091015482565b60408051928352602083019190915201610130565b610160610222366004610d1f565b6001600160a01b031660009081526020819052604090205490565b6101a36104e6565b6005546040516001600160a01b039091168152602001610130565b61029461026e366004610d1f565b6006602052600090815260409020546001600160801b0380821691600160801b90041682565b604080516001600160801b03938416815292909116602083015201610130565b6101236104fa565b6101a36102ca366004610cb9565b610509565b61014c6102dd366004610cb9565b61051b565b6101606102f0366004610d5a565b6001600160a01b03918216600090815260016020908152604080832093909416825291909152205490565b6101a3610329366004610d1f565b610529565b60606003805461033d90610d8d565b80601f016020809104026020016040519081016040528092919081815260200182805461036990610d8d565b80156103b65780601f1061038b576101008083540402835291602001916103b6565b820191906000526020600020905b81548152906001019060200180831161039957829003601f168201915b5050505050905090565b6000336103ce81858561056c565b60019150505b92915050565b6000336103e885828561057e565b6103f38585856105fc565b506001949350505050565b61040661065b565b6104108282610688565b5050565b6001600160a01b038116600090815260066020908152604080832060079092529091205481549091906001600160801b03165b8154600160801b90046001600160801b03168110156104df576000600881610478846001600160a01b038916610ddd565b81526020019081526020016000209050610496816000015442101590565b6104a057506104df565b600860006104b7846001600160a01b038916610ddd565b815260200190815260200160002060010154846104d49190610ddd565b935050600101610447565b5050919050565b6104ee61065b565b6104f860006106be565b565b60606004805461033d90610d8d565b61051161065b565b6104108282610710565b6000336103ce8185856105fc565b61053161065b565b6001600160a01b03811661056057604051631e4fbdf760e01b8152600060048201526024015b60405180910390fd5b610569816106be565b50565b6105798383836001610746565b505050565b6001600160a01b0383811660009081526001602090815260408083209386168352929052205460001981146105f657818110156105e757604051637dc7a0d960e11b81526001600160a01b03841660048201526024810182905260448101839052606401610557565b6105f684848484036000610746565b50505050565b6001600160a01b03831661062657604051634b637e8f60e11b815260006004820152602401610557565b6001600160a01b0382166106505760405163ec442f0560e01b815260006004820152602401610557565b61057983838361081b565b6005546001600160a01b031633146104f85760405163118cdaa760e01b8152336004820152602401610557565b6001600160a01b0382166106b25760405163ec442f0560e01b815260006004820152602401610557565b6104106000838361081b565b600580546001600160a01b038381166001600160a01b0319831681179093556040519116919082907f8be0079c531659141344cd1fd0a4f28419497f9722a3daafe3b4186f6b6457e090600090a35050565b6001600160a01b03821661073a57604051634b637e8f60e11b815260006004820152602401610557565b6104108260008361081b565b6001600160a01b0384166107705760405163e602df0560e01b815260006004820152602401610557565b6001600160a01b03831661079a57604051634a1406b160e11b815260006004820152602401610557565b6001600160a01b03808516600090815260016020908152604080832093871683529290522082905580156105f657826001600160a01b0316846001600160a01b03167f8c5be1e5ebec7d5bd14f71427d1e84f3dd0314c0f7b2291e5b200ac8c7c3b9258460405161080d91815260200190565b60405180910390a350505050565b6001600160a01b03831661083e5761083382826108a8565b61057983838361097e565b805b801561085b5760006108528583610aa8565b91506108409050565b61086684848461097e565b6001600160a01b038316156105f6576001600160a01b0383166000908152600760205260408120805484929061089d908490610ddd565b909155505050505050565b6001600160a01b03821660009081526006602052604081206009549091906108d09042610ddd565b6040805180820190915281815260208101859052835491925090600890600090600160801b90046001600160801b03166001600160a01b0388166109149190610ddd565b81526020808201929092526040016000208251815591015160019182015582548390601090610954908490600160801b90046001600160801b0316610df0565b92506101000a8154816001600160801b0302191690836001600160801b0316021790555050505050565b6001600160a01b0383166109a957806002600082825461099e9190610ddd565b90915550610a1b9050565b6001600160a01b038316600090815260208190526040902054818110156109fc5760405163391434e360e21b81526001600160a01b03851660048201526024810182905260448101839052606401610557565b6001600160a01b03841660009081526020819052604090209082900390555b6001600160a01b038216610a3757600280548290039055610a56565b6001600160a01b03821660009081526020819052604090208054820190555b816001600160a01b0316836001600160a01b03167fddf252ad1be2c89b69c2b068fc378daa952ba7f163c4a11628f55a4df523b3ef83604051610a9b91815260200190565b60405180910390a3505050565b6001600160a01b038216600090815260066020526040812080546001600160801b03600160801b8204811691161015610baf5780546000906008908290610b01906001600160801b03166001600160a01b038916610ddd565b81526020019081526020016000209050610b1f816000015442101590565b15610bad5783816001015411610b885781546001908390600090610b4d9084906001600160801b0316610df0565b92506101000a8154816001600160801b0302191690836001600160801b03160217905550806001015484610b819190610e17565b9250610ba6565b83816001016000828254610b9c9190610e17565b9091555060009350505b50506103d4565b505b6001600160a01b038416600090815260076020526040902054831115610c175760405162461bcd60e51b815260206004820152601960248201527f696e73756666696369656e7420667265652062616c616e6365000000000000006044820152606401610557565b6001600160a01b03841660009081526007602052604081208054859290610c3f908490610e17565b90915550600095945050505050565b60006020808352835180602085015260005b81811015610c7c57858101830151858201604001528201610c60565b506000604082860101526040601f19601f8301168501019250505092915050565b80356001600160a01b0381168114610cb457600080fd5b919050565b60008060408385031215610ccc57600080fd5b610cd583610c9d565b946020939093013593505050565b600080600060608486031215610cf857600080fd5b610d0184610c9d565b9250610d0f60208501610c9d565b9150604084013590509250925092565b600060208284031215610d3157600080fd5b610d3a82610c9d565b9392505050565b600060208284031215610d5357600080fd5b5035919050565b60008060408385031215610d6d57600080fd5b610d7683610c9d565b9150610d8460208401610c9d565b90509250929050565b600181811c90821680610da157607f821691505b602082108103610dc157634e487b7160e01b600052602260045260246000fd5b50919050565b634e487b7160e01b600052601160045260246000fd5b808201808211156103d4576103d4610dc7565b6001600160801b03818116838216019080821115610e1057610e10610dc7565b5092915050565b818103818111156103d4576103d4610dc756fea264697066735822122092352b6294d03747917a652f426ca7e7423d83b0410f4d4880ebe2e2b73abbb964736f6c63430008190033608060405234801561001057600080fd5b50604051610c61380380610c6183398101604081905261002f916100f6565b80338180600361003f828261024a565b50600461004c828261024a565b5050506001600160a01b03811661007d57604051631e4fbdf760e01b81526000600482015260240160405180910390fd5b6100868161008e565b505050610309565b600580546001600160a01b038381166001600160a01b0319831681179093556040519116919082907f8be0079c531659141344cd1fd0a4f28419497f9722a3daafe3b4186f6b6457e090600090a35050565b634e487b7160e01b600052604160045260246000fd5b6000602080838503121561010957600080fd5b82516001600160401b038082111561012057600080fd5b818501915085601f83011261013457600080fd5b815181811115610146576101466100e0565b604051601f8201601f19908116603f0116810190838211818310171561016e5761016e6100e0565b81604052828152888684870101111561018657600080fd5b600093505b828410156101a8578484018601518185018701529285019261018b565b600086848301015280965050505050505092915050565b600181811c908216806101d357607f821691505b6020821081036101f357634e487b7160e01b600052602260045260246000fd5b50919050565b601f821115610245576000816000526020600020601f850160051c810160208610156102225750805b601f850160051c820191505b818110156102415782815560010161022e565b5050505b505050565b81516001600160401b03811115610263576102636100e0565b6102778161027184546101bf565b846101f9565b602080601f8311600181146102ac57600084156102945750858301515b600019600386901b1c1916600185901b178555610241565b600085815260208120601f198616915b828110156102db578886015182559484019460019091019084016102bc565b50858210156102f95787850151600019600388901b60f8161c191681555b5050505050600190811b01905550565b610949806103186000396000f3fe608060405234801561001057600080fd5b50600436106100ea5760003560e01c8063715018a61161008c5780639dc29fac116100665780639dc29fac146101cd578063a9059cbb146101e0578063dd62ed3e146101f3578063f2fde38b1461022c57600080fd5b8063715018a6146101a25780638da5cb5b146101aa57806395d89b41146101c557600080fd5b806323b872dd116100c857806323b872dd14610142578063313ce5671461015557806340c10f191461016457806370a082311461017957600080fd5b806306fdde03146100ef578063095ea7b31461010d57806318160ddd14610130575b600080fd5b6100f761023f565b6040516101049190610792565b60405180910390f35b61012061011b3660046107fd565b6102d1565b6040519015158152602001610104565b6002545b604051908152602001610104565b610120610150366004610827565b6102eb565b60405160128152602001610104565b6101776101723660046107fd565b61030f565b005b610134610187366004610863565b6001600160a01b031660009081526020819052604090205490565b610177610325565b6005546040516001600160a01b039091168152602001610104565b6100f7610339565b6101776101db3660046107fd565b610348565b6101206101ee3660046107fd565b61035a565b610134610201366004610885565b6001600160a01b03918216600090815260016020908152604080832093909416825291909152205490565b61017761023a366004610863565b610368565b60606003805461024e906108b8565b80601f016020809104026020016040519081016040528092919081815260200182805461027a906108b8565b80156102c75780601f1061029c576101008083540402835291602001916102c7565b820191906000526020600020905b8154815290600101906020018083116102aa57829003601f168201915b5050505050905090565b6000336102df8185856103ab565b60019150505b92915050565b6000336102f98582856103bd565b61030485858561043b565b506001949350505050565b61031761049a565b61032182826104c7565b5050565b61032d61049a565b61033760006104fd565b565b60606004805461024e906108b8565b61035061049a565b610321828261054f565b6000336102df81858561043b565b61037061049a565b6001600160a01b03811661039f57604051631e4fbdf760e01b8152600060048201526024015b60405180910390fd5b6103a8816104fd565b50565b6103b88383836001610585565b505050565b6001600160a01b038381166000908152600160209081526040808320938616835292905220546000198114610435578181101561042657604051637dc7a0d960e11b81526001600160a01b03841660048201526024810182905260448101839052606401610396565b61043584848484036000610585565b50505050565b6001600160a01b03831661046557604051634b637e8f60e11b815260006004820152602401610396565b6001600160a01b03821661048f5760405163ec442f0560e01b815260006004820152602401610396565b6103b883838361065a565b6005546001600160a01b031633146103375760405163118cdaa760e01b8152336004820152602401610396565b6001600160a01b0382166104f15760405163ec442f0560e01b815260006004820152602401610396565b6103216000838361065a565b600580546001600160a01b038381166001600160a01b0319831681179093556040519116919082907f8be0079c531659141344cd1fd0a4f28419497f9722a3daafe3b4186f6b6457e090600090a35050565b6001600160a01b03821661057957604051634b637e8f60e11b815260006004820152602401610396565b6103218260008361065a565b6001600160a01b0384166105af5760405163e602df0560e01b815260006004820152602401610396565b6001600160a01b0383166105d957604051634a1406b160e11b815260006004820152602401610396565b6001600160a01b038085166000908152600160209081526040808320938716835292905220829055801561043557826001600160a01b0316846001600160a01b03167f8c5be1e5ebec7d5bd14f71427d1e84f3dd0314c0f7b2291e5b200ac8c7c3b9258460405161064c91815260200190565b60405180910390a350505050565b61066261049a565b6103b88383836001600160a01b03831661069357806002600082825461068891906108f2565b909155506107059050565b6001600160a01b038316600090815260208190526040902054818110156106e65760405163391434e360e21b81526001600160a01b03851660048201526024810182905260448101839052606401610396565b6001600160a01b03841660009081526020819052604090209082900390555b6001600160a01b03821661072157600280548290039055610740565b6001600160a01b03821660009081526020819052604090208054820190555b816001600160a01b0316836001600160a01b03167fddf252ad1be2c89b69c2b068fc378daa952ba7f163c4a11628f55a4df523b3ef8360405161078591815260200190565b60405180910390a3505050565b60006020808352835180602085015260005b818110156107c0578581018301518582016040015282016107a4565b506000604082860101526040601f19601f8301168501019250505092915050565b80356001600160a01b03811681146107f857600080fd5b919050565b6000806040838503121561081057600080fd5b610819836107e1565b946020939093013593505050565b60008060006060848603121561083c57600080fd5b610845846107e1565b9250610853602085016107e1565b9150604084013590509250925092565b60006020828403121561087557600080fd5b61087e826107e1565b9392505050565b6000806040838503121561089857600080fd5b6108a1836107e1565b91506108af602084016107e1565b90509250929050565b600181811c908216806108cc57607f821691505b6020821081036108ec57634e487b7160e01b600052602260045260246000fd5b50919050565b808201808211156102e557634e487b7160e01b600052601160045260246000fdfea2646970667358221220bbb7610b516892d411b888c3b0b9a7f55538ca402f161262a6b4a4ef1afe9a2a64736f6c63430008190033a2646970667358221220b4e5e32b40b12f51dffb1e5ce789a12f845e345fb8778ab81f3a9ae45f81097864736f6c63430008190033","linkReferences":{}},"methodIdentifiers":{"addPointType(uint8)":"c58fc6fe","addRedeemable(uint8,address)":"be95f704","bidTrackers(uint8)":"fd8569cd","cancelAuction(uint8[])":"6ce7c171","claim()":"4e71d92d","claimOpened()":"9535ca69","claimTo(address)":"a262f5f8","createAuction(uint8[],(uint256,uint256,int256,int256,uint256,uint8)[])":"75765c2c","deposit(uint256)":"b6b55f25","endAuction(uint8)":"d2e2f3bb","eth()":"8c7c9e0c","getAuctionInfo(uint8)":"84014652","getCurrentPoints(uint8)":"3cbd9f2d","getLpToken()":"8214f5a4","getMainToken()":"4de046d5","getSoldPoints(uint8)":"10ff2afd","getTracker(uint8)":"57582250","initialize(address,uint256)":"cd6dc687","lpt()":"ce5fc8d0","openClaim()":"293cdbf1","owner()":"8da5cb5b","placeBid(uint256,int256,uint8)":"eb204be2","pointTypes(uint256)":"89497d14","redeemables(uint8,uint256)":"2b6ab653","renounceOwnership()":"715018a6","toLpToken(uint256)":"a0dc1d1c","toMainToken(uint256)":"7de26127","totalPoints(uint8)":"6c8abd41","trackedBalance()":"fde65e65","transferOwnership(address)":"f2fde38b","updatePoints(uint8[],int256[])":"23b2573e","version()":"54fd4d50","withdraw(uint256)":"2e1a7d4d"},"storageLayout":{"storage":[{"astId":83140,"contract":"src/Controller.sol:Controller","label":"bidTrackers","offset":0,"slot":"0","type":"t_mapping(t_enum(PointType)84342,t_struct(BidTracker)84382_storage)"},{"astId":84060,"contract":"src/Controller.sol:Controller","label":"redeemables","offset":0,"slot":"1","type":"t_mapping(t_enum(PointType)84342,t_array(t_struct(Redeemable)84053_storage)dyn_storage)"},{"astId":84065,"contract":"src/Controller.sol:Controller","label":"totalPoints","offset":0,"slot":"2","type":"t_mapping(t_enum(PointType)84342,t_uint256)"},{"astId":84069,"contract":"src/Controller.sol:Controller","label":"tokenUsed","offset":0,"slot":"3","type":"t_mapping(t_address,t_uint256)"},{"astId":84073,"contract":"src/Controller.sol:Controller","label":"pointTypes","offset":0,"slot":"4","type":"t_array(t_enum(PointType)84342)dyn_storage"},{"astId":84075,"contract":"src/Controller.sol:Controller","label":"claimOpened","offset":0,"slot":"5","type":"t_uint256"},{"astId":81831,"contract":"src/Controller.sol:Controller","label":"eth","offset":0,"slot":"6","type":"t_contract(IERC20)74232"},{"astId":81834,"contract":"src/Controller.sol:Controller","label":"lpt","offset":0,"slot":"7","type":"t_contract(LPToken)83113"},{"astId":81836,"contract":"src/Controller.sol:Controller","label":"trackedBalance","offset":0,"slot":"8","type":"t_uint256"},{"astId":81838,"contract":"src/Controller.sol:Controller","label":"pending","offset":0,"slot":"9","type":"t_uint256"},{"astId":81844,"contract":"src/Controller.sol:Controller","label":"pointsTrackers","offset":0,"slot":"10","type":"t_mapping(t_enum(PointType)84342,t_contract(PTToken)81806)"}],"types":{"t_address":{"encoding":"inplace","label":"address","numberOfBytes":"20"},"t_array(t_enum(PointType)84342)dyn_storage":{"encoding":"dynamic_array","label":"enum PointType[]","numberOfBytes":"32","base":"t_enum(PointType)84342"},"t_array(t_struct(Bid)84356_storage)dyn_storage":{"encoding":"dynamic_array","label":"struct Bid[]","numberOfBytes":"32","base":"t_struct(Bid)84356_storage"},"t_array(t_struct(Redeemable)84053_storage)dyn_storage":{"encoding":"dynamic_array","label":"struct Redeemable[]","numberOfBytes":"32","base":"t_struct(Redeemable)84053_storage"},"t_contract(IERC20)74232":{"encoding":"inplace","label":"contract IERC20","numberOfBytes":"20"},"t_contract(LPToken)83113":{"encoding":"inplace","label":"contract LPToken","numberOfBytes":"20"},"t_contract(PTToken)81806":{"encoding":"inplace","label":"contract PTToken","numberOfBytes":"20"},"t_enum(AuctionState)84345":{"encoding":"inplace","label":"enum AuctionState","numberOfBytes":"1"},"t_enum(PointType)84342":{"encoding":"inplace","label":"enum PointType","numberOfBytes":"1"},"t_int256":{"encoding":"inplace","label":"int256","numberOfBytes":"32"},"t_mapping(t_address,t_uint256)":{"encoding":"mapping","key":"t_address","label":"mapping(address => uint256)","numberOfBytes":"32","value":"t_uint256"},"t_mapping(t_enum(PointType)84342,t_array(t_struct(Redeemable)84053_storage)dyn_storage)":{"encoding":"mapping","key":"t_enum(PointType)84342","label":"mapping(enum PointType => struct Redeemable[])","numberOfBytes":"32","value":"t_array(t_struct(Redeemable)84053_storage)dyn_storage"},"t_mapping(t_enum(PointType)84342,t_contract(PTToken)81806)":{"encoding":"mapping","key":"t_enum(PointType)84342","label":"mapping(enum PointType => contract PTToken)","numberOfBytes":"32","value":"t_contract(PTToken)81806"},"t_mapping(t_enum(PointType)84342,t_struct(BidTracker)84382_storage)":{"encoding":"mapping","key":"t_enum(PointType)84342","label":"mapping(enum PointType => struct BidTracker)","numberOfBytes":"32","value":"t_struct(BidTracker)84382_storage"},"t_mapping(t_enum(PointType)84342,t_uint256)":{"encoding":"mapping","key":"t_enum(PointType)84342","label":"mapping(enum PointType => uint256)","numberOfBytes":"32","value":"t_uint256"},"t_struct(AuctionInfo)84370_storage":{"encoding":"inplace","label":"struct AuctionInfo","numberOfBytes":"192","members":[{"astId":84358,"contract":"src/Controller.sol:Controller","label":"startTime","offset":0,"slot":"0","type":"t_uint256"},{"astId":84360,"contract":"src/Controller.sol:Controller","label":"duration","offset":0,"slot":"1","type":"t_uint256"},{"astId":84362,"contract":"src/Controller.sol:Controller","label":"targetPoints","offset":0,"slot":"2","type":"t_int256"},{"astId":84364,"contract":"src/Controller.sol:Controller","label":"pointsToSell","offset":0,"slot":"3","type":"t_int256"},{"astId":84366,"contract":"src/Controller.sol:Controller","label":"startingPrice","offset":0,"slot":"4","type":"t_uint256"},{"astId":84369,"contract":"src/Controller.sol:Controller","label":"state","offset":0,"slot":"5","type":"t_enum(AuctionState)84345"}]},"t_struct(Bid)84356_storage":{"encoding":"inplace","label":"struct Bid","numberOfBytes":"96","members":[{"astId":84351,"contract":"src/Controller.sol:Controller","label":"bidder","offset":0,"slot":"0","type":"t_address"},{"astId":84353,"contract":"src/Controller.sol:Controller","label":"price","offset":0,"slot":"1","type":"t_uint256"},{"astId":84355,"contract":"src/Controller.sol:Controller","label":"points","offset":0,"slot":"2","type":"t_int256"}]},"t_struct(BidTracker)84382_storage":{"encoding":"inplace","label":"struct BidTracker","numberOfBytes":"288","members":[{"astId":84373,"contract":"src/Controller.sol:Controller","label":"info","offset":0,"slot":"0","type":"t_struct(AuctionInfo)84370_storage"},{"astId":84375,"contract":"src/Controller.sol:Controller","label":"currentPoints","offset":0,"slot":"6","type":"t_int256"},{"astId":84377,"contract":"src/Controller.sol:Controller","label":"soldPoints","offset":0,"slot":"7","type":"t_int256"},{"astId":84381,"contract":"src/Controller.sol:Controller","label":"heap","offset":0,"slot":"8","type":"t_array(t_struct(Bid)84356_storage)dyn_storage"}]},"t_struct(Redeemable)84053_storage":{"encoding":"inplace","label":"struct Redeemable","numberOfBytes":"64","members":[{"astId":84050,"contract":"src/Controller.sol:Controller","label":"token","offset":0,"slot":"0","type":"t_address"},{"astId":84052,"contract":"src/Controller.sol:Controller","label":"totalValue","offset":0,"slot":"1","type":"t_uint256"}]},"t_uint256":{"encoding":"inplace","label":"uint256","numberOfBytes":"32"}}},"id":72}