{"abi":[{"type":"function","name":"addPointType","inputs":[{"name":"pt","type":"uint8","internalType":"enum PointType"}],"outputs":[],"stateMutability":"nonpayable"},{"type":"function","name":"addRedeemable","inputs":[{"name":"pt","type":"uint8","internalType":"enum PointType"},{"name":"token","type":"address","internalType":"address"}],"outputs":[],"stateMutability":"nonpayable"},{"type":"function","name":"bidTrackers","inputs":[{"name":"","type":"uint8","internalType":"enum PointType"}],"outputs":[{"name":"info","type":"tuple","internalType":"struct AuctionInfo","components":[{"name":"startTime","type":"uint256","internalType":"uint256"},{"name":"duration","type":"uint256","internalType":"uint256"},{"name":"targetPoints","type":"int256","internalType":"int256"},{"name":"pointsToSell","type":"int256","internalType":"int256"},{"name":"startingPrice","type":"uint256","internalType":"uint256"},{"name":"state","type":"uint8","internalType":"enum AuctionState"}]},{"name":"currentPoints","type":"int256","internalType":"int256"},{"name":"soldPoints","type":"int256","internalType":"int256"}],"stateMutability":"view"},{"type":"function","name":"cancelAuction","inputs":[{"name":"pointType","type":"uint8[]","internalType":"enum PointType[]"}],"outputs":[],"stateMutability":"nonpayable"},{"type":"function","name":"claim","inputs":[],"outputs":[],"stateMutability":"nonpayable"},{"type":"function","name":"claimOpened","inputs":[],"outputs":[{"name":"","type":"uint256","internalType":"uint256"}],"stateMutability":"view"},{"type":"function","name":"claimTo","inputs":[{"name":"to","type":"address","internalType":"address"}],"outputs":[],"stateMutability":"nonpayable"},{"type":"function","name":"createAuction","inputs":[{"name":"_pointType","type":"uint8[]","internalType":"enum PointType[]"},{"name":"_auctionInfo","type":"tuple[]","internalType":"struct AuctionInfo[]","components":[{"name":"startTime","type":"uint256","internalType":"uint256"},{"name":"duration","type":"uint256","internalType":"uint256"},{"name":"targetPoints","type":"int256","internalType":"int256"},{"name":"pointsToSell","type":"int256","internalType":"int256"},{"name":"startingPrice","type":"uint256","internalType":"uint256"},{"name":"state","type":"uint8","internalType":"enum AuctionState"}]}],"outputs":[],"stateMutability":"nonpayable"},{"type":"function","name":"deposit","inputs":[{"name":"amountInEzEth","type":"uint256","internalType":"uint256"}],"outputs":[],"stateMutability":"nonpayable"},{"type":"function","name":"endAuction","inputs":[{"name":"pointType","type":"uint8","internalType":"enum PointType"}],"outputs":[],"stateMutability":"nonpayable"},{"type":"function","name":"eth","inputs":[],"outputs":[{"name":"","type":"address","internalType":"contract IERC20"}],"stateMutability":"view"},{"type":"function","name":"getAuctionInfo","inputs":[{"name":"pt","type":"uint8","internalType":"enum PointType"}],"outputs":[{"name":"startTime","type":"uint256","internalType":"uint256"},{"name":"duration","type":"uint256","internalType":"uint256"},{"name":"targetPoints","type":"int256","internalType":"int256"},{"name":"startingPrice","type":"uint256","internalType":"uint256"},{"name":"state","type":"uint8","internalType":"enum AuctionState"}],"stateMutability":"view"},{"type":"function","name":"getCurrentPoints","inputs":[{"name":"pt","type":"uint8","internalType":"enum PointType"}],"outputs":[{"name":"","type":"int256","internalType":"int256"}],"stateMutability":"view"},{"type":"function","name":"getLpToken","inputs":[],"outputs":[{"name":"","type":"address","internalType":"address"}],"stateMutability":"view"},{"type":"function","name":"getMainToken","inputs":[],"outputs":[{"name":"","type":"address","internalType":"address"}],"stateMutability":"view"},{"type":"function","name":"getSoldPoints","inputs":[{"name":"pt","type":"uint8","internalType":"enum PointType"}],"outputs":[{"name":"","type":"int256","internalType":"int256"}],"stateMutability":"view"},{"type":"function","name":"getTracker","inputs":[{"name":"pt","type":"uint8","internalType":"enum PointType"}],"outputs":[{"name":"","type":"address","internalType":"address"}],"stateMutability":"view"},{"type":"function","name":"initialize","inputs":[{"name":"ezEth","type":"address","internalType":"address"}],"outputs":[],"stateMutability":"nonpayable"},{"type":"function","name":"lpt","inputs":[],"outputs":[{"name":"","type":"address","internalType":"contract LocalToken"}],"stateMutability":"view"},{"type":"function","name":"openClaim","inputs":[],"outputs":[],"stateMutability":"nonpayable"},{"type":"function","name":"owner","inputs":[],"outputs":[{"name":"","type":"address","internalType":"address"}],"stateMutability":"view"},{"type":"function","name":"placeBid","inputs":[{"name":"price","type":"uint256","internalType":"uint256"},{"name":"points","type":"int256","internalType":"int256"},{"name":"pointType","type":"uint8","internalType":"enum PointType"}],"outputs":[],"stateMutability":"nonpayable"},{"type":"function","name":"pointTypes","inputs":[{"name":"","type":"uint256","internalType":"uint256"}],"outputs":[{"name":"","type":"uint8","internalType":"enum PointType"}],"stateMutability":"view"},{"type":"function","name":"redeemables","inputs":[{"name":"","type":"uint8","internalType":"enum PointType"},{"name":"","type":"uint256","internalType":"uint256"}],"outputs":[{"name":"token","type":"address","internalType":"address"},{"name":"totalValue","type":"uint256","internalType":"uint256"}],"stateMutability":"view"},{"type":"function","name":"renounceOwnership","inputs":[],"outputs":[],"stateMutability":"nonpayable"},{"type":"function","name":"toLpToken","inputs":[{"name":"amountInEth","type":"uint256","internalType":"uint256"}],"outputs":[{"name":"","type":"uint256","internalType":"uint256"}],"stateMutability":"view"},{"type":"function","name":"toMainToken","inputs":[{"name":"amountInLpt","type":"uint256","internalType":"uint256"}],"outputs":[{"name":"","type":"uint256","internalType":"uint256"}],"stateMutability":"view"},{"type":"function","name":"totalPoints","inputs":[{"name":"","type":"uint8","internalType":"enum PointType"}],"outputs":[{"name":"","type":"uint256","internalType":"uint256"}],"stateMutability":"view"},{"type":"function","name":"trackedBalance","inputs":[],"outputs":[{"name":"","type":"uint256","internalType":"uint256"}],"stateMutability":"view"},{"type":"function","name":"transferOwnership","inputs":[{"name":"newOwner","type":"address","internalType":"address"}],"outputs":[],"stateMutability":"nonpayable"},{"type":"function","name":"updatePoints","inputs":[{"name":"pointType","type":"uint8[]","internalType":"enum PointType[]"},{"name":"_currentPoints","type":"int256[]","internalType":"int256[]"}],"outputs":[],"stateMutability":"nonpayable"},{"type":"function","name":"version","inputs":[],"outputs":[{"name":"","type":"uint256","internalType":"uint256"}],"stateMutability":"pure"},{"type":"function","name":"withdraw","inputs":[{"name":"amountInLPToken","type":"uint256","internalType":"uint256"}],"outputs":[],"stateMutability":"nonpayable"},{"type":"event","name":"Charge","inputs":[{"name":"from","type":"address","indexed":false,"internalType":"address"},{"name":"pt","type":"uint8","indexed":false,"internalType":"enum PointType"},{"name":"price","type":"uint256","indexed":false,"internalType":"uint256"},{"name":"points","type":"uint256","indexed":false,"internalType":"uint256"}],"anonymous":false},{"type":"event","name":"Deal","inputs":[{"name":"bidder","type":"address","indexed":false,"internalType":"address"},{"name":"pt","type":"uint8","indexed":false,"internalType":"enum PointType"},{"name":"price","type":"uint256","indexed":false,"internalType":"uint256"},{"name":"amount","type":"uint256","indexed":false,"internalType":"uint256"}],"anonymous":false},{"type":"event","name":"Deposit","inputs":[{"name":"from","type":"address","indexed":false,"internalType":"address"},{"name":"lpt","type":"uint256","indexed":false,"internalType":"uint256"},{"name":"ez","type":"uint256","indexed":false,"internalType":"uint256"}],"anonymous":false},{"type":"event","name":"Dividend","inputs":[{"name":"amount","type":"uint256","indexed":false,"internalType":"uint256"},{"name":"current","type":"uint256","indexed":false,"internalType":"uint256"}],"anonymous":false},{"type":"event","name":"Initialized","inputs":[{"name":"version","type":"uint64","indexed":false,"internalType":"uint64"}],"anonymous":false},{"type":"event","name":"OwnershipTransferred","inputs":[{"name":"previousOwner","type":"address","indexed":true,"internalType":"address"},{"name":"newOwner","type":"address","indexed":true,"internalType":"address"}],"anonymous":false},{"type":"event","name":"Refund","inputs":[{"name":"to","type":"address","indexed":false,"internalType":"address"},{"name":"pt","type":"uint8","indexed":false,"internalType":"enum PointType"},{"name":"price","type":"uint256","indexed":false,"internalType":"uint256"},{"name":"points","type":"uint256","indexed":false,"internalType":"uint256"}],"anonymous":false},{"type":"event","name":"Withdraw","inputs":[{"name":"to","type":"address","indexed":false,"internalType":"address"},{"name":"lpt","type":"uint256","indexed":false,"internalType":"uint256"},{"name":"ez","type":"uint256","indexed":false,"internalType":"uint256"}],"anonymous":false},{"type":"error","name":"InvalidInitialization","inputs":[]},{"type":"error","name":"NotInitializing","inputs":[]},{"type":"error","name":"OwnableInvalidOwner","inputs":[{"name":"owner","type":"address","internalType":"address"}]},{"type":"error","name":"OwnableUnauthorizedAccount","inputs":[{"name":"account","type":"address","internalType":"address"}]}],"bytecode":{"object":"0x6080604052348015600f57600080fd5b506148438061001f6000396000f3fe608060405234801561001057600080fd5b50600436106101fb5760003560e01c8063840146521161011a578063be95f704116100ad578063d2e2f3bb1161007c578063d2e2f3bb14610441578063eb204be214610454578063f2fde38b14610467578063fd8569cd1461047a578063fde65e651461049c57600080fd5b8063be95f704146103f5578063c4d66de814610408578063c58fc6fe1461041b578063ce5fc8d01461042e57600080fd5b80639535ca69116100e95780639535ca69146103b3578063a0dc1d1c146103bc578063a262f5f8146103cf578063b6b55f25146103e257600080fd5b8063840146521461035457806389497d14146103785780638c7c9e0c146103985780638da5cb5b146103ab57600080fd5b806354fd4d5011610192578063715018a611610161578063715018a61461031557806375765c2c1461031d5780637de26127146103305780638214f5a41461034357600080fd5b806354fd4d50146102c857806357582250146102cf5780636c8abd41146102e25780636ce7c1711461030257600080fd5b80632e1a7d4d116101ce5780632e1a7d4d146102755780633cbd9f2d146102885780634de046d51461029b5780634e71d92d146102c057600080fd5b806310ff2afd1461020057806323b2573e14610226578063293cdbf11461023b5780632b6ab65314610243575b600080fd5b61021361020e366004613475565b6104a5565b6040519081526020015b60405180910390f35b61023961023436600461359e565b6104e6565b005b6102396104fc565b610256610251366004613659565b610510565b604080516001600160a01b03909316835260208301919091520161021d565b610239610283366004613685565b610556565b610213610296366004613475565b610562565b6006546001600160a01b03165b6040516001600160a01b03909116815260200161021d565b6102396105a3565b6001610213565b6102a86102dd366004613475565b6105ac565b6102136102f0366004613475565b60026020526000908152604090205481565b61023961031036600461369e565b6105f5565b610239610606565b61023961032b3660046136d3565b610618565b61021361033e366004613685565b61062a565b6007546001600160a01b03166102a8565b610367610362366004613475565b61073b565b60405161021d959493929190613816565b61038b610386366004613685565b61087f565b60405161021d919061384c565b6006546102a8906001600160a01b031681565b6102a86108b3565b61021360055481565b6102136103ca366004613685565b6108e1565b6102396103dd36600461387b565b610979565b6102396103f0366004613685565b610982565b610239610403366004613896565b61098b565b61023961041636600461387b565b61099d565b610239610429366004613475565b610b02565b6007546102a8906001600160a01b031681565b61023961044f366004613475565b610b1c565b6102396104623660046138cb565b610c62565b61023961047536600461387b565b610e81565b61048d610488366004613475565b610ebc565b60405161021d93929190613904565b61021360085481565b60008060008360018111156104bc576104bc6137e2565b60018111156104cd576104cd6137e2565b8152602001908152602001600020600701549050919050565b6104ee610f5a565b6104f88282610f8c565b5050565b610504610f5a565b61050e6001600555565b565b6001602052816000526040600020818154811061052c57600080fd5b6000918252602090912060029091020180546001909101546001600160a01b039091169250905082565b61055f81611142565b50565b6000806000836001811115610579576105796137e2565b600181111561058a5761058a6137e2565b8152602001908152602001600020600601549050919050565b61050e336113f9565b6000600a60008360018111156105c4576105c46137e2565b60018111156105d5576105d56137e2565b81526020810191909152604001600020546001600160a01b031692915050565b6105fd610f5a565b61055f8161167f565b61060e610f5a565b61050e60006117ad565b610620610f5a565b6104f8828261181e565b600754604080516318160ddd60e01b815290516000926001600160a01b0316916318160ddd9160048083019260209291908290030181865afa158015610674573d6000803e3d6000fd5b505050506040513d601f19601f82011682018060405250810190610698919061395d565b6000036106a757506000919050565b600760009054906101000a90046001600160a01b03166001600160a01b03166318160ddd6040518163ffffffff1660e01b8152600401602060405180830381865afa1580156106fa573d6000803e3d6000fd5b505050506040513d601f19601f8201168201806040525081019061071e919061395d565b60085461072b908461398c565b61073591906139b9565b92915050565b6000806000806000806000876001811115610758576107586137e2565b6001811115610769576107696137e2565b81526020810191909152604001600090812054955080876001811115610791576107916137e2565b60018111156107a2576107a26137e2565b81526020019081526020016000206000016001015493506000808760018111156107ce576107ce6137e2565b60018111156107df576107df6137e2565b815260200190815260200160002060000160020154925060008087600181111561080b5761080b6137e2565b600181111561081c5761081c6137e2565b8152602001908152602001600020600001600401549150600080876001811115610848576108486137e2565b6001811115610859576108596137e2565b815260208101919091526040016000206005015494969395509193909260ff9091169150565b6004818154811061088f57600080fd5b9060005260206000209060209182820401919006915054906101000a900460ff1681565b7f9016d09d72d40fdae2fd8ceac6b6234c7706214fd39c1cd1e609a0528c199300546001600160a01b031690565b60006008546000036108f557506000919050565b600854600760009054906101000a90046001600160a01b03166001600160a01b03166318160ddd6040518163ffffffff1660e01b8152600401602060405180830381865afa15801561094b573d6000803e3d6000fd5b505050506040513d601f19601f8201168201806040525081019061096f919061395d565b61072b908461398c565b61055f816113f9565b61055f81611b01565b610993610f5a565b6104f88282611d46565b7ff0c57e16840df040f15088dc2f81fe391c3923bec73e23a9662efc9c229c6a008054600160401b810460ff16159067ffffffffffffffff166000811580156109e35750825b905060008267ffffffffffffffff166001148015610a005750303b155b905081158015610a0e575080155b15610a2c5760405163f92ee8a960e01b815260040160405180910390fd5b845467ffffffffffffffff191660011785558315610a5657845460ff60401b1916600160401b1785555b610a5f33611e7a565b610a6886611e8b565b610a8e6000604051806040016040528060038152602001620454c560ec1b815250611f0c565b610ab46001604051806040016040528060038152602001620455a560ec1b815250611f0c565b8315610afa57845460ff60401b19168555604051600181527fc7f505b2f371ae2175ee4913f4499e1f2633a7b5936321eed1cdaeb6115181d29060200160405180910390a15b505050505050565b610b0a610f5a565b61055f81610b1783611fe9565b612095565b6000610b27826121db565b805190915015610c5a5760005b8151811015610c5857610bbc828281518110610b5257610b526139cd565b602002602001015160000151670de0b6b3a7640000848481518110610b7957610b796139cd565b602002602001015160400151610b8f91906139e3565b848481518110610ba157610ba16139cd565b602002602001015160200151610bb7919061398c565b61283b565b7fc8cafbc4d192548adbb12993818fa3905ae3707d3e9ab7c64c3bb689a5162a10828281518110610bef57610bef6139cd565b60200260200101516000015184848481518110610c0e57610c0e6139cd565b602002602001015160200151858581518110610c2c57610c2c6139cd565b602002602001015160400151604051610c489493929190613a11565b60405180910390a1600101610b34565b505b6104f86128ce565b610c6a6108b3565b6001600160a01b03163303610cbf5760405162461bcd60e51b815260206004820152601660248201527513dddb995c881b9bdd08185b1b1bddc81d1bc8189a5960521b60448201526064015b60405180910390fd5b60008213610ccc57600080fd5b6000670de0b6b3a7640000610ce1848661398c565b610ceb91906139b9565b905060008111610cfa57600080fd5b610d0433826128e0565b7f4408f1316fc22349ba680df59da58c7bbd2d9ea6c04de585c44b786ce0a16cb133838686604051610d399493929190613a11565b60405180910390a16000610d4e858585612970565b805190915015610e7a5760005b8151811015610afa57610dde828281518110610d7957610d796139cd565b602002602001015160000151670de0b6b3a7640000848481518110610da057610da06139cd565b602002602001015160400151858581518110610dbe57610dbe6139cd565b602002602001015160200151610dd4919061398c565b610bb791906139b9565b7fc8cafbc4d192548adbb12993818fa3905ae3707d3e9ab7c64c3bb689a5162a10828281518110610e1157610e116139cd565b60200260200101516000015185848481518110610e3057610e306139cd565b602002602001015160200151858581518110610e4e57610e4e6139cd565b602002602001015160400151604051610e6a9493929190613a11565b60405180910390a1600101610d5b565b5050505050565b610e89610f5a565b6001600160a01b038116610eb357604051631e4fbdf760e01b815260006004820152602401610cb6565b61055f816117ad565b6000602052806000526040600020600091509050806000016040518060c001604052908160008201548152602001600182015481526020016002820154815260200160038201548152602001600482015481526020016005820160009054906101000a900460ff166001811115610f3557610f356137e2565b6001811115610f4657610f466137e2565b905250600682015460079092015490919083565b33610f636108b3565b6001600160a01b03161461050e5760405163118cdaa760e01b8152336004820152602401610cb6565b60005b82518160ff16101561113d576000828260ff1681518110610fb257610fb26139cd565b6020026020010151136110015760405162461bcd60e51b8152602060048201526017602482015276506f696e7473206d75737420626520706f73697469766560481b6044820152606401610cb6565b600080848360ff1681518110611019576110196139cd565b60200260200101516001811115611032576110326137e2565b6001811115611043576110436137e2565b815260200190815260200160002060060154828260ff168151811061106a5761106a6139cd565b6020026020010151136110b85760405162461bcd60e51b8152602060048201526016602482015275506f696e7473206d7573742062652067726f77696e6760501b6044820152606401610cb6565b818160ff16815181106110cd576110cd6139cd565b6020026020010151600080858460ff16815181106110ed576110ed6139cd565b60200260200101516001811115611106576111066137e2565b6001811115611117576111176137e2565b81526020810191909152604001600020600601558061113581613a45565b915050610f8f565b505050565b600754604080516318160ddd60e01b815290516000926001600160a01b0316916318160ddd9160048083019260209291908290030181865afa15801561118c573d6000803e3d6000fd5b505050506040513d601f19601f820116820180604052508101906111b0919061395d565b116111ba57600080fd5b600754604080516318160ddd60e01b815290516000926001600160a01b0316916318160ddd9160048083019260209291908290030181865afa158015611204573d6000803e3d6000fd5b505050506040513d601f19601f82011682018060405250810190611228919061395d565b600854611235908461398c565b61123f91906139b9565b600754604051632770a7eb60e21b8152336004820152602481018590529192506001600160a01b031690639dc29fac90604401600060405180830381600087803b15801561128c57600080fd5b505af11580156112a0573d6000803e3d6000fd5b505060065460405163a9059cbb60e01b8152336004820152602481018590526001600160a01b03909116925063a9059cbb91506044016020604051808303816000875af11580156112f5573d6000803e3d6000fd5b505050506040513d601f19601f820116820180604052508101906113199190613a64565b50806008600082825461132c9190613a86565b909155505060408051338152602081018490529081018290527ff279e6a1f5e320cca91135676d9cb6e44ca8a08c0b88342bcdb1144f6511b5689060600160405180910390a1600760009054906101000a90046001600160a01b03166001600160a01b03166318160ddd6040518163ffffffff1660e01b8152600401602060405180830381865afa1580156113c5573d6000803e3d6000fd5b505050506040513d601f19601f820116820180604052508101906113e9919061395d565b6000036104f85760006008555050565b3360005b60045481101561113d5760006114458360048481548110611420576114206139cd565b90600052602060002090602091828204019190069054906101000a900460ff16612bcc565b90506000811180156114be57506000600260006004858154811061146b5761146b6139cd565b90600052602060002090602091828204019190069054906101000a900460ff16600181111561149c5761149c6137e2565b60018111156114ad576114ad6137e2565b815260200190815260200160002054115b156116765761150083600484815481106114da576114da6139cd565b90600052602060002090602091828204019190069054906101000a900460ff1683612bdf565b60005b600160006004858154811061151a5761151a6139cd565b90600052602060002090602091828204019190069054906101000a900460ff16600181111561154b5761154b6137e2565b600181111561155c5761155c6137e2565b81526020810191909152604001600020548110156116745761166c85600160006004878154811061158f5761158f6139cd565b90600052602060002090602091828204019190069054906101000a900460ff1660018111156115c0576115c06137e2565b60018111156115d1576115d16137e2565b815260200190815260200160002083815481106115f0576115f06139cd565b9060005260206000209060020201846002600060048981548110611616576116166139cd565b90600052602060002090602091828204019190069054906101000a900460ff166001811115611647576116476137e2565b6001811115611658576116586137e2565b815260200190815260200160002054612bea565b600101611503565b505b506001016113fd565b60005b81518160ff1610156104f8576000806000848460ff16815181106116a8576116a86139cd565b602002602001015160018111156116c1576116c16137e2565b60018111156116d2576116d26137e2565b8152602081019190915260400160002090506001600582015460ff1660018111156116ff576116ff6137e2565b146117425760405162461bcd60e51b8152602060048201526013602482015272105d58dd1a5bdb881b9bdd0818dc99585d1959606a1b6044820152606401610cb6565b805442106117925760405162461bcd60e51b815260206004820152601760248201527f41756374696f6e20616c726561647920737461727465640000000000000000006044820152606401610cb6565b600501805460ff191690556117a681613a45565b9050611682565b7f9016d09d72d40fdae2fd8ceac6b6234c7706214fd39c1cd1e609a0528c19930080546001600160a01b031981166001600160a01b03848116918217845560405192169182907f8be0079c531659141344cd1fd0a4f28419497f9722a3daafe3b4186f6b6457e090600090a3505050565b60005b82518160ff16101561113d576000806000858460ff1681518110611847576118476139cd565b60200260200101516001811115611860576118606137e2565b6001811115611871576118716137e2565b8152602081019190915260400160009081209150600582015460ff16600181111561189e5761189e6137e2565b146118eb5760405162461bcd60e51b815260206004820152601760248201527f41756374696f6e20616c726561647920637265617465640000000000000000006044820152606401610cb6565b828260ff1681518110611900576119006139cd565b602002602001015160000151421061194f5760405162461bcd60e51b8152602060048201526012602482015271496e76616c69642073746172742074696d6560701b6044820152606401610cb6565b62015180838360ff1681518110611968576119686139cd565b602002602001015160200151106119b55760405162461bcd60e51b81526020600482015260116024820152704475726174696f6e20746f6f206c6f6e6760781b6044820152606401610cb6565b6201518042848460ff16815181106119cf576119cf6139cd565b6020026020010151600001516119e59190613a86565b10611a325760405162461bcd60e51b815260206004820152601760248201527f53746172742074696d6520746f6f2066617220617761790000000000000000006044820152606401610cb6565b828260ff1681518110611a4757611a476139cd565b602002602001015181600001600082015181600001556020820151816001015560408201518160020155606082015181600301556080820151816004015560a08201518160050160006101000a81548160ff02191690836001811115611aaf57611aaf6137e2565b0217905550611ac59150506008820160006133df565b600081600701548260060154611adb9190613a99565b600383015550600501805460ff1916600117905580611af981613a45565b915050611821565b6006546040516323b872dd60e01b8152336004820152306024820152604481018390526001600160a01b03909116906323b872dd906064016020604051808303816000875af1158015611b58573d6000803e3d6000fd5b505050506040513d601f19601f82011682018060405250810190611b7c9190613a64565b50600754604080516318160ddd60e01b8152905183926001600160a01b0316916318160ddd9160048083019260209291908290030181865afa158015611bc6573d6000803e3d6000fd5b505050506040513d601f19601f82011682018060405250810190611bea919061395d565b600003611bf75760006008555b60085415611c8657600854600754604080516318160ddd60e01b8152905185926001600160a01b0316916318160ddd9160048083019260209291908290030181865afa158015611c4b573d6000803e3d6000fd5b505050506040513d601f19601f82011682018060405250810190611c6f919061395d565b611c79919061398c565b611c8391906139b9565b90505b6007546040516340c10f1960e01b8152336004820152602481018390526001600160a01b03909116906340c10f1990604401600060405180830381600087803b158015611cd257600080fd5b505af1158015611ce6573d6000803e3d6000fd5b505050508160086000828254611cfc9190613ac0565b909155505060408051338152602081018390529081018390527f90890809c654f11d6e72a28fa60149770a0d11ec6c92319d6ceb2bb0a4ea1a159060600160405180910390a15050565b60055415611d5357600080fd5b6001600160a01b03811660009081526003602052604090205415611d7657600080fd5b60016000836001811115611d8c57611d8c6137e2565b6001811115611d9d57611d9d6137e2565b81526020808201929092526040908101600020815180830183526001600160a01b03851680825292516370a0823160e01b815230600482015291939092908301916370a0823190602401602060405180830381865afa158015611e04573d6000803e3d6000fd5b505050506040513d601f19601f82011682018060405250810190611e28919061395d565b905281546001808201845560009384526020808520845160029094020180546001600160a01b0319166001600160a01b0394851617815593810151938201939093559316825260039052604090205550565b611e82612c8e565b61055f81612cd7565b600680546001600160a01b0319166001600160a01b038316179055604051611eb290613400565b60208082526003908201526213141560ea1b6040820152606001604051809103906000f080158015611ee8573d6000803e3d6000fd5b50600780546001600160a01b0319166001600160a01b039290921691909117905550565b6000600a81846001811115611f2357611f236137e2565b6001811115611f3457611f346137e2565b81526020810191909152604001600020546001600160a01b031614611f5857600080fd5b80604051611f6590613400565b611f6f9190613ad3565b604051809103906000f080158015611f8b573d6000803e3d6000fd5b50600a6000846001811115611fa257611fa26137e2565b6001811115611fb357611fb36137e2565b815260200190815260200160002060006101000a8154816001600160a01b0302191690836001600160a01b031602179055505050565b6000600a6000836001811115612001576120016137e2565b6001811115612012576120126137e2565b815260200190815260200160002060009054906101000a90046001600160a01b03166001600160a01b03166318160ddd6040518163ffffffff1660e01b8152600401602060405180830381865afa158015612071573d6000803e3d6000fd5b505050506040513d601f19601f82011682018060405250810190610735919061395d565b600554156120a257600080fd5b600260008360018111156120b8576120b86137e2565b60018111156120c9576120c96137e2565b8152602001908152602001600020546000146121275760405162461bcd60e51b815260206004820152601760248201527f506f696e745479706520616c72656164792061646465640000000000000000006044820152606401610cb6565b6000811161213457600080fd5b806002600084600181111561214b5761214b6137e2565b600181111561215c5761215c6137e2565b81526020808201929092526040016000908120929092556004805460018181018355919093529082047f8a35acfbc15ff81a39ae7d344fd709f28e8600b4aa8c65c6b64bfe7fe36bd19b0180548593919260ff601f9093166101000a92830219909116919084908111156121d2576121d26137e2565b02179055505050565b606060008060008460018111156121f4576121f46137e2565b6001811115612205576122056137e2565b8152602081019190915260400160002090506001600582015460ff166001811115612232576122326137e2565b1461226d5760405162461bcd60e51b815260206004820152600b60248201526a57726f6e6720737461746560a81b6044820152606401610cb6565b60018101548154429161227f91613ac0565b106122b95760405162461bcd60e51b815260206004820152600a60248201526957726f6e672074696d6560b01b6044820152606401610cb6565b6000806122c461340d565b836006015484600701541280156122de5750600884015483105b156126795783600601548460080184815481106122fd576122fd6139cd565b906000526020600020906003020160020154856007015461231e9190613b22565b13156124f95760008460070154856006015461233a9190613a99565b9050846008018481548110612351576123516139cd565b60009182526020909120600390910201546001600160a01b0316825260088501805485908110612383576123836139cd565b906000526020600020906003020160010154826020018181525050808560080185815481106123b4576123b46139cd565b9060005260206000209060030201600201546123d09190613a99565b6040830152600885018054829190869081106123ee576123ee6139cd565b906000526020600020906003020160020181905550808560070160008282546124179190613b22565b92505081905550612457856008018581548110612436576124366139cd565b60009182526020909120600390910201546001600160a01b03168883612cdf565b7f4d7a655bb999027f48998a76c7e47c8b957f58cdc10d43808021578d8c94fe8a85600801858154811061248d5761248d6139cd565b906000526020600020906003020160000160009054906101000a90046001600160a01b0316888760080187815481106124c8576124c86139cd565b906000526020600020906003020160010154846040516124eb9493929190613a11565b60405180910390a150612667565b83600801838154811061250e5761250e6139cd565b9060005260206000209060030201600201548460070160008282546125339190613b22565b925050819055506125a4846008018481548110612552576125526139cd565b906000526020600020906003020160000160009054906101000a90046001600160a01b03168786600801868154811061258d5761258d6139cd565b906000526020600020906003020160020154612cdf565b7f4d7a655bb999027f48998a76c7e47c8b957f58cdc10d43808021578d8c94fe8a8460080184815481106125da576125da6139cd565b906000526020600020906003020160000160009054906101000a90046001600160a01b031687866008018681548110612615576126156139cd565b90600052602060002090600302016001015487600801878154811061263c5761263c6139cd565b90600052602060002090600302016002015460405161265e9493929190613a11565b60405180910390a15b8261267181613b4a565b9350506122c4565b80516001600160a01b031615612690576001612693565b60005b60ff168385600801805490506126a99190613a86565b6126b39190613ac0565b67ffffffffffffffff8111156126cb576126cb613492565b60405190808252806020026020018201604052801561270457816020015b6126f161340d565b8152602001906001900390816126e95790505b5081519095506001600160a01b031615612737578085838151811061272b5761272b6139cd565b60200260200101819052505b825b60088501548110156127d25784600801848154811061275a5761275a6139cd565b600091825260209182902060408051606081018252600390930290910180546001600160a01b031683526001810154938301939093526002909201549181019190915286518790859081106127b1576127b16139cd565b602002602001018190525082806127c790613b4a565b935050600101612739565b505b600884015483101561282857836008018054806127f3576127f3613b63565b60008281526020812060036000199093019283020180546001600160a01b0319168155600181018290556002015590556127d4565b505050600501805460ff19169055919050565b60065460405163a9059cbb60e01b81526001600160a01b038481166004830152602482018490529091169063a9059cbb906044016020604051808303816000875af115801561288e573d6000803e3d6000fd5b505050506040513d601f19601f820116820180604052508101906128b29190613a64565b5080600960008282546128c59190613a86565b90915550505050565b6128d9600954612cf7565b6000600955565b6006546040516323b872dd60e01b81526001600160a01b03848116600483015230602483015260448201849052909116906323b872dd906064016020604051808303816000875af1158015612939573d6000803e3d6000fd5b505050506040513d601f19601f8201168201806040525081019061295d9190613a64565b5080600960008282546128c59190613ac0565b60606001600080846001811115612989576129896137e2565b600181111561299a5761299a6137e2565b815260208101919091526040016000206005015460ff1660018111156129c2576129c26137e2565b146129df5760405162461bcd60e51b8152600401610cb690613b79565b6000808360018111156129f4576129f46137e2565b6001811115612a0557612a056137e2565b8152602081019190915260400160002054421015612a355760405162461bcd60e51b8152600401610cb690613b79565b600080836001811115612a4a57612a4a6137e2565b6001811115612a5b57612a5b6137e2565b815260200190815260200160002060000160010154600080846001811115612a8557612a856137e2565b6001811115612a9657612a966137e2565b8152602081019190915260400160002054612ab19190613ac0565b4210612acf5760405162461bcd60e51b8152600401610cb690613b79565b60008313612b195760405162461bcd60e51b8152602060048201526017602482015276506f696e7473206d75737420626520706f73697469766560481b6044820152606401610cb6565b600080836001811115612b2e57612b2e6137e2565b6001811115612b3f57612b3f6137e2565b815260200190815260200160002060000160040154841015612b975760405162461bcd60e51b815260206004820152601160248201527042696420707269636520746f6f206c6f7760781b6044820152606401610cb6565b612bc4826040518060600160405280336001600160a01b0316815260200187815260200186815250612dce565b949350505050565b6000612bd88383613228565b9392505050565b61113d8383836132ce565b600060055411612bf957600080fd5b600081846001015484612c0c919061398c565b612c1691906139b9565b845460405163a9059cbb60e01b81526001600160a01b0388811660048301526024820184905292935091169063a9059cbb906044016020604051808303816000875af1158015612c6a573d6000803e3d6000fd5b505050506040513d601f19601f82011682018060405250810190610afa9190613a64565b7ff0c57e16840df040f15088dc2f81fe391c3923bec73e23a9662efc9c229c6a0054600160401b900460ff1661050e57604051631afcd79f60e31b815260040160405180910390fd5b610e89612c8e565b60008113612cec57600080fd5b61113d838383613370565b600754604080516318160ddd60e01b815290516000926001600160a01b0316916318160ddd9160048083019260209291908290030181865afa158015612d41573d6000803e3d6000fd5b505050506040513d601f19601f82011682018060405250810190612d65919061395d565b118015612d725750600081115b1561055f576008546040805183815260208101929092527f7f1ec1a198bdbf142cb260ce1b9eaa12acca0ee96b6a116eba612f6a65466ccf910160405180910390a18060086000828254612dc69190613ac0565b909155505050565b60606000806000856001811115612de757612de76137e2565b6001811115612df857612df86137e2565b815260200190815260200160002090506000806000866001811115612e1f57612e1f6137e2565b6001811115612e3057612e306137e2565b81526020808201929092526040908101600090812060039081015460088701805460018082018355918552938690208a519490930290920180546001600160a01b0319166001600160a01b039094169390931783559388015190820155908601516002909101819055909150612ea69082613a99565b6008830154909150600090612ebd90600190613a86565b90505b8015612ff85760088301612ed5600183613a86565b81548110612ee557612ee56139cd565b906000526020600020906003020160010154836008018281548110612f0c57612f0c6139cd565b9060005260206000209060030201600101541115612fe657612fe6836008018281548110612f3c57612f3c6139cd565b906000526020600020906003020184600801600184612f5b9190613a86565b81548110612f6b57612f6b6139cd565b90600052602060002090600302016040805160608101825282546001600160a01b0380821680845260018087018054602087018190526002808a018054989099018890528a546001600160a01b0319978816961695909517909855928801805490965587018054909255865490921690911790945590559055565b80612ff081613ba5565b915050612ec0565b5060088201545b600060088401613010600184613a86565b81548110613020576130206139cd565b9060005260206000209060030201600201548361303d9190613b22565b136130955760088301805461305490600190613a86565b81548110613064576130646139cd565b906000526020600020906003020160020154826130819190613b22565b91508061308d81613ba5565b915050612fff565b60088301546130a5908290613a86565b67ffffffffffffffff8111156130bd576130bd613492565b6040519080825280602002602001820160405280156130f657816020015b6130e361340d565b8152602001906001900390816130db5790505b509350805b600884015481101561318d5783600801818154811061311c5761311c6139cd565b600091825260209182902060408051606081018252600390930290910180546001600160a01b03168352600181015493830193909352600290920154918101919091528561316a8484613a86565b8151811061317a5761317a6139cd565b60209081029190910101526001016130fb565b505b60088301548110156131e357826008018054806131ae576131ae613b63565b60008281526020812060036000199093019283020180546001600160a01b03191681556001810182905560020155905561318f565b816000808860018111156131f9576131f96137e2565b600181111561320a5761320a6137e2565b81526020810191909152604001600020600301555091949350505050565b6000600a6000836001811115613240576132406137e2565b6001811115613251576132516137e2565b8152602081019190915260409081016000205490516370a0823160e01b81526001600160a01b038581166004830152909116906370a0823190602401602060405180830381865afa1580156132aa573d6000803e3d6000fd5b505050506040513d601f19601f82011682018060405250810190612bd8919061395d565b600a60008360018111156132e4576132e46137e2565b60018111156132f5576132f56137e2565b815260208101919091526040908101600020549051632770a7eb60e21b81526001600160a01b0385811660048301526024820184905290911690639dc29fac906044015b600060405180830381600087803b15801561335357600080fd5b505af1158015613367573d6000803e3d6000fd5b50505050505050565b600a6000836001811115613386576133866137e2565b6001811115613397576133976137e2565b8152602081019190915260409081016000205490516340c10f1960e01b81526001600160a01b03858116600483015260248201849052909116906340c10f1990604401613339565b508054600082556003029060005260206000209081019061055f9190613437565b610c5180613bbd83390190565b604051806060016040528060006001600160a01b0316815260200160008152602001600081525090565b5b808211156134645780546001600160a01b03191681556000600182018190556002820155600301613438565b5090565b6002811061055f57600080fd5b60006020828403121561348757600080fd5b8135612bd881613468565b634e487b7160e01b600052604160045260246000fd5b60405160c0810167ffffffffffffffff811182821017156134cb576134cb613492565b60405290565b604051601f8201601f1916810167ffffffffffffffff811182821017156134fa576134fa613492565b604052919050565b600067ffffffffffffffff82111561351c5761351c613492565b5060051b60200190565b600082601f83011261353757600080fd5b8135602061354c61354783613502565b6134d1565b8083825260208201915060208460051b87010193508684111561356e57600080fd5b602086015b8481101561359357803561358681613468565b8352918301918301613573565b509695505050505050565b600080604083850312156135b157600080fd5b823567ffffffffffffffff808211156135c957600080fd5b6135d586838701613526565b93506020915081850135818111156135ec57600080fd5b85019050601f810186136135ff57600080fd5b803561360d61354782613502565b81815260059190911b8201830190838101908883111561362c57600080fd5b928401925b8284101561364a57833582529284019290840190613631565b80955050505050509250929050565b6000806040838503121561366c57600080fd5b823561367781613468565b946020939093013593505050565b60006020828403121561369757600080fd5b5035919050565b6000602082840312156136b057600080fd5b813567ffffffffffffffff8111156136c757600080fd5b612bc484828501613526565b60008060408084860312156136e757600080fd5b833567ffffffffffffffff808211156136ff57600080fd5b61370b87838801613526565b945060209150818601358181111561372257600080fd5b86019050601f8101871361373557600080fd5b803561374361354782613502565b81815260c0918202830184019184820191908a84111561376257600080fd5b938501935b838510156137d15780858c03121561377f5760008081fd5b6137876134a8565b8535815286860135878201528786013588820152606080870135908201526080808701359082015260a0808701356137be81613468565b9082015283529384019391850191613767565b508096505050505050509250929050565b634e487b7160e01b600052602160045260246000fd5b6002811061055f57634e487b7160e01b600052602160045260246000fd5b600060a08201905086825285602083015284604083015283606083015261383c836137f8565b8260808301529695505050505050565b60208101613859836137f8565b91905290565b80356001600160a01b038116811461387657600080fd5b919050565b60006020828403121561388d57600080fd5b612bd88261385f565b600080604083850312156138a957600080fd5b82356138b481613468565b91506138c26020840161385f565b90509250929050565b6000806000606084860312156138e057600080fd5b833592506020840135915060408401356138f981613468565b809150509250925092565b600061010082019050845182526020850151602083015260408501516040830152606085015160608301526080850151608083015260a0850151613947816137f8565b60a083015260c082019390935260e00152919050565b60006020828403121561396f57600080fd5b5051919050565b634e487b7160e01b600052601160045260246000fd5b808202811582820484141761073557610735613976565b634e487b7160e01b600052601260045260246000fd5b6000826139c8576139c86139a3565b500490565b634e487b7160e01b600052603260045260246000fd5b6000826139f2576139f26139a3565b600160ff1b821460001984141615613a0c57613a0c613976565b500590565b6001600160a01b038516815260808101613a2a856137f8565b84602083015283604083015282606083015295945050505050565b600060ff821660ff8103613a5b57613a5b613976565b60010192915050565b600060208284031215613a7657600080fd5b81518015158114612bd857600080fd5b8181038181111561073557610735613976565b8181036000831280158383131683831282161715613ab957613ab9613976565b5092915050565b8082018082111561073557610735613976565b60006020808352835180602085015260005b81811015613b0157858101830151858201604001528201613ae5565b506000604082860101526040601f19601f8301168501019250505092915050565b8082018281126000831280158216821582161715613b4257613b42613976565b505092915050565b600060018201613b5c57613b5c613976565b5060010190565b634e487b7160e01b600052603160045260246000fd5b60208082526012908201527141756374696f6e206e6f742061637469766560701b604082015260600190565b600081613bb457613bb4613976565b50600019019056fe608060405234801561001057600080fd5b50604051610c51380380610c5183398101604081905261002f916100f4565b338180600361003e8282610248565b50600461004b8282610248565b5050506001600160a01b03811661007c57604051631e4fbdf760e01b81526000600482015260240160405180910390fd5b6100858161008c565b5050610307565b600580546001600160a01b038381166001600160a01b0319831681179093556040519116919082907f8be0079c531659141344cd1fd0a4f28419497f9722a3daafe3b4186f6b6457e090600090a35050565b634e487b7160e01b600052604160045260246000fd5b6000602080838503121561010757600080fd5b82516001600160401b038082111561011e57600080fd5b818501915085601f83011261013257600080fd5b815181811115610144576101446100de565b604051601f8201601f19908116603f0116810190838211818310171561016c5761016c6100de565b81604052828152888684870101111561018457600080fd5b600093505b828410156101a65784840186015181850187015292850192610189565b600086848301015280965050505050505092915050565b600181811c908216806101d157607f821691505b6020821081036101f157634e487b7160e01b600052602260045260246000fd5b50919050565b601f821115610243576000816000526020600020601f850160051c810160208610156102205750805b601f850160051c820191505b8181101561023f5782815560010161022c565b5050505b505050565b81516001600160401b03811115610261576102616100de565b6102758161026f84546101bd565b846101f7565b602080601f8311600181146102aa57600084156102925750858301515b600019600386901b1c1916600185901b17855561023f565b600085815260208120601f198616915b828110156102d9578886015182559484019460019091019084016102ba565b50858210156102f75787850151600019600388901b60f8161c191681555b5050505050600190811b01905550565b61093b806103166000396000f3fe608060405234801561001057600080fd5b50600436106100ea5760003560e01c8063715018a61161008c5780639dc29fac116100665780639dc29fac146101cd578063a9059cbb146101e0578063dd62ed3e146101f3578063f2fde38b1461022c57600080fd5b8063715018a6146101a25780638da5cb5b146101aa57806395d89b41146101c557600080fd5b806323b872dd116100c857806323b872dd14610142578063313ce5671461015557806340c10f191461016457806370a082311461017957600080fd5b806306fdde03146100ef578063095ea7b31461010d57806318160ddd14610130575b600080fd5b6100f761023f565b6040516101049190610784565b60405180910390f35b61012061011b3660046107ef565b6102d1565b6040519015158152602001610104565b6002545b604051908152602001610104565b610120610150366004610819565b6102eb565b60405160128152602001610104565b6101776101723660046107ef565b61030f565b005b610134610187366004610855565b6001600160a01b031660009081526020819052604090205490565b610177610325565b6005546040516001600160a01b039091168152602001610104565b6100f7610339565b6101776101db3660046107ef565b610348565b6101206101ee3660046107ef565b61035a565b610134610201366004610877565b6001600160a01b03918216600090815260016020908152604080832093909416825291909152205490565b61017761023a366004610855565b610368565b60606003805461024e906108aa565b80601f016020809104026020016040519081016040528092919081815260200182805461027a906108aa565b80156102c75780601f1061029c576101008083540402835291602001916102c7565b820191906000526020600020905b8154815290600101906020018083116102aa57829003601f168201915b5050505050905090565b6000336102df8185856103ab565b60019150505b92915050565b6000336102f98582856103bd565b61030485858561043b565b506001949350505050565b61031761049a565b61032182826104c7565b5050565b61032d61049a565b61033760006104fd565b565b60606004805461024e906108aa565b61035061049a565b610321828261054f565b6000336102df81858561043b565b61037061049a565b6001600160a01b03811661039f57604051631e4fbdf760e01b8152600060048201526024015b60405180910390fd5b6103a8816104fd565b50565b6103b88383836001610585565b505050565b6001600160a01b038381166000908152600160209081526040808320938616835292905220546000198114610435578181101561042657604051637dc7a0d960e11b81526001600160a01b03841660048201526024810182905260448101839052606401610396565b61043584848484036000610585565b50505050565b6001600160a01b03831661046557604051634b637e8f60e11b815260006004820152602401610396565b6001600160a01b03821661048f5760405163ec442f0560e01b815260006004820152602401610396565b6103b883838361065a565b6005546001600160a01b031633146103375760405163118cdaa760e01b8152336004820152602401610396565b6001600160a01b0382166104f15760405163ec442f0560e01b815260006004820152602401610396565b6103216000838361065a565b600580546001600160a01b038381166001600160a01b0319831681179093556040519116919082907f8be0079c531659141344cd1fd0a4f28419497f9722a3daafe3b4186f6b6457e090600090a35050565b6001600160a01b03821661057957604051634b637e8f60e11b815260006004820152602401610396565b6103218260008361065a565b6001600160a01b0384166105af5760405163e602df0560e01b815260006004820152602401610396565b6001600160a01b0383166105d957604051634a1406b160e11b815260006004820152602401610396565b6001600160a01b038085166000908152600160209081526040808320938716835292905220829055801561043557826001600160a01b0316846001600160a01b03167f8c5be1e5ebec7d5bd14f71427d1e84f3dd0314c0f7b2291e5b200ac8c7c3b9258460405161064c91815260200190565b60405180910390a350505050565b6001600160a01b03831661068557806002600082825461067a91906108e4565b909155506106f79050565b6001600160a01b038316600090815260208190526040902054818110156106d85760405163391434e360e21b81526001600160a01b03851660048201526024810182905260448101839052606401610396565b6001600160a01b03841660009081526020819052604090209082900390555b6001600160a01b03821661071357600280548290039055610732565b6001600160a01b03821660009081526020819052604090208054820190555b816001600160a01b0316836001600160a01b03167fddf252ad1be2c89b69c2b068fc378daa952ba7f163c4a11628f55a4df523b3ef8360405161077791815260200190565b60405180910390a3505050565b60006020808352835180602085015260005b818110156107b257858101830151858201604001528201610796565b506000604082860101526040601f19601f8301168501019250505092915050565b80356001600160a01b03811681146107ea57600080fd5b919050565b6000806040838503121561080257600080fd5b61080b836107d3565b946020939093013593505050565b60008060006060848603121561082e57600080fd5b610837846107d3565b9250610845602085016107d3565b9150604084013590509250925092565b60006020828403121561086757600080fd5b610870826107d3565b9392505050565b6000806040838503121561088a57600080fd5b610893836107d3565b91506108a1602084016107d3565b90509250929050565b600181811c908216806108be57607f821691505b6020821081036108de57634e487b7160e01b600052602260045260246000fd5b50919050565b808201808211156102e557634e487b7160e01b600052601160045260246000fdfea2646970667358221220b48ffd3e389488f2bcecf41e198fd7027545502261e55b3b23234b9574e6a33364736f6c63430008190033a26469706673582212209ff3ae4a21ad1cbfe1e73b59af8ff529b127934bebf887245d56cc6ae544c4f464736f6c63430008190033","linkReferences":{}},"methodIdentifiers":{"addPointType(uint8)":"c58fc6fe","addRedeemable(uint8,address)":"be95f704","bidTrackers(uint8)":"fd8569cd","cancelAuction(uint8[])":"6ce7c171","claim()":"4e71d92d","claimOpened()":"9535ca69","claimTo(address)":"a262f5f8","createAuction(uint8[],(uint256,uint256,int256,int256,uint256,uint8)[])":"75765c2c","deposit(uint256)":"b6b55f25","endAuction(uint8)":"d2e2f3bb","eth()":"8c7c9e0c","getAuctionInfo(uint8)":"84014652","getCurrentPoints(uint8)":"3cbd9f2d","getLpToken()":"8214f5a4","getMainToken()":"4de046d5","getSoldPoints(uint8)":"10ff2afd","getTracker(uint8)":"57582250","initialize(address)":"c4d66de8","lpt()":"ce5fc8d0","openClaim()":"293cdbf1","owner()":"8da5cb5b","placeBid(uint256,int256,uint8)":"eb204be2","pointTypes(uint256)":"89497d14","redeemables(uint8,uint256)":"2b6ab653","renounceOwnership()":"715018a6","toLpToken(uint256)":"a0dc1d1c","toMainToken(uint256)":"7de26127","totalPoints(uint8)":"6c8abd41","trackedBalance()":"fde65e65","transferOwnership(address)":"f2fde38b","updatePoints(uint8[],int256[])":"23b2573e","version()":"54fd4d50","withdraw(uint256)":"2e1a7d4d"},"storageLayout":{"storage":[{"astId":82756,"contract":"src/Controller.sol:Controller","label":"bidTrackers","offset":0,"slot":"0","type":"t_mapping(t_enum(PointType)84028,t_struct(BidTracker)84068_storage)"},{"astId":83746,"contract":"src/Controller.sol:Controller","label":"redeemables","offset":0,"slot":"1","type":"t_mapping(t_enum(PointType)84028,t_array(t_struct(Redeemable)83739_storage)dyn_storage)"},{"astId":83751,"contract":"src/Controller.sol:Controller","label":"totalPoints","offset":0,"slot":"2","type":"t_mapping(t_enum(PointType)84028,t_uint256)"},{"astId":83755,"contract":"src/Controller.sol:Controller","label":"tokenUsed","offset":0,"slot":"3","type":"t_mapping(t_address,t_uint256)"},{"astId":83759,"contract":"src/Controller.sol:Controller","label":"pointTypes","offset":0,"slot":"4","type":"t_array(t_enum(PointType)84028)dyn_storage"},{"astId":83761,"contract":"src/Controller.sol:Controller","label":"claimOpened","offset":0,"slot":"5","type":"t_uint256"},{"astId":81781,"contract":"src/Controller.sol:Controller","label":"eth","offset":0,"slot":"6","type":"t_contract(IERC20)74232"},{"astId":81784,"contract":"src/Controller.sol:Controller","label":"lpt","offset":0,"slot":"7","type":"t_contract(LocalToken)81756"},{"astId":81786,"contract":"src/Controller.sol:Controller","label":"trackedBalance","offset":0,"slot":"8","type":"t_uint256"},{"astId":81788,"contract":"src/Controller.sol:Controller","label":"pending","offset":0,"slot":"9","type":"t_uint256"},{"astId":81794,"contract":"src/Controller.sol:Controller","label":"pointsTrackers","offset":0,"slot":"10","type":"t_mapping(t_enum(PointType)84028,t_contract(LocalToken)81756)"}],"types":{"t_address":{"encoding":"inplace","label":"address","numberOfBytes":"20"},"t_array(t_enum(PointType)84028)dyn_storage":{"encoding":"dynamic_array","label":"enum PointType[]","numberOfBytes":"32","base":"t_enum(PointType)84028"},"t_array(t_struct(Bid)84042_storage)dyn_storage":{"encoding":"dynamic_array","label":"struct Bid[]","numberOfBytes":"32","base":"t_struct(Bid)84042_storage"},"t_array(t_struct(Redeemable)83739_storage)dyn_storage":{"encoding":"dynamic_array","label":"struct Redeemable[]","numberOfBytes":"32","base":"t_struct(Redeemable)83739_storage"},"t_contract(IERC20)74232":{"encoding":"inplace","label":"contract IERC20","numberOfBytes":"20"},"t_contract(LocalToken)81756":{"encoding":"inplace","label":"contract LocalToken","numberOfBytes":"20"},"t_enum(AuctionState)84031":{"encoding":"inplace","label":"enum AuctionState","numberOfBytes":"1"},"t_enum(PointType)84028":{"encoding":"inplace","label":"enum PointType","numberOfBytes":"1"},"t_int256":{"encoding":"inplace","label":"int256","numberOfBytes":"32"},"t_mapping(t_address,t_uint256)":{"encoding":"mapping","key":"t_address","label":"mapping(address => uint256)","numberOfBytes":"32","value":"t_uint256"},"t_mapping(t_enum(PointType)84028,t_array(t_struct(Redeemable)83739_storage)dyn_storage)":{"encoding":"mapping","key":"t_enum(PointType)84028","label":"mapping(enum PointType => struct Redeemable[])","numberOfBytes":"32","value":"t_array(t_struct(Redeemable)83739_storage)dyn_storage"},"t_mapping(t_enum(PointType)84028,t_contract(LocalToken)81756)":{"encoding":"mapping","key":"t_enum(PointType)84028","label":"mapping(enum PointType => contract LocalToken)","numberOfBytes":"32","value":"t_contract(LocalToken)81756"},"t_mapping(t_enum(PointType)84028,t_struct(BidTracker)84068_storage)":{"encoding":"mapping","key":"t_enum(PointType)84028","label":"mapping(enum PointType => struct BidTracker)","numberOfBytes":"32","value":"t_struct(BidTracker)84068_storage"},"t_mapping(t_enum(PointType)84028,t_uint256)":{"encoding":"mapping","key":"t_enum(PointType)84028","label":"mapping(enum PointType => uint256)","numberOfBytes":"32","value":"t_uint256"},"t_struct(AuctionInfo)84056_storage":{"encoding":"inplace","label":"struct AuctionInfo","numberOfBytes":"192","members":[{"astId":84044,"contract":"src/Controller.sol:Controller","label":"startTime","offset":0,"slot":"0","type":"t_uint256"},{"astId":84046,"contract":"src/Controller.sol:Controller","label":"duration","offset":0,"slot":"1","type":"t_uint256"},{"astId":84048,"contract":"src/Controller.sol:Controller","label":"targetPoints","offset":0,"slot":"2","type":"t_int256"},{"astId":84050,"contract":"src/Controller.sol:Controller","label":"pointsToSell","offset":0,"slot":"3","type":"t_int256"},{"astId":84052,"contract":"src/Controller.sol:Controller","label":"startingPrice","offset":0,"slot":"4","type":"t_uint256"},{"astId":84055,"contract":"src/Controller.sol:Controller","label":"state","offset":0,"slot":"5","type":"t_enum(AuctionState)84031"}]},"t_struct(Bid)84042_storage":{"encoding":"inplace","label":"struct Bid","numberOfBytes":"96","members":[{"astId":84037,"contract":"src/Controller.sol:Controller","label":"bidder","offset":0,"slot":"0","type":"t_address"},{"astId":84039,"contract":"src/Controller.sol:Controller","label":"price","offset":0,"slot":"1","type":"t_uint256"},{"astId":84041,"contract":"src/Controller.sol:Controller","label":"points","offset":0,"slot":"2","type":"t_int256"}]},"t_struct(BidTracker)84068_storage":{"encoding":"inplace","label":"struct BidTracker","numberOfBytes":"288","members":[{"astId":84059,"contract":"src/Controller.sol:Controller","label":"info","offset":0,"slot":"0","type":"t_struct(AuctionInfo)84056_storage"},{"astId":84061,"contract":"src/Controller.sol:Controller","label":"currentPoints","offset":0,"slot":"6","type":"t_int256"},{"astId":84063,"contract":"src/Controller.sol:Controller","label":"soldPoints","offset":0,"slot":"7","type":"t_int256"},{"astId":84067,"contract":"src/Controller.sol:Controller","label":"heap","offset":0,"slot":"8","type":"t_array(t_struct(Bid)84042_storage)dyn_storage"}]},"t_struct(Redeemable)83739_storage":{"encoding":"inplace","label":"struct Redeemable","numberOfBytes":"64","members":[{"astId":83736,"contract":"src/Controller.sol:Controller","label":"token","offset":0,"slot":"0","type":"t_address"},{"astId":83738,"contract":"src/Controller.sol:Controller","label":"totalValue","offset":0,"slot":"1","type":"t_uint256"}]},"t_uint256":{"encoding":"inplace","label":"uint256","numberOfBytes":"32"}}},"id":72}