{"abi":[{"type":"function","name":"addPointType","inputs":[{"name":"pt","type":"uint8","internalType":"enum PointType"}],"outputs":[],"stateMutability":"nonpayable"},{"type":"function","name":"addRedeemable","inputs":[{"name":"pt","type":"uint8","internalType":"enum PointType"},{"name":"token","type":"address","internalType":"address"}],"outputs":[],"stateMutability":"nonpayable"},{"type":"function","name":"bidTrackers","inputs":[{"name":"","type":"uint8","internalType":"enum PointType"}],"outputs":[{"name":"info","type":"tuple","internalType":"struct AuctionInfo","components":[{"name":"startTime","type":"uint256","internalType":"uint256"},{"name":"duration","type":"uint256","internalType":"uint256"},{"name":"pointsToSell","type":"int256","internalType":"int256"},{"name":"startingPrice","type":"uint256","internalType":"uint256"},{"name":"state","type":"uint8","internalType":"enum AuctionState"}]},{"name":"currentPoints","type":"int256","internalType":"int256"},{"name":"soldPoints","type":"int256","internalType":"int256"}],"stateMutability":"view"},{"type":"function","name":"cancelAuction","inputs":[{"name":"pointType","type":"uint8[]","internalType":"enum PointType[]"}],"outputs":[],"stateMutability":"nonpayable"},{"type":"function","name":"claim","inputs":[],"outputs":[],"stateMutability":"nonpayable"},{"type":"function","name":"claimOpened","inputs":[],"outputs":[{"name":"","type":"uint256","internalType":"uint256"}],"stateMutability":"view"},{"type":"function","name":"claimTo","inputs":[{"name":"to","type":"address","internalType":"address"}],"outputs":[],"stateMutability":"nonpayable"},{"type":"function","name":"createAuction","inputs":[{"name":"_pointType","type":"uint8[]","internalType":"enum PointType[]"},{"name":"_auctionInfo","type":"tuple[]","internalType":"struct AuctionInfo[]","components":[{"name":"startTime","type":"uint256","internalType":"uint256"},{"name":"duration","type":"uint256","internalType":"uint256"},{"name":"pointsToSell","type":"int256","internalType":"int256"},{"name":"startingPrice","type":"uint256","internalType":"uint256"},{"name":"state","type":"uint8","internalType":"enum AuctionState"}]}],"outputs":[],"stateMutability":"nonpayable"},{"type":"function","name":"deposit","inputs":[{"name":"amountInEzEth","type":"uint256","internalType":"uint256"}],"outputs":[],"stateMutability":"nonpayable"},{"type":"function","name":"endAuction","inputs":[{"name":"pointType","type":"uint8","internalType":"enum PointType"}],"outputs":[],"stateMutability":"nonpayable"},{"type":"function","name":"eth","inputs":[],"outputs":[{"name":"","type":"address","internalType":"contract IERC20"}],"stateMutability":"view"},{"type":"function","name":"getAuctionInfo","inputs":[{"name":"pt","type":"uint8","internalType":"enum PointType"}],"outputs":[{"name":"startTime","type":"uint256","internalType":"uint256"},{"name":"duration","type":"uint256","internalType":"uint256"},{"name":"pointsToSell","type":"int256","internalType":"int256"},{"name":"startingPrice","type":"uint256","internalType":"uint256"},{"name":"state","type":"uint8","internalType":"enum AuctionState"}],"stateMutability":"view"},{"type":"function","name":"getCurrentPoints","inputs":[{"name":"pt","type":"uint8","internalType":"enum PointType"}],"outputs":[{"name":"","type":"int256","internalType":"int256"}],"stateMutability":"view"},{"type":"function","name":"getLpToken","inputs":[],"outputs":[{"name":"","type":"address","internalType":"address"}],"stateMutability":"view"},{"type":"function","name":"getMainToken","inputs":[],"outputs":[{"name":"","type":"address","internalType":"address"}],"stateMutability":"view"},{"type":"function","name":"getSoldPoints","inputs":[{"name":"pt","type":"uint8","internalType":"enum PointType"}],"outputs":[{"name":"","type":"int256","internalType":"int256"}],"stateMutability":"view"},{"type":"function","name":"getTracker","inputs":[{"name":"pt","type":"uint8","internalType":"enum PointType"}],"outputs":[{"name":"","type":"address","internalType":"address"}],"stateMutability":"view"},{"type":"function","name":"initialize","inputs":[{"name":"ezEth","type":"address","internalType":"address"}],"outputs":[],"stateMutability":"nonpayable"},{"type":"function","name":"lpt","inputs":[],"outputs":[{"name":"","type":"address","internalType":"contract LocalToken"}],"stateMutability":"view"},{"type":"function","name":"openClaim","inputs":[],"outputs":[],"stateMutability":"nonpayable"},{"type":"function","name":"owner","inputs":[],"outputs":[{"name":"","type":"address","internalType":"address"}],"stateMutability":"view"},{"type":"function","name":"placeBid","inputs":[{"name":"price","type":"uint256","internalType":"uint256"},{"name":"points","type":"int256","internalType":"int256"},{"name":"pointType","type":"uint8","internalType":"enum PointType"}],"outputs":[],"stateMutability":"nonpayable"},{"type":"function","name":"pointTypes","inputs":[{"name":"","type":"uint256","internalType":"uint256"}],"outputs":[{"name":"","type":"uint8","internalType":"enum PointType"}],"stateMutability":"view"},{"type":"function","name":"redeemables","inputs":[{"name":"","type":"uint8","internalType":"enum PointType"},{"name":"","type":"uint256","internalType":"uint256"}],"outputs":[{"name":"token","type":"address","internalType":"address"},{"name":"totalValue","type":"uint256","internalType":"uint256"}],"stateMutability":"view"},{"type":"function","name":"renounceOwnership","inputs":[],"outputs":[],"stateMutability":"nonpayable"},{"type":"function","name":"toMainToken","inputs":[{"name":"amountInLpt","type":"uint256","internalType":"uint256"}],"outputs":[{"name":"","type":"uint256","internalType":"uint256"}],"stateMutability":"view"},{"type":"function","name":"totalPoints","inputs":[{"name":"","type":"uint8","internalType":"enum PointType"}],"outputs":[{"name":"","type":"uint256","internalType":"uint256"}],"stateMutability":"view"},{"type":"function","name":"trackedBalance","inputs":[],"outputs":[{"name":"","type":"uint256","internalType":"uint256"}],"stateMutability":"view"},{"type":"function","name":"transferOwnership","inputs":[{"name":"newOwner","type":"address","internalType":"address"}],"outputs":[],"stateMutability":"nonpayable"},{"type":"function","name":"updatePoints","inputs":[{"name":"pointType","type":"uint8[]","internalType":"enum PointType[]"},{"name":"_currentPoints","type":"int256[]","internalType":"int256[]"}],"outputs":[],"stateMutability":"nonpayable"},{"type":"function","name":"version","inputs":[],"outputs":[{"name":"","type":"uint256","internalType":"uint256"}],"stateMutability":"pure"},{"type":"function","name":"withdraw","inputs":[{"name":"amountInLPToken","type":"uint256","internalType":"uint256"}],"outputs":[],"stateMutability":"nonpayable"},{"type":"event","name":"Initialized","inputs":[{"name":"version","type":"uint64","indexed":false,"internalType":"uint64"}],"anonymous":false},{"type":"event","name":"OwnershipTransferred","inputs":[{"name":"previousOwner","type":"address","indexed":true,"internalType":"address"},{"name":"newOwner","type":"address","indexed":true,"internalType":"address"}],"anonymous":false},{"type":"error","name":"InvalidInitialization","inputs":[]},{"type":"error","name":"NotInitializing","inputs":[]},{"type":"error","name":"OwnableInvalidOwner","inputs":[{"name":"owner","type":"address","internalType":"address"}]},{"type":"error","name":"OwnableUnauthorizedAccount","inputs":[{"name":"account","type":"address","internalType":"address"}]}],"bytecode":{"object":"0x6080604052348015600f57600080fd5b506142968061001f6000396000f3fe608060405234801561001057600080fd5b50600436106101f05760003560e01c806389497d141161010f578063c4d66de8116100a2578063eb204be211610071578063eb204be214610436578063f2fde38b14610449578063fd8569cd1461045c578063fde65e651461047e57600080fd5b8063c4d66de8146103ea578063c58fc6fe146103fd578063ce5fc8d014610410578063d2e2f3bb1461042357600080fd5b80639ce31ec9116100de5780639ce31ec91461039e578063a262f5f8146103b1578063b6b55f25146103c4578063be95f704146103d757600080fd5b806389497d141461035a5780638c7c9e0c1461037a5780638da5cb5b1461038d5780639535ca691461039557600080fd5b806354fd4d5011610187578063715018a611610156578063715018a61461030a5780637de26127146103125780638214f5a414610325578063840146521461033657600080fd5b806354fd4d50146102bd57806357582250146102c45780636c8abd41146102d75780636ce7c171146102f757600080fd5b80632e1a7d4d116101c35780632e1a7d4d1461026a5780633cbd9f2d1461027d5780634de046d5146102905780634e71d92d146102b557600080fd5b806310ff2afd146101f557806323b2573e1461021b578063293cdbf1146102305780632b6ab65314610238575b600080fd5b610208610203366004612f11565b610487565b6040519081526020015b60405180910390f35b61022e61022936600461303a565b6104c8565b005b61022e6104de565b61024b6102463660046130f5565b6104f2565b604080516001600160a01b039093168352602083019190915201610212565b61022e610278366004613121565b610538565b61020861028b366004612f11565b610544565b6006546001600160a01b03165b6040516001600160a01b039091168152602001610212565b61022e610585565b6001610208565b61029d6102d2366004612f11565b61058e565b6102086102e5366004612f11565b60026020526000908152604090205481565b61022e61030536600461313a565b6105d7565b61022e6105e8565b610208610320366004613121565b6105fa565b6007546001600160a01b031661029d565b610349610344366004612f11565b61070b565b6040516102129594939291906131a3565b61036d610368366004613121565b61084f565b60405161021291906131d9565b60065461029d906001600160a01b031681565b61029d610883565b61020860055481565b61022e6103ac3660046131ec565b6108b1565b61022e6103bf36600461330d565b6108c3565b61022e6103d2366004613121565b6108cc565b61022e6103e5366004613328565b6108d5565b61022e6103f836600461330d565b6108e7565b61022e61040b366004612f11565b610a4c565b60075461029d906001600160a01b031681565b61022e610431366004612f11565b610a66565b61022e61044436600461335d565b610b18565b61022e61045736600461330d565b610c66565b61046f61046a366004612f11565b610ca1565b60405161021293929190613396565b61020860085481565b600080600083600181111561049e5761049e61316f565b60018111156104af576104af61316f565b8152602001908152602001600020600601549050919050565b6104d0610d35565b6104da8282610d67565b5050565b6104e6610d35565b6104f06001600555565b565b6001602052816000526040600020818154811061050e57600080fd5b6000918252602090912060029091020180546001909101546001600160a01b039091169250905082565b61054181610f1d565b50565b600080600083600181111561055b5761055b61316f565b600181111561056c5761056c61316f565b8152602001908152602001600020600501549050919050565b6104f03361118a565b6000600a60008360018111156105a6576105a661316f565b60018111156105b7576105b761316f565b81526020810191909152604001600020546001600160a01b031692915050565b6105df610d35565b61054181611410565b6105f0610d35565b6104f0600061153e565b600754604080516318160ddd60e01b815290516000926001600160a01b0316916318160ddd9160048083019260209291908290030181865afa158015610644573d6000803e3d6000fd5b505050506040513d601f19601f8201168201806040525081019061066891906133e4565b60000361067757506000919050565b600760009054906101000a90046001600160a01b03166001600160a01b03166318160ddd6040518163ffffffff1660e01b8152600401602060405180830381865afa1580156106ca573d6000803e3d6000fd5b505050506040513d601f19601f820116820180604052508101906106ee91906133e4565b6008546106fb9084613413565b6107059190613440565b92915050565b60008060008060008060008760018111156107285761072861316f565b60018111156107395761073961316f565b815260208101919091526040016000908120549550808760018111156107615761076161316f565b60018111156107725761077261316f565b815260200190815260200160002060000160010154935060008087600181111561079e5761079e61316f565b60018111156107af576107af61316f565b81526020019081526020016000206000016002015492506000808760018111156107db576107db61316f565b60018111156107ec576107ec61316f565b81526020019081526020016000206000016003015491506000808760018111156108185761081861316f565b60018111156108295761082961316f565b815260208101919091526040016000206004015494969395509193909260ff9091169150565b6004818154811061085f57600080fd5b9060005260206000209060209182820401919006915054906101000a900460ff1681565b7f9016d09d72d40fdae2fd8ceac6b6234c7706214fd39c1cd1e609a0528c199300546001600160a01b031690565b6108b9610d35565b6104da82826115af565b6105418161118a565b61054181611888565b6108dd610d35565b6104da8282611a14565b7ff0c57e16840df040f15088dc2f81fe391c3923bec73e23a9662efc9c229c6a008054600160401b810460ff16159067ffffffffffffffff1660008115801561092d5750825b905060008267ffffffffffffffff16600114801561094a5750303b155b905081158015610958575080155b156109765760405163f92ee8a960e01b815260040160405180910390fd5b845467ffffffffffffffff1916600117855583156109a057845460ff60401b1916600160401b1785555b6109a933611b48565b6109b286611b59565b6109d86000604051806040016040528060038152602001620454c560ec1b815250611bda565b6109fe6001604051806040016040528060038152602001620455a560ec1b815250611bda565b8315610a4457845460ff60401b19168555604051600181527fc7f505b2f371ae2175ee4913f4499e1f2633a7b5936321eed1cdaeb6115181d29060200160405180910390a15b505050505050565b610a54610d35565b61054181610a6183611cb7565b611d63565b6000610a7182611ea9565b805190915015610b105760005b8151811015610b0e57610b06828281518110610a9c57610a9c613454565b602002602001015160000151670de0b6b3a7640000848481518110610ac357610ac3613454565b602002602001015160400151610ad9919061346a565b848481518110610aeb57610aeb613454565b602002602001015160200151610b019190613413565b6123aa565b600101610a7e565b505b6104da612434565b610b20610883565b6001600160a01b03163303610b755760405162461bcd60e51b815260206004820152601660248201527513dddb995c881b9bdd08185b1b1bddc81d1bc8189a5960521b60448201526064015b60405180910390fd5b60008213610b8257600080fd5b6000670de0b6b3a7640000610b978486613413565b610ba19190613440565b905060008111610bb057600080fd5b610bba3382612454565b6000610bc78585856124e4565b805190915015610c5f5760005b8151811015610a4457610c57828281518110610bf257610bf2613454565b602002602001015160000151670de0b6b3a7640000848481518110610c1957610c19613454565b602002602001015160400151858581518110610c3757610c37613454565b602002602001015160200151610c4d9190613413565b610b019190613440565b600101610bd4565b5050505050565b610c6e610d35565b6001600160a01b038116610c9857604051631e4fbdf760e01b815260006004820152602401610b6c565b6105418161153e565b6000602052806000526040600020600091509050806000016040518060a0016040529081600082015481526020016001820154815260200160028201548152602001600382015481526020016004820160009054906101000a900460ff166001811115610d1057610d1061316f565b6001811115610d2157610d2161316f565b905250600582015460069092015490919083565b33610d3e610883565b6001600160a01b0316146104f05760405163118cdaa760e01b8152336004820152602401610b6c565b60005b82518160ff161015610f18576000828260ff1681518110610d8d57610d8d613454565b602002602001015113610ddc5760405162461bcd60e51b8152602060048201526017602482015276506f696e7473206d75737420626520706f73697469766560481b6044820152606401610b6c565b600080848360ff1681518110610df457610df4613454565b60200260200101516001811115610e0d57610e0d61316f565b6001811115610e1e57610e1e61316f565b815260200190815260200160002060050154828260ff1681518110610e4557610e45613454565b602002602001015113610e935760405162461bcd60e51b8152602060048201526016602482015275506f696e7473206d7573742062652067726f77696e6760501b6044820152606401610b6c565b818160ff1681518110610ea857610ea8613454565b6020026020010151600080858460ff1681518110610ec857610ec8613454565b60200260200101516001811115610ee157610ee161316f565b6001811115610ef257610ef261316f565b815260208101919091526040016000206005015580610f1081613498565b915050610d6a565b505050565b600754604080516318160ddd60e01b815290516000926001600160a01b0316916318160ddd9160048083019260209291908290030181865afa158015610f67573d6000803e3d6000fd5b505050506040513d601f19601f82011682018060405250810190610f8b91906133e4565b11610f9557600080fd5b600754604080516318160ddd60e01b815290516000926001600160a01b0316916318160ddd9160048083019260209291908290030181865afa158015610fdf573d6000803e3d6000fd5b505050506040513d601f19601f8201168201806040525081019061100391906133e4565b6008546110109084613413565b61101a9190613440565b600754604051632770a7eb60e21b8152336004820152602481018590529192506001600160a01b031690639dc29fac90604401600060405180830381600087803b15801561106757600080fd5b505af115801561107b573d6000803e3d6000fd5b505060065460405163a9059cbb60e01b8152336004820152602481018590526001600160a01b03909116925063a9059cbb91506044016020604051808303816000875af11580156110d0573d6000803e3d6000fd5b505050506040513d601f19601f820116820180604052508101906110f491906134b7565b50806008600082825461110791906134d9565b9091555050600754604080516318160ddd60e01b815290516001600160a01b03909216916318160ddd916004808201926020929091908290030181865afa158015611156573d6000803e3d6000fd5b505050506040513d601f19601f8201168201806040525081019061117a91906133e4565b6000036104da5760006008555050565b3360005b600454811015610f185760006111d683600484815481106111b1576111b1613454565b90600052602060002090602091828204019190069054906101000a900460ff16612740565b905060008111801561124f5750600060026000600485815481106111fc576111fc613454565b90600052602060002090602091828204019190069054906101000a900460ff16600181111561122d5761122d61316f565b600181111561123e5761123e61316f565b815260200190815260200160002054115b1561140757611291836004848154811061126b5761126b613454565b90600052602060002090602091828204019190069054906101000a900460ff1683612753565b60005b60016000600485815481106112ab576112ab613454565b90600052602060002090602091828204019190069054906101000a900460ff1660018111156112dc576112dc61316f565b60018111156112ed576112ed61316f565b8152602081019190915260400160002054811015611405576113fd85600160006004878154811061132057611320613454565b90600052602060002090602091828204019190069054906101000a900460ff1660018111156113515761135161316f565b60018111156113625761136261316f565b8152602001908152602001600020838154811061138157611381613454565b90600052602060002090600202018460026000600489815481106113a7576113a7613454565b90600052602060002090602091828204019190069054906101000a900460ff1660018111156113d8576113d861316f565b60018111156113e9576113e961316f565b81526020019081526020016000205461275e565b600101611294565b505b5060010161118e565b60005b81518160ff1610156104da576000806000848460ff168151811061143957611439613454565b602002602001015160018111156114525761145261316f565b60018111156114635761146361316f565b8152602081019190915260400160002090506001600482015460ff1660018111156114905761149061316f565b146114d35760405162461bcd60e51b8152602060048201526013602482015272105d58dd1a5bdb881b9bdd0818dc99585d1959606a1b6044820152606401610b6c565b805442106115235760405162461bcd60e51b815260206004820152601760248201527f41756374696f6e20616c726561647920737461727465640000000000000000006044820152606401610b6c565b600401805460ff1916905561153781613498565b9050611413565b7f9016d09d72d40fdae2fd8ceac6b6234c7706214fd39c1cd1e609a0528c19930080546001600160a01b031981166001600160a01b03848116918217845560405192169182907f8be0079c531659141344cd1fd0a4f28419497f9722a3daafe3b4186f6b6457e090600090a3505050565b60005b82518160ff161015610f18576000806000858460ff16815181106115d8576115d8613454565b602002602001015160018111156115f1576115f161316f565b60018111156116025761160261316f565b8152602081019190915260400160009081209150600482015460ff16600181111561162f5761162f61316f565b1461167c5760405162461bcd60e51b815260206004820152601760248201527f41756374696f6e20616c726561647920637265617465640000000000000000006044820152606401610b6c565b828260ff168151811061169157611691613454565b60200260200101516000015142106116e05760405162461bcd60e51b8152602060048201526012602482015271496e76616c69642073746172742074696d6560701b6044820152606401610b6c565b62015180838360ff16815181106116f9576116f9613454565b602002602001015160200151106117465760405162461bcd60e51b81526020600482015260116024820152704475726174696f6e20746f6f206c6f6e6760781b6044820152606401610b6c565b6201518042848460ff168151811061176057611760613454565b60200260200101516000015161177691906134d9565b106117c35760405162461bcd60e51b815260206004820152601760248201527f53746172742074696d6520746f6f2066617220617761790000000000000000006044820152606401610b6c565b828260ff16815181106117d8576117d8613454565b6020026020010151816000016000820151816000015560208201518160010155604082015181600201556060820151816003015560808201518160040160006101000a81548160ff021916908360018111156118365761183661316f565b021790555061184c915050600782016000612e7b565b60008160060154826005015461186291906134ec565b600283015550600401805460ff191660011790558061188081613498565b9150506115b2565b6006546040516323b872dd60e01b8152336004820152306024820152604481018390526001600160a01b03909116906323b872dd906064016020604051808303816000875af11580156118df573d6000803e3d6000fd5b505050506040513d601f19601f8201168201806040525081019061190391906134b7565b5060085481901561199557600854600754604080516318160ddd60e01b8152905185926001600160a01b0316916318160ddd9160048083019260209291908290030181865afa15801561195a573d6000803e3d6000fd5b505050506040513d601f19601f8201168201806040525081019061197e91906133e4565b6119889190613413565b6119929190613440565b90505b6007546040516340c10f1960e01b8152336004820152602481018390526001600160a01b03909116906340c10f1990604401600060405180830381600087803b1580156119e157600080fd5b505af11580156119f5573d6000803e3d6000fd5b505050508160086000828254611a0b9190613513565b90915550505050565b60055415611a2157600080fd5b6001600160a01b03811660009081526003602052604090205415611a4457600080fd5b60016000836001811115611a5a57611a5a61316f565b6001811115611a6b57611a6b61316f565b81526020808201929092526040908101600020815180830183526001600160a01b03851680825292516370a0823160e01b815230600482015291939092908301916370a0823190602401602060405180830381865afa158015611ad2573d6000803e3d6000fd5b505050506040513d601f19601f82011682018060405250810190611af691906133e4565b905281546001808201845560009384526020808520845160029094020180546001600160a01b0319166001600160a01b0394851617815593810151938201939093559316825260039052604090205550565b611b50612802565b6105418161284b565b600680546001600160a01b0319166001600160a01b038316179055604051611b8090612e9c565b60208082526003908201526213141560ea1b6040820152606001604051809103906000f080158015611bb6573d6000803e3d6000fd5b50600780546001600160a01b0319166001600160a01b039290921691909117905550565b6000600a81846001811115611bf157611bf161316f565b6001811115611c0257611c0261316f565b81526020810191909152604001600020546001600160a01b031614611c2657600080fd5b80604051611c3390612e9c565b611c3d9190613526565b604051809103906000f080158015611c59573d6000803e3d6000fd5b50600a6000846001811115611c7057611c7061316f565b6001811115611c8157611c8161316f565b815260200190815260200160002060006101000a8154816001600160a01b0302191690836001600160a01b031602179055505050565b6000600a6000836001811115611ccf57611ccf61316f565b6001811115611ce057611ce061316f565b815260200190815260200160002060009054906101000a90046001600160a01b03166001600160a01b03166318160ddd6040518163ffffffff1660e01b8152600401602060405180830381865afa158015611d3f573d6000803e3d6000fd5b505050506040513d601f19601f8201168201806040525081019061070591906133e4565b60055415611d7057600080fd5b60026000836001811115611d8657611d8661316f565b6001811115611d9757611d9761316f565b815260200190815260200160002054600014611df55760405162461bcd60e51b815260206004820152601760248201527f506f696e745479706520616c72656164792061646465640000000000000000006044820152606401610b6c565b60008111611e0257600080fd5b8060026000846001811115611e1957611e1961316f565b6001811115611e2a57611e2a61316f565b81526020808201929092526040016000908120929092556004805460018181018355919093529082047f8a35acfbc15ff81a39ae7d344fd709f28e8600b4aa8c65c6b64bfe7fe36bd19b0180548593919260ff601f9093166101000a9283021990911691908490811115611ea057611ea061316f565b02179055505050565b60606000806000846001811115611ec257611ec261316f565b6001811115611ed357611ed361316f565b8152602081019190915260400160002090506001600482015460ff166001811115611f0057611f0061316f565b14611f3b5760405162461bcd60e51b815260206004820152600b60248201526a57726f6e6720737461746560a81b6044820152606401610b6c565b600181015481544291611f4d91613513565b10611f875760405162461bcd60e51b815260206004820152600a60248201526957726f6e672074696d6560b01b6044820152606401610b6c565b600080611f92612ea9565b83600501548460060154128015611fac5750600784015483105b156121e8578360050154846007018481548110611fcb57611fcb613454565b9060005260206000209060030201600201548560060154611fec9190613575565b131561212b5760008460060154856005015461200891906134ec565b905084600701848154811061201f5761201f613454565b60009182526020909120600390910201546001600160a01b031682526007850180548590811061205157612051613454565b9060005260206000209060030201600101548260200181815250508085600701858154811061208257612082613454565b90600052602060002090600302016002015461209e91906134ec565b6040830152600785018054829190869081106120bc576120bc613454565b906000526020600020906003020160020181905550808560060160008282546120e59190613575565b9250508190555061212585600701858154811061210457612104613454565b60009182526020909120600390910201546001600160a01b03168883612853565b506121d6565b83600701838154811061214057612140613454565b9060005260206000209060030201600201548460060160008282546121659190613575565b925050819055506121d684600701848154811061218457612184613454565b906000526020600020906003020160000160009054906101000a90046001600160a01b0316878660070186815481106121bf576121bf613454565b906000526020600020906003020160020154612853565b826121e08161359d565b935050611f92565b80516001600160a01b0316156121ff576001612202565b60005b60ff1683856007018054905061221891906134d9565b6122229190613513565b67ffffffffffffffff81111561223a5761223a612f2e565b60405190808252806020026020018201604052801561227357816020015b612260612ea9565b8152602001906001900390816122585790505b5081519095506001600160a01b0316156122a6578085838151811061229a5761229a613454565b60200260200101819052505b825b6007850154811015612341578460070184815481106122c9576122c9613454565b600091825260209182902060408051606081018252600390930290910180546001600160a01b0316835260018101549383019390935260029092015491810191909152865187908590811061232057612320613454565b602002602001018190525082806123369061359d565b9350506001016122a8565b505b60078401548310156123975783600701805480612362576123626135b6565b60008281526020812060036000199093019283020180546001600160a01b031916815560018101829055600201559055612343565b505050600401805460ff19169055919050565b60065460405163a9059cbb60e01b81526001600160a01b038481166004830152602482018490529091169063a9059cbb906044016020604051808303816000875af11580156123fd573d6000803e3d6000fd5b505050506040513d601f19601f8201168201806040525081019061242191906134b7565b508060096000828254611a0b91906134d9565b600954600860008282546124489190613513565b90915550506000600955565b6006546040516323b872dd60e01b81526001600160a01b03848116600483015230602483015260448201849052909116906323b872dd906064016020604051808303816000875af11580156124ad573d6000803e3d6000fd5b505050506040513d601f19601f820116820180604052508101906124d191906134b7565b508060096000828254611a0b9190613513565b606060016000808460018111156124fd576124fd61316f565b600181111561250e5761250e61316f565b815260208101919091526040016000206004015460ff1660018111156125365761253661316f565b146125535760405162461bcd60e51b8152600401610b6c906135cc565b6000808360018111156125685761256861316f565b60018111156125795761257961316f565b81526020810191909152604001600020544210156125a95760405162461bcd60e51b8152600401610b6c906135cc565b6000808360018111156125be576125be61316f565b60018111156125cf576125cf61316f565b8152602001908152602001600020600001600101546000808460018111156125f9576125f961316f565b600181111561260a5761260a61316f565b81526020810191909152604001600020546126259190613513565b42106126435760405162461bcd60e51b8152600401610b6c906135cc565b6000831361268d5760405162461bcd60e51b8152602060048201526017602482015276506f696e7473206d75737420626520706f73697469766560481b6044820152606401610b6c565b6000808360018111156126a2576126a261316f565b60018111156126b3576126b361316f565b81526020019081526020016000206000016003015484101561270b5760405162461bcd60e51b815260206004820152601160248201527042696420707269636520746f6f206c6f7760781b6044820152606401610b6c565b612738826040518060600160405280336001600160a01b031681526020018781526020018681525061286b565b949350505050565b600061274c8383612cc4565b9392505050565b610f18838383612d6a565b60006005541161276d57600080fd5b6000818460010154846127809190613413565b61278a9190613440565b845460405163a9059cbb60e01b81526001600160a01b0388811660048301526024820184905292935091169063a9059cbb906044016020604051808303816000875af11580156127de573d6000803e3d6000fd5b505050506040513d601f19601f82011682018060405250810190610a4491906134b7565b7ff0c57e16840df040f15088dc2f81fe391c3923bec73e23a9662efc9c229c6a0054600160401b900460ff166104f057604051631afcd79f60e31b815260040160405180910390fd5b610c6e612802565b6000811361286057600080fd5b610f18838383612e0c565b606060008060008560018111156128845761288461316f565b60018111156128955761289561316f565b8152602001908152602001600020905060008060008660018111156128bc576128bc61316f565b60018111156128cd576128cd61316f565b81526020808201929092526040908101600090812060029081015460078701805460018082018355918552938690208a5160039095020180546001600160a01b0319166001600160a01b03909516949094178455948901519483019490945591870151910181905590915061294290826134ec565b6007830154909150600090612959906001906134d9565b90505b8015612a9457600783016129716001836134d9565b8154811061298157612981613454565b9060005260206000209060030201600101548360070182815481106129a8576129a8613454565b9060005260206000209060030201600101541115612a8257612a828360070182815481106129d8576129d8613454565b9060005260206000209060030201846007016001846129f791906134d9565b81548110612a0757612a07613454565b90600052602060002090600302016040805160608101825282546001600160a01b0380821680845260018087018054602087018190526002808a018054989099018890528a546001600160a01b0319978816961695909517909855928801805490965587018054909255865490921690911790945590559055565b80612a8c816135f8565b91505061295c565b5060078201545b600060078401612aac6001846134d9565b81548110612abc57612abc613454565b90600052602060002090600302016002015483612ad99190613575565b13612b3157600783018054612af0906001906134d9565b81548110612b0057612b00613454565b90600052602060002090600302016002015482612b1d9190613575565b915080612b29816135f8565b915050612a9b565b6007830154612b419082906134d9565b67ffffffffffffffff811115612b5957612b59612f2e565b604051908082528060200260200182016040528015612b9257816020015b612b7f612ea9565b815260200190600190039081612b775790505b509350805b6007840154811015612c2957836007018181548110612bb857612bb8613454565b600091825260209182902060408051606081018252600390930290910180546001600160a01b031683526001810154938301939093526002909201549181019190915285612c0684846134d9565b81518110612c1657612c16613454565b6020908102919091010152600101612b97565b505b6007830154811015612c7f5782600701805480612c4a57612c4a6135b6565b60008281526020812060036000199093019283020180546001600160a01b031916815560018101829055600201559055612c2b565b81600080886001811115612c9557612c9561316f565b6001811115612ca657612ca661316f565b81526020810191909152604001600020600201555091949350505050565b6000600a6000836001811115612cdc57612cdc61316f565b6001811115612ced57612ced61316f565b8152602081019190915260409081016000205490516370a0823160e01b81526001600160a01b038581166004830152909116906370a0823190602401602060405180830381865afa158015612d46573d6000803e3d6000fd5b505050506040513d601f19601f8201168201806040525081019061274c91906133e4565b600a6000836001811115612d8057612d8061316f565b6001811115612d9157612d9161316f565b815260208101919091526040908101600020549051632770a7eb60e21b81526001600160a01b0385811660048301526024820184905290911690639dc29fac906044015b600060405180830381600087803b158015612def57600080fd5b505af1158015612e03573d6000803e3d6000fd5b50505050505050565b600a6000836001811115612e2257612e2261316f565b6001811115612e3357612e3361316f565b8152602081019190915260409081016000205490516340c10f1960e01b81526001600160a01b03858116600483015260248201849052909116906340c10f1990604401612dd5565b50805460008255600302906000526020600020908101906105419190612ed3565b610c518061361083390190565b604051806060016040528060006001600160a01b0316815260200160008152602001600081525090565b5b80821115612f005780546001600160a01b03191681556000600182018190556002820155600301612ed4565b5090565b6002811061054157600080fd5b600060208284031215612f2357600080fd5b813561274c81612f04565b634e487b7160e01b600052604160045260246000fd5b60405160a0810167ffffffffffffffff81118282101715612f6757612f67612f2e565b60405290565b604051601f8201601f1916810167ffffffffffffffff81118282101715612f9657612f96612f2e565b604052919050565b600067ffffffffffffffff821115612fb857612fb8612f2e565b5060051b60200190565b600082601f830112612fd357600080fd5b81356020612fe8612fe383612f9e565b612f6d565b8083825260208201915060208460051b87010193508684111561300a57600080fd5b602086015b8481101561302f57803561302281612f04565b835291830191830161300f565b509695505050505050565b6000806040838503121561304d57600080fd5b823567ffffffffffffffff8082111561306557600080fd5b61307186838701612fc2565b935060209150818501358181111561308857600080fd5b85019050601f8101861361309b57600080fd5b80356130a9612fe382612f9e565b81815260059190911b820183019083810190888311156130c857600080fd5b928401925b828410156130e6578335825292840192908401906130cd565b80955050505050509250929050565b6000806040838503121561310857600080fd5b823561311381612f04565b946020939093013593505050565b60006020828403121561313357600080fd5b5035919050565b60006020828403121561314c57600080fd5b813567ffffffffffffffff81111561316357600080fd5b61273884828501612fc2565b634e487b7160e01b600052602160045260246000fd5b6002811061054157634e487b7160e01b600052602160045260246000fd5b600060a0820190508682528560208301528460408301528360608301526131c983613185565b8260808301529695505050505050565b602081016131e683613185565b91905290565b600080604080848603121561320057600080fd5b833567ffffffffffffffff8082111561321857600080fd5b61322487838801612fc2565b945060209150818601358181111561323b57600080fd5b86019050601f8101871361324e57600080fd5b803561325c612fe382612f9e565b81815260a0918202830184019184820191908a84111561327b57600080fd5b938501935b838510156132e05780858c0312156132985760008081fd5b6132a0612f44565b8535815286860135878201528786013588820152606080870135908201526080808701356132cd81612f04565b9082015283529384019391850191613280565b508096505050505050509250929050565b80356001600160a01b038116811461330857600080fd5b919050565b60006020828403121561331f57600080fd5b61274c826132f1565b6000806040838503121561333b57600080fd5b823561334681612f04565b9150613354602084016132f1565b90509250929050565b60008060006060848603121561337257600080fd5b8335925060208401359150604084013561338b81612f04565b809150509250925092565b600060e0820190508451825260208501516020830152604085015160408301526060850151606083015260808501516133ce81613185565b608083015260a082019390935260c00152919050565b6000602082840312156133f657600080fd5b5051919050565b634e487b7160e01b600052601160045260246000fd5b8082028115828204841417610705576107056133fd565b634e487b7160e01b600052601260045260246000fd5b60008261344f5761344f61342a565b500490565b634e487b7160e01b600052603260045260246000fd5b6000826134795761347961342a565b600160ff1b821460001984141615613493576134936133fd565b500590565b600060ff821660ff81036134ae576134ae6133fd565b60010192915050565b6000602082840312156134c957600080fd5b8151801515811461274c57600080fd5b81810381811115610705576107056133fd565b818103600083128015838313168383128216171561350c5761350c6133fd565b5092915050565b80820180821115610705576107056133fd565b60006020808352835180602085015260005b8181101561355457858101830151858201604001528201613538565b506000604082860101526040601f19601f8301168501019250505092915050565b8082018281126000831280158216821582161715613595576135956133fd565b505092915050565b6000600182016135af576135af6133fd565b5060010190565b634e487b7160e01b600052603160045260246000fd5b60208082526012908201527141756374696f6e206e6f742061637469766560701b604082015260600190565b600081613607576136076133fd565b50600019019056fe608060405234801561001057600080fd5b50604051610c51380380610c5183398101604081905261002f916100f4565b338180600361003e8282610248565b50600461004b8282610248565b5050506001600160a01b03811661007c57604051631e4fbdf760e01b81526000600482015260240160405180910390fd5b6100858161008c565b5050610307565b600580546001600160a01b038381166001600160a01b0319831681179093556040519116919082907f8be0079c531659141344cd1fd0a4f28419497f9722a3daafe3b4186f6b6457e090600090a35050565b634e487b7160e01b600052604160045260246000fd5b6000602080838503121561010757600080fd5b82516001600160401b038082111561011e57600080fd5b818501915085601f83011261013257600080fd5b815181811115610144576101446100de565b604051601f8201601f19908116603f0116810190838211818310171561016c5761016c6100de565b81604052828152888684870101111561018457600080fd5b600093505b828410156101a65784840186015181850187015292850192610189565b600086848301015280965050505050505092915050565b600181811c908216806101d157607f821691505b6020821081036101f157634e487b7160e01b600052602260045260246000fd5b50919050565b601f821115610243576000816000526020600020601f850160051c810160208610156102205750805b601f850160051c820191505b8181101561023f5782815560010161022c565b5050505b505050565b81516001600160401b03811115610261576102616100de565b6102758161026f84546101bd565b846101f7565b602080601f8311600181146102aa57600084156102925750858301515b600019600386901b1c1916600185901b17855561023f565b600085815260208120601f198616915b828110156102d9578886015182559484019460019091019084016102ba565b50858210156102f75787850151600019600388901b60f8161c191681555b5050505050600190811b01905550565b61093b806103166000396000f3fe608060405234801561001057600080fd5b50600436106100ea5760003560e01c8063715018a61161008c5780639dc29fac116100665780639dc29fac146101cd578063a9059cbb146101e0578063dd62ed3e146101f3578063f2fde38b1461022c57600080fd5b8063715018a6146101a25780638da5cb5b146101aa57806395d89b41146101c557600080fd5b806323b872dd116100c857806323b872dd14610142578063313ce5671461015557806340c10f191461016457806370a082311461017957600080fd5b806306fdde03146100ef578063095ea7b31461010d57806318160ddd14610130575b600080fd5b6100f761023f565b6040516101049190610784565b60405180910390f35b61012061011b3660046107ef565b6102d1565b6040519015158152602001610104565b6002545b604051908152602001610104565b610120610150366004610819565b6102eb565b60405160128152602001610104565b6101776101723660046107ef565b61030f565b005b610134610187366004610855565b6001600160a01b031660009081526020819052604090205490565b610177610325565b6005546040516001600160a01b039091168152602001610104565b6100f7610339565b6101776101db3660046107ef565b610348565b6101206101ee3660046107ef565b61035a565b610134610201366004610877565b6001600160a01b03918216600090815260016020908152604080832093909416825291909152205490565b61017761023a366004610855565b610368565b60606003805461024e906108aa565b80601f016020809104026020016040519081016040528092919081815260200182805461027a906108aa565b80156102c75780601f1061029c576101008083540402835291602001916102c7565b820191906000526020600020905b8154815290600101906020018083116102aa57829003601f168201915b5050505050905090565b6000336102df8185856103ab565b60019150505b92915050565b6000336102f98582856103bd565b61030485858561043b565b506001949350505050565b61031761049a565b61032182826104c7565b5050565b61032d61049a565b61033760006104fd565b565b60606004805461024e906108aa565b61035061049a565b610321828261054f565b6000336102df81858561043b565b61037061049a565b6001600160a01b03811661039f57604051631e4fbdf760e01b8152600060048201526024015b60405180910390fd5b6103a8816104fd565b50565b6103b88383836001610585565b505050565b6001600160a01b038381166000908152600160209081526040808320938616835292905220546000198114610435578181101561042657604051637dc7a0d960e11b81526001600160a01b03841660048201526024810182905260448101839052606401610396565b61043584848484036000610585565b50505050565b6001600160a01b03831661046557604051634b637e8f60e11b815260006004820152602401610396565b6001600160a01b03821661048f5760405163ec442f0560e01b815260006004820152602401610396565b6103b883838361065a565b6005546001600160a01b031633146103375760405163118cdaa760e01b8152336004820152602401610396565b6001600160a01b0382166104f15760405163ec442f0560e01b815260006004820152602401610396565b6103216000838361065a565b600580546001600160a01b038381166001600160a01b0319831681179093556040519116919082907f8be0079c531659141344cd1fd0a4f28419497f9722a3daafe3b4186f6b6457e090600090a35050565b6001600160a01b03821661057957604051634b637e8f60e11b815260006004820152602401610396565b6103218260008361065a565b6001600160a01b0384166105af5760405163e602df0560e01b815260006004820152602401610396565b6001600160a01b0383166105d957604051634a1406b160e11b815260006004820152602401610396565b6001600160a01b038085166000908152600160209081526040808320938716835292905220829055801561043557826001600160a01b0316846001600160a01b03167f8c5be1e5ebec7d5bd14f71427d1e84f3dd0314c0f7b2291e5b200ac8c7c3b9258460405161064c91815260200190565b60405180910390a350505050565b6001600160a01b03831661068557806002600082825461067a91906108e4565b909155506106f79050565b6001600160a01b038316600090815260208190526040902054818110156106d85760405163391434e360e21b81526001600160a01b03851660048201526024810182905260448101839052606401610396565b6001600160a01b03841660009081526020819052604090209082900390555b6001600160a01b03821661071357600280548290039055610732565b6001600160a01b03821660009081526020819052604090208054820190555b816001600160a01b0316836001600160a01b03167fddf252ad1be2c89b69c2b068fc378daa952ba7f163c4a11628f55a4df523b3ef8360405161077791815260200190565b60405180910390a3505050565b60006020808352835180602085015260005b818110156107b257858101830151858201604001528201610796565b506000604082860101526040601f19601f8301168501019250505092915050565b80356001600160a01b03811681146107ea57600080fd5b919050565b6000806040838503121561080257600080fd5b61080b836107d3565b946020939093013593505050565b60008060006060848603121561082e57600080fd5b610837846107d3565b9250610845602085016107d3565b9150604084013590509250925092565b60006020828403121561086757600080fd5b610870826107d3565b9392505050565b6000806040838503121561088a57600080fd5b610893836107d3565b91506108a1602084016107d3565b90509250929050565b600181811c908216806108be57607f821691505b6020821081036108de57634e487b7160e01b600052602260045260246000fd5b50919050565b808201808211156102e557634e487b7160e01b600052601160045260246000fdfea2646970667358221220239e21c9ff9ce28805469b6700f421a2c0af249e5aa00d7ee9f7ba9c70b32c9c64736f6c63430008190033a26469706673582212203b02dda1d7e8a0354409ad77a7b7729f56fcb362bdb3dd37e532b509cb8a630264736f6c63430008190033","linkReferences":{}},"methodIdentifiers":{"addPointType(uint8)":"c58fc6fe","addRedeemable(uint8,address)":"be95f704","bidTrackers(uint8)":"fd8569cd","cancelAuction(uint8[])":"6ce7c171","claim()":"4e71d92d","claimOpened()":"9535ca69","claimTo(address)":"a262f5f8","createAuction(uint8[],(uint256,uint256,int256,uint256,uint8)[])":"9ce31ec9","deposit(uint256)":"b6b55f25","endAuction(uint8)":"d2e2f3bb","eth()":"8c7c9e0c","getAuctionInfo(uint8)":"84014652","getCurrentPoints(uint8)":"3cbd9f2d","getLpToken()":"8214f5a4","getMainToken()":"4de046d5","getSoldPoints(uint8)":"10ff2afd","getTracker(uint8)":"57582250","initialize(address)":"c4d66de8","lpt()":"ce5fc8d0","openClaim()":"293cdbf1","owner()":"8da5cb5b","placeBid(uint256,int256,uint8)":"eb204be2","pointTypes(uint256)":"89497d14","redeemables(uint8,uint256)":"2b6ab653","renounceOwnership()":"715018a6","toMainToken(uint256)":"7de26127","totalPoints(uint8)":"6c8abd41","trackedBalance()":"fde65e65","transferOwnership(address)":"f2fde38b","updatePoints(uint8[],int256[])":"23b2573e","version()":"54fd4d50","withdraw(uint256)":"2e1a7d4d"},"storageLayout":{"storage":[{"astId":82515,"contract":"src/Controller.sol:Controller","label":"bidTrackers","offset":0,"slot":"0","type":"t_mapping(t_enum(PointType)83747,t_struct(BidTracker)83785_storage)"},{"astId":83465,"contract":"src/Controller.sol:Controller","label":"redeemables","offset":0,"slot":"1","type":"t_mapping(t_enum(PointType)83747,t_array(t_struct(Redeemable)83458_storage)dyn_storage)"},{"astId":83470,"contract":"src/Controller.sol:Controller","label":"totalPoints","offset":0,"slot":"2","type":"t_mapping(t_enum(PointType)83747,t_uint256)"},{"astId":83474,"contract":"src/Controller.sol:Controller","label":"tokenUsed","offset":0,"slot":"3","type":"t_mapping(t_address,t_uint256)"},{"astId":83478,"contract":"src/Controller.sol:Controller","label":"pointTypes","offset":0,"slot":"4","type":"t_array(t_enum(PointType)83747)dyn_storage"},{"astId":83480,"contract":"src/Controller.sol:Controller","label":"claimOpened","offset":0,"slot":"5","type":"t_uint256"},{"astId":81678,"contract":"src/Controller.sol:Controller","label":"eth","offset":0,"slot":"6","type":"t_contract(IERC20)74232"},{"astId":81681,"contract":"src/Controller.sol:Controller","label":"lpt","offset":0,"slot":"7","type":"t_contract(LocalToken)81675"},{"astId":81683,"contract":"src/Controller.sol:Controller","label":"trackedBalance","offset":0,"slot":"8","type":"t_uint256"},{"astId":81685,"contract":"src/Controller.sol:Controller","label":"pending","offset":0,"slot":"9","type":"t_uint256"},{"astId":81691,"contract":"src/Controller.sol:Controller","label":"pointsTrackers","offset":0,"slot":"10","type":"t_mapping(t_enum(PointType)83747,t_contract(LocalToken)81675)"}],"types":{"t_address":{"encoding":"inplace","label":"address","numberOfBytes":"20"},"t_array(t_enum(PointType)83747)dyn_storage":{"encoding":"dynamic_array","label":"enum PointType[]","numberOfBytes":"32","base":"t_enum(PointType)83747"},"t_array(t_struct(Bid)83761_storage)dyn_storage":{"encoding":"dynamic_array","label":"struct Bid[]","numberOfBytes":"32","base":"t_struct(Bid)83761_storage"},"t_array(t_struct(Redeemable)83458_storage)dyn_storage":{"encoding":"dynamic_array","label":"struct Redeemable[]","numberOfBytes":"32","base":"t_struct(Redeemable)83458_storage"},"t_contract(IERC20)74232":{"encoding":"inplace","label":"contract IERC20","numberOfBytes":"20"},"t_contract(LocalToken)81675":{"encoding":"inplace","label":"contract LocalToken","numberOfBytes":"20"},"t_enum(AuctionState)83750":{"encoding":"inplace","label":"enum AuctionState","numberOfBytes":"1"},"t_enum(PointType)83747":{"encoding":"inplace","label":"enum PointType","numberOfBytes":"1"},"t_int256":{"encoding":"inplace","label":"int256","numberOfBytes":"32"},"t_mapping(t_address,t_uint256)":{"encoding":"mapping","key":"t_address","label":"mapping(address => uint256)","numberOfBytes":"32","value":"t_uint256"},"t_mapping(t_enum(PointType)83747,t_array(t_struct(Redeemable)83458_storage)dyn_storage)":{"encoding":"mapping","key":"t_enum(PointType)83747","label":"mapping(enum PointType => struct Redeemable[])","numberOfBytes":"32","value":"t_array(t_struct(Redeemable)83458_storage)dyn_storage"},"t_mapping(t_enum(PointType)83747,t_contract(LocalToken)81675)":{"encoding":"mapping","key":"t_enum(PointType)83747","label":"mapping(enum PointType => contract LocalToken)","numberOfBytes":"32","value":"t_contract(LocalToken)81675"},"t_mapping(t_enum(PointType)83747,t_struct(BidTracker)83785_storage)":{"encoding":"mapping","key":"t_enum(PointType)83747","label":"mapping(enum PointType => struct BidTracker)","numberOfBytes":"32","value":"t_struct(BidTracker)83785_storage"},"t_mapping(t_enum(PointType)83747,t_uint256)":{"encoding":"mapping","key":"t_enum(PointType)83747","label":"mapping(enum PointType => uint256)","numberOfBytes":"32","value":"t_uint256"},"t_struct(AuctionInfo)83773_storage":{"encoding":"inplace","label":"struct AuctionInfo","numberOfBytes":"160","members":[{"astId":83763,"contract":"src/Controller.sol:Controller","label":"startTime","offset":0,"slot":"0","type":"t_uint256"},{"astId":83765,"contract":"src/Controller.sol:Controller","label":"duration","offset":0,"slot":"1","type":"t_uint256"},{"astId":83767,"contract":"src/Controller.sol:Controller","label":"pointsToSell","offset":0,"slot":"2","type":"t_int256"},{"astId":83769,"contract":"src/Controller.sol:Controller","label":"startingPrice","offset":0,"slot":"3","type":"t_uint256"},{"astId":83772,"contract":"src/Controller.sol:Controller","label":"state","offset":0,"slot":"4","type":"t_enum(AuctionState)83750"}]},"t_struct(Bid)83761_storage":{"encoding":"inplace","label":"struct Bid","numberOfBytes":"96","members":[{"astId":83756,"contract":"src/Controller.sol:Controller","label":"bidder","offset":0,"slot":"0","type":"t_address"},{"astId":83758,"contract":"src/Controller.sol:Controller","label":"price","offset":0,"slot":"1","type":"t_uint256"},{"astId":83760,"contract":"src/Controller.sol:Controller","label":"points","offset":0,"slot":"2","type":"t_int256"}]},"t_struct(BidTracker)83785_storage":{"encoding":"inplace","label":"struct BidTracker","numberOfBytes":"256","members":[{"astId":83776,"contract":"src/Controller.sol:Controller","label":"info","offset":0,"slot":"0","type":"t_struct(AuctionInfo)83773_storage"},{"astId":83778,"contract":"src/Controller.sol:Controller","label":"currentPoints","offset":0,"slot":"5","type":"t_int256"},{"astId":83780,"contract":"src/Controller.sol:Controller","label":"soldPoints","offset":0,"slot":"6","type":"t_int256"},{"astId":83784,"contract":"src/Controller.sol:Controller","label":"heap","offset":0,"slot":"7","type":"t_array(t_struct(Bid)83761_storage)dyn_storage"}]},"t_struct(Redeemable)83458_storage":{"encoding":"inplace","label":"struct Redeemable","numberOfBytes":"64","members":[{"astId":83455,"contract":"src/Controller.sol:Controller","label":"token","offset":0,"slot":"0","type":"t_address"},{"astId":83457,"contract":"src/Controller.sol:Controller","label":"totalValue","offset":0,"slot":"1","type":"t_uint256"}]},"t_uint256":{"encoding":"inplace","label":"uint256","numberOfBytes":"32"}}},"id":72}